{
  "_format": "hh-sol-artifact-1",
  "contractName": "MikosavaOTC_V221",
  "sourceName": "contracts/MikosavaOTC_V221.sol",
  "abi": [
    {
      "inputs": [],
      "stateMutability": "nonpayable",
      "type": "constructor"
    },
    {
      "anonymous": false,
      "inputs": [
        {
          "indexed": false,
          "internalType": "address",
          "name": "previousAdmin",
          "type": "address"
        },
        {
          "indexed": false,
          "internalType": "address",
          "name": "newAdmin",
          "type": "address"
        }
      ],
      "name": "AdminChanged",
      "type": "event"
    },
    {
      "anonymous": false,
      "inputs": [
        {
          "indexed": true,
          "internalType": "address",
          "name": "beacon",
          "type": "address"
        }
      ],
      "name": "BeaconUpgraded",
      "type": "event"
    },
    {
      "anonymous": false,
      "inputs": [
        {
          "indexed": false,
          "internalType": "uint8",
          "name": "version",
          "type": "uint8"
        }
      ],
      "name": "Initialized",
      "type": "event"
    },
    {
      "anonymous": false,
      "inputs": [
        {
          "indexed": true,
          "internalType": "address",
          "name": "previousOwner",
          "type": "address"
        },
        {
          "indexed": true,
          "internalType": "address",
          "name": "newOwner",
          "type": "address"
        }
      ],
      "name": "OwnershipTransferred",
      "type": "event"
    },
    {
      "anonymous": false,
      "inputs": [
        {
          "indexed": false,
          "internalType": "address",
          "name": "account",
          "type": "address"
        }
      ],
      "name": "Paused",
      "type": "event"
    },
    {
      "anonymous": false,
      "inputs": [
        {
          "indexed": false,
          "internalType": "address",
          "name": "account",
          "type": "address"
        }
      ],
      "name": "Unpaused",
      "type": "event"
    },
    {
      "anonymous": false,
      "inputs": [
        {
          "indexed": true,
          "internalType": "address",
          "name": "implementation",
          "type": "address"
        }
      ],
      "name": "Upgraded",
      "type": "event"
    },
    {
      "inputs": [
        {
          "internalType": "uint256",
          "name": "coinTradePositionId",
          "type": "uint256"
        }
      ],
      "name": "cancellOTCCPosition",
      "outputs": [],
      "stateMutability": "payable",
      "type": "function"
    },
    {
      "inputs": [
        {
          "internalType": "uint256",
          "name": "nftTradePositionId",
          "type": "uint256"
        }
      ],
      "name": "cancellOTCNPosition",
      "outputs": [],
      "stateMutability": "payable",
      "type": "function"
    },
    {
      "inputs": [
        {
          "internalType": "uint256",
          "name": "coinTradePositionId",
          "type": "uint256"
        }
      ],
      "name": "closeOTCCPosition",
      "outputs": [],
      "stateMutability": "payable",
      "type": "function"
    },
    {
      "inputs": [
        {
          "internalType": "uint256",
          "name": "nftTradePositionId",
          "type": "uint256"
        }
      ],
      "name": "closeOTCNPosition",
      "outputs": [],
      "stateMutability": "payable",
      "type": "function"
    },
    {
      "inputs": [
        {
          "internalType": "address",
          "name": "coinAAddress",
          "type": "address"
        },
        {
          "internalType": "address",
          "name": "coinBAddress",
          "type": "address"
        },
        {
          "internalType": "uint256",
          "name": "amountCoinA",
          "type": "uint256"
        },
        {
          "internalType": "uint256",
          "name": "amountCoinB",
          "type": "uint256"
        },
        {
          "internalType": "uint256",
          "name": "validUntil",
          "type": "uint256"
        },
        {
          "internalType": "bool",
          "name": "isPublic",
          "type": "bool"
        }
      ],
      "name": "createOTCCPosition",
      "outputs": [],
      "stateMutability": "payable",
      "type": "function"
    },
    {
      "inputs": [
        {
          "internalType": "address",
          "name": "nftCollectionAddressA",
          "type": "address"
        },
        {
          "internalType": "address",
          "name": "nftCollectionAddressB",
          "type": "address"
        },
        {
          "internalType": "uint256",
          "name": "nftIdA",
          "type": "uint256"
        },
        {
          "internalType": "uint256",
          "name": "nftIdB",
          "type": "uint256"
        },
        {
          "internalType": "uint256",
          "name": "validUntil",
          "type": "uint256"
        },
        {
          "internalType": "bool",
          "name": "isPublic",
          "type": "bool"
        }
      ],
      "name": "createOTCNPosition",
      "outputs": [],
      "stateMutability": "payable",
      "type": "function"
    },
    {
      "inputs": [],
      "name": "fetchAllCoinTrades",
      "outputs": [
        {
          "components": [
            {
              "internalType": "uint256",
              "name": "tradeId",
              "type": "uint256"
            },
            {
              "internalType": "address payable",
              "name": "creator",
              "type": "address"
            },
            {
              "internalType": "address payable",
              "name": "counterpart",
              "type": "address"
            },
            {
              "internalType": "address",
              "name": "coinCreator",
              "type": "address"
            },
            {
              "internalType": "address",
              "name": "coinCounterpart",
              "type": "address"
            },
            {
              "internalType": "uint256",
              "name": "amountPositionCreator",
              "type": "uint256"
            },
            {
              "internalType": "uint256",
              "name": "amountPositionCounterpart",
              "type": "uint256"
            },
            {
              "internalType": "uint256",
              "name": "validUntil",
              "type": "uint256"
            },
            {
              "internalType": "bool",
              "name": "sold",
              "type": "bool"
            },
            {
              "internalType": "bool",
              "name": "cancelled",
              "type": "bool"
            },
            {
              "internalType": "bool",
              "name": "publicTrade",
              "type": "bool"
            }
          ],
          "internalType": "struct MikosavaOTC_V221.OTCCTrade[]",
          "name": "",
          "type": "tuple[]"
        }
      ],
      "stateMutability": "view",
      "type": "function"
    },
    {
      "inputs": [],
      "name": "fetchAllNftTrades",
      "outputs": [
        {
          "components": [
            {
              "internalType": "uint256",
              "name": "tradeId",
              "type": "uint256"
            },
            {
              "internalType": "address payable",
              "name": "creator",
              "type": "address"
            },
            {
              "internalType": "address payable",
              "name": "counterpart",
              "type": "address"
            },
            {
              "internalType": "address",
              "name": "nftAddressA",
              "type": "address"
            },
            {
              "internalType": "address",
              "name": "nftAddressB",
              "type": "address"
            },
            {
              "internalType": "uint256",
              "name": "nftIdA",
              "type": "uint256"
            },
            {
              "internalType": "uint256",
              "name": "nftIdB",
              "type": "uint256"
            },
            {
              "internalType": "uint256",
              "name": "validUntil",
              "type": "uint256"
            },
            {
              "internalType": "bool",
              "name": "sold",
              "type": "bool"
            },
            {
              "internalType": "bool",
              "name": "cancelled",
              "type": "bool"
            },
            {
              "internalType": "bool",
              "name": "publicTrade",
              "type": "bool"
            }
          ],
          "internalType": "struct MikosavaOTC_V221.OTCCNFT[]",
          "name": "",
          "type": "tuple[]"
        }
      ],
      "stateMutability": "view",
      "type": "function"
    },
    {
      "inputs": [
        {
          "internalType": "uint256",
          "name": "tradeId",
          "type": "uint256"
        }
      ],
      "name": "fetchCoinTradeById",
      "outputs": [
        {
          "components": [
            {
              "internalType": "uint256",
              "name": "tradeId",
              "type": "uint256"
            },
            {
              "internalType": "address payable",
              "name": "creator",
              "type": "address"
            },
            {
              "internalType": "address payable",
              "name": "counterpart",
              "type": "address"
            },
            {
              "internalType": "address",
              "name": "coinCreator",
              "type": "address"
            },
            {
              "internalType": "address",
              "name": "coinCounterpart",
              "type": "address"
            },
            {
              "internalType": "uint256",
              "name": "amountPositionCreator",
              "type": "uint256"
            },
            {
              "internalType": "uint256",
              "name": "amountPositionCounterpart",
              "type": "uint256"
            },
            {
              "internalType": "uint256",
              "name": "validUntil",
              "type": "uint256"
            },
            {
              "internalType": "bool",
              "name": "sold",
              "type": "bool"
            },
            {
              "internalType": "bool",
              "name": "cancelled",
              "type": "bool"
            },
            {
              "internalType": "bool",
              "name": "publicTrade",
              "type": "bool"
            }
          ],
          "internalType": "struct MikosavaOTC_V221.OTCCTrade",
          "name": "",
          "type": "tuple"
        }
      ],
      "stateMutability": "view",
      "type": "function"
    },
    {
      "inputs": [],
      "name": "fetchMyCoinTrades",
      "outputs": [
        {
          "components": [
            {
              "internalType": "uint256",
              "name": "tradeId",
              "type": "uint256"
            },
            {
              "internalType": "address payable",
              "name": "creator",
              "type": "address"
            },
            {
              "internalType": "address payable",
              "name": "counterpart",
              "type": "address"
            },
            {
              "internalType": "address",
              "name": "coinCreator",
              "type": "address"
            },
            {
              "internalType": "address",
              "name": "coinCounterpart",
              "type": "address"
            },
            {
              "internalType": "uint256",
              "name": "amountPositionCreator",
              "type": "uint256"
            },
            {
              "internalType": "uint256",
              "name": "amountPositionCounterpart",
              "type": "uint256"
            },
            {
              "internalType": "uint256",
              "name": "validUntil",
              "type": "uint256"
            },
            {
              "internalType": "bool",
              "name": "sold",
              "type": "bool"
            },
            {
              "internalType": "bool",
              "name": "cancelled",
              "type": "bool"
            },
            {
              "internalType": "bool",
              "name": "publicTrade",
              "type": "bool"
            }
          ],
          "internalType": "struct MikosavaOTC_V221.OTCCTrade[]",
          "name": "",
          "type": "tuple[]"
        }
      ],
      "stateMutability": "view",
      "type": "function"
    },
    {
      "inputs": [],
      "name": "fetchMyNftTrades",
      "outputs": [
        {
          "components": [
            {
              "internalType": "uint256",
              "name": "tradeId",
              "type": "uint256"
            },
            {
              "internalType": "address payable",
              "name": "creator",
              "type": "address"
            },
            {
              "internalType": "address payable",
              "name": "counterpart",
              "type": "address"
            },
            {
              "internalType": "address",
              "name": "nftAddressA",
              "type": "address"
            },
            {
              "internalType": "address",
              "name": "nftAddressB",
              "type": "address"
            },
            {
              "internalType": "uint256",
              "name": "nftIdA",
              "type": "uint256"
            },
            {
              "internalType": "uint256",
              "name": "nftIdB",
              "type": "uint256"
            },
            {
              "internalType": "uint256",
              "name": "validUntil",
              "type": "uint256"
            },
            {
              "internalType": "bool",
              "name": "sold",
              "type": "bool"
            },
            {
              "internalType": "bool",
              "name": "cancelled",
              "type": "bool"
            },
            {
              "internalType": "bool",
              "name": "publicTrade",
              "type": "bool"
            }
          ],
          "internalType": "struct MikosavaOTC_V221.OTCCNFT[]",
          "name": "",
          "type": "tuple[]"
        }
      ],
      "stateMutability": "view",
      "type": "function"
    },
    {
      "inputs": [
        {
          "internalType": "uint256",
          "name": "tradeId",
          "type": "uint256"
        }
      ],
      "name": "fetchNftTradeById",
      "outputs": [
        {
          "components": [
            {
              "internalType": "uint256",
              "name": "tradeId",
              "type": "uint256"
            },
            {
              "internalType": "address payable",
              "name": "creator",
              "type": "address"
            },
            {
              "internalType": "address payable",
              "name": "counterpart",
              "type": "address"
            },
            {
              "internalType": "address",
              "name": "nftAddressA",
              "type": "address"
            },
            {
              "internalType": "address",
              "name": "nftAddressB",
              "type": "address"
            },
            {
              "internalType": "uint256",
              "name": "nftIdA",
              "type": "uint256"
            },
            {
              "internalType": "uint256",
              "name": "nftIdB",
              "type": "uint256"
            },
            {
              "internalType": "uint256",
              "name": "validUntil",
              "type": "uint256"
            },
            {
              "internalType": "bool",
              "name": "sold",
              "type": "bool"
            },
            {
              "internalType": "bool",
              "name": "cancelled",
              "type": "bool"
            },
            {
              "internalType": "bool",
              "name": "publicTrade",
              "type": "bool"
            }
          ],
          "internalType": "struct MikosavaOTC_V221.OTCCNFT",
          "name": "",
          "type": "tuple"
        }
      ],
      "stateMutability": "view",
      "type": "function"
    },
    {
      "inputs": [],
      "name": "getCoinFee",
      "outputs": [
        {
          "internalType": "uint256",
          "name": "",
          "type": "uint256"
        }
      ],
      "stateMutability": "view",
      "type": "function"
    },
    {
      "inputs": [
        {
          "internalType": "uint256",
          "name": "coinFeeParam",
          "type": "uint256"
        }
      ],
      "name": "initialize",
      "outputs": [],
      "stateMutability": "nonpayable",
      "type": "function"
    },
    {
      "inputs": [],
      "name": "owner",
      "outputs": [
        {
          "internalType": "address",
          "name": "",
          "type": "address"
        }
      ],
      "stateMutability": "view",
      "type": "function"
    },
    {
      "inputs": [],
      "name": "pause",
      "outputs": [],
      "stateMutability": "nonpayable",
      "type": "function"
    },
    {
      "inputs": [],
      "name": "paused",
      "outputs": [
        {
          "internalType": "bool",
          "name": "",
          "type": "bool"
        }
      ],
      "stateMutability": "view",
      "type": "function"
    },
    {
      "inputs": [],
      "name": "proxiableUUID",
      "outputs": [
        {
          "internalType": "bytes32",
          "name": "",
          "type": "bytes32"
        }
      ],
      "stateMutability": "view",
      "type": "function"
    },
    {
      "inputs": [],
      "name": "renounceOwnership",
      "outputs": [],
      "stateMutability": "nonpayable",
      "type": "function"
    },
    {
      "inputs": [
        {
          "internalType": "uint256",
          "name": "newCoinFee",
          "type": "uint256"
        }
      ],
      "name": "setCoinFee",
      "outputs": [],
      "stateMutability": "nonpayable",
      "type": "function"
    },
    {
      "inputs": [
        {
          "internalType": "address",
          "name": "newOwner",
          "type": "address"
        }
      ],
      "name": "transferOwnership",
      "outputs": [],
      "stateMutability": "nonpayable",
      "type": "function"
    },
    {
      "inputs": [],
      "name": "unpause",
      "outputs": [],
      "stateMutability": "nonpayable",
      "type": "function"
    },
    {
      "inputs": [
        {
          "internalType": "address",
          "name": "newImplementation",
          "type": "address"
        }
      ],
      "name": "upgradeTo",
      "outputs": [],
      "stateMutability": "nonpayable",
      "type": "function"
    },
    {
      "inputs": [
        {
          "internalType": "address",
          "name": "newImplementation",
          "type": "address"
        },
        {
          "internalType": "bytes",
          "name": "data",
          "type": "bytes"
        }
      ],
      "name": "upgradeToAndCall",
      "outputs": [],
      "stateMutability": "payable",
      "type": "function"
    },
    {
      "inputs": [],
      "name": "version",
      "outputs": [
        {
          "internalType": "string",
          "name": "",
          "type": "string"
        }
      ],
      "stateMutability": "pure",
      "type": "function"
    }
  ],
  "bytecode": "0x60a06040523073ffffffffffffffffffffffffffffffffffffffff1660809073ffffffffffffffffffffffffffffffffffffffff168152503480156200004457600080fd5b50620000556200005b60201b60201c565b62000206565b600060019054906101000a900460ff1615620000ae576040517f08c379a0000000000000000000000000000000000000000000000000000000008152600401620000a590620001a9565b60405180910390fd5b60ff801660008054906101000a900460ff1660ff161015620001205760ff6000806101000a81548160ff021916908360ff1602179055507f7f26b83ff96e1f2b6a682f133852f6798a09c465da95921460cefb384740249860ff604051620001179190620001e9565b60405180910390a15b565b600082825260208201905092915050565b7f496e697469616c697a61626c653a20636f6e747261637420697320696e69746960008201527f616c697a696e6700000000000000000000000000000000000000000000000000602082015250565b60006200019160278362000122565b91506200019e8262000133565b604082019050919050565b60006020820190508181036000830152620001c48162000182565b9050919050565b600060ff82169050919050565b620001e381620001cb565b82525050565b6000602082019050620002006000830184620001d8565b92915050565b608051615c366200023e6000396000818161136e015281816113fc0152818161150801528181611596015261191d0152615c366000f3fe6080604052600436106101665760003560e01c80635b1a691e116100d15780638da5cb5b1161008a578063d6d45e0111610064578063d6d45e011461046f578063e134c2bb14610498578063f2fde38b146104c3578063fe4b84df146104ec57610166565b80638da5cb5b146103eb5780639096e50c14610416578063a2f52f501461045357610166565b80635b1a691e146102ff5780635c975abb1461032a5780636787be4214610355578063715018a6146103925780638456cb59146103a9578063883f8a81146103c057610166565b80633f4ba83a116101235780633f4ba83a1461022f5780634f1ef286146102465780634ff35f8e1461026257806352d1902d1461028d57806354fd4d50146102b857806358f56fd4146102e357610166565b806308dd894f1461016b57806317bc566f146101875780631ec54774146101a35780631fa1bad8146101bf578063280d7ae4146101db5780633659cfe614610206575b600080fd5b610185600480360381019061018091906142ad565b610515565b005b6101a1600480360381019061019c91906142ad565b610800565b005b6101bd60048036038101906101b89190614370565b610afb565b005b6101d960048036038101906101d491906142ad565b610ecd565b005b3480156101e757600080fd5b506101f0611361565b6040516101fd919061440c565b60405180910390f35b34801561021257600080fd5b5061022d60048036038101906102289190614427565b61136c565b005b34801561023b57600080fd5b506102446114f4565b005b610260600480360381019061025b919061459a565b611506565b005b34801561026e57600080fd5b50610277611642565b60405161028491906147d5565b60405180910390f35b34801561029957600080fd5b506102a2611919565b6040516102af9190614810565b60405180910390f35b3480156102c457600080fd5b506102cd6119d2565b6040516102da91906148aa565b60405180910390f35b6102fd60048036038101906102f89190614370565b611a0f565b005b34801561030b57600080fd5b50610314611dcf565b6040516103219190614a5d565b60405180910390f35b34801561033657600080fd5b5061033f6120a6565b60405161034c9190614a8e565b60405180910390f35b34801561036157600080fd5b5061037c600480360381019061037791906142ad565b6120bd565b6040516103899190614b8a565b60405180910390f35b34801561039e57600080fd5b506103a76123a3565b005b3480156103b557600080fd5b506103be6123b7565b005b3480156103cc57600080fd5b506103d56123c9565b6040516103e291906147d5565b60405180910390f35b3480156103f757600080fd5b50610400612868565b60405161040d9190614bb5565b60405180910390f35b34801561042257600080fd5b5061043d600480360381019061043891906142ad565b612892565b60405161044a9190614cb1565b60405180910390f35b61046d600480360381019061046891906142ad565b612b78565b005b34801561047b57600080fd5b50610496600480360381019061049191906142ad565b613009565b005b3480156104a457600080fd5b506104ad6130b5565b6040516104ba9190614a5d565b60405180910390f35b3480156104cf57600080fd5b506104ea60048036038101906104e59190614427565b613554565b005b3480156104f857600080fd5b50610513600480360381019061050e91906142ad565b6135d7565b005b61051d613770565b610131600082815260200190815260200160002060080160009054906101000a900460ff16610131600083815260200190815260200160002060080160019054906101000a900460ff1661013160008481526020019081526020016000206007015460001515831515146105c6576040517f08c379a00000000000000000000000000000000000000000000000000000000081526004016105bd90614d19565b60405180910390fd5b600015158215151461060d576040517f08c379a000000000000000000000000000000000000000000000000000000000815260040161060490614d85565b60405180910390fd5b600081111561065a5780421115610659576040517f08c379a000000000000000000000000000000000000000000000000000000000815260040161065090614df1565b60405180910390fd5b5b3373ffffffffffffffffffffffffffffffffffffffff16610131600086815260200190815260200160002060010160009054906101000a900473ffffffffffffffffffffffffffffffffffffffff1673ffffffffffffffffffffffffffffffffffffffff16146106ff576040517f08c379a00000000000000000000000000000000000000000000000000000000081526004016106f690614e83565b60405180910390fd5b6000610131600086815260200190815260200160002060030160009054906101000a900473ffffffffffffffffffffffffffffffffffffffff1690508073ffffffffffffffffffffffffffffffffffffffff166323b872dd303361013160008a8152602001908152602001600020600501546040518463ffffffff1660e01b815260040161078f93929190614ea3565b600060405180830381600087803b1580156107a957600080fd5b505af11580156107bd573d6000803e3d6000fd5b505050506001610131600087815260200190815260200160002060080160016101000a81548160ff021916908315150217905550505050506107fd6137bf565b50565b610808613770565b610130600082815260200190815260200160002060080160009054906101000a900460ff16610130600083815260200190815260200160002060080160019054906101000a900460ff1661013060008481526020019081526020016000206007015460001515831515146108b1576040517f08c379a00000000000000000000000000000000000000000000000000000000081526004016108a890614d19565b60405180910390fd5b60001515821515146108f8576040517f08c379a00000000000000000000000000000000000000000000000000000000081526004016108ef90614d85565b60405180910390fd5b60008111156109455780421115610944576040517f08c379a000000000000000000000000000000000000000000000000000000000815260040161093b90614df1565b60405180910390fd5b5b3373ffffffffffffffffffffffffffffffffffffffff16610130600086815260200190815260200160002060010160009054906101000a900473ffffffffffffffffffffffffffffffffffffffff1673ffffffffffffffffffffffffffffffffffffffff16146109ea576040517f08c379a00000000000000000000000000000000000000000000000000000000081526004016109e190614e83565b60405180910390fd5b6000610130600086815260200190815260200160002060030160009054906101000a900473ffffffffffffffffffffffffffffffffffffffff1690508073ffffffffffffffffffffffffffffffffffffffff1663a9059cbb336101306000898152602001908152602001600020600501546040518363ffffffff1660e01b8152600401610a78929190614eda565b6020604051808303816000875af1158015610a97573d6000803e3d6000fd5b505050506040513d601f19601f82011682018060405250810190610abb9190614f18565b506001610130600087815260200190815260200160002060080160016101000a81548160ff02191690831515021790555050505050610af86137bf565b50565b610b03613770565b61012f54341015610b49576040517f08c379a0000000000000000000000000000000000000000000000000000000008152600401610b4090614fb7565b60405180910390fd5b610b5461012d6137c9565b6000610b6161012d6137df565b90506040518061016001604052808281526020013373ffffffffffffffffffffffffffffffffffffffff168152602001600073ffffffffffffffffffffffffffffffffffffffff1681526020018873ffffffffffffffffffffffffffffffffffffffff1681526020018773ffffffffffffffffffffffffffffffffffffffff16815260200186815260200185815260200184815260200160001515815260200160001515815260200183151581525061013060008381526020019081526020016000206000820151816000015560208201518160010160006101000a81548173ffffffffffffffffffffffffffffffffffffffff021916908373ffffffffffffffffffffffffffffffffffffffff16021790555060408201518160020160006101000a81548173ffffffffffffffffffffffffffffffffffffffff021916908373ffffffffffffffffffffffffffffffffffffffff16021790555060608201518160030160006101000a81548173ffffffffffffffffffffffffffffffffffffffff021916908373ffffffffffffffffffffffffffffffffffffffff16021790555060808201518160040160006101000a81548173ffffffffffffffffffffffffffffffffffffffff021916908373ffffffffffffffffffffffffffffffffffffffff16021790555060a0820151816005015560c0820151816006015560e082015181600701556101008201518160080160006101000a81548160ff0219169083151502179055506101208201518160080160016101000a81548160ff0219169083151502179055506101408201518160080160026101000a81548160ff0219169083151502179055509050508673ffffffffffffffffffffffffffffffffffffffff166323b872dd3330886040518463ffffffff1660e01b8152600401610e0b93929190614ea3565b6020604051808303816000875af1158015610e2a573d6000803e3d6000fd5b505050506040513d601f19601f82011682018060405250810190610e4e9190614f18565b5061012e60009054906101000a900473ffffffffffffffffffffffffffffffffffffffff1673ffffffffffffffffffffffffffffffffffffffff166108fc61012f549081150290604051600060405180830381858888f19350505050158015610ebb573d6000803e3d6000fd5b5050610ec56137bf565b505050505050565b610ed5613770565b610131600082815260200190815260200160002060080160009054906101000a900460ff16610131600083815260200190815260200160002060080160019054906101000a900460ff166101316000848152602001908152602001600020600701546000151583151514610f7e576040517f08c379a0000000000000000000000000000000000000000000000000000000008152600401610f7590614d19565b60405180910390fd5b6000151582151514610fc5576040517f08c379a0000000000000000000000000000000000000000000000000000000008152600401610fbc90614d85565b60405180910390fd5b60008111156110125780421115611011576040517f08c379a000000000000000000000000000000000000000000000000000000000815260040161100890614df1565b60405180910390fd5b5b6000610131600086815260200190815260200160002060040160009054906101000a900473ffffffffffffffffffffffffffffffffffffffff1690508073ffffffffffffffffffffffffffffffffffffffff16636352211e6101316000888152602001908152602001600020600601546040518263ffffffff1660e01b815260040161109e919061440c565b602060405180830381865afa1580156110bb573d6000803e3d6000fd5b505050506040513d601f19601f820116820180604052508101906110df9190614fec565b73ffffffffffffffffffffffffffffffffffffffff163373ffffffffffffffffffffffffffffffffffffffff161461114c576040517f08c379a000000000000000000000000000000000000000000000000000000000815260040161114390615065565b60405180910390fd5b8073ffffffffffffffffffffffffffffffffffffffff166323b872dd33610131600089815260200190815260200160002060010160009054906101000a900473ffffffffffffffffffffffffffffffffffffffff1661013160008a8152602001908152602001600020600601546040518463ffffffff1660e01b81526004016111d7939291906150e4565b600060405180830381600087803b1580156111f157600080fd5b505af1158015611205573d6000803e3d6000fd5b505050506000610131600087815260200190815260200160002060030160009054906101000a900473ffffffffffffffffffffffffffffffffffffffff1690508073ffffffffffffffffffffffffffffffffffffffff166323b872dd303361013160008b8152602001908152602001600020600501546040518463ffffffff1660e01b815260040161129993929190614ea3565b600060405180830381600087803b1580156112b357600080fd5b505af11580156112c7573d6000803e3d6000fd5b5050505033610131600088815260200190815260200160002060020160006101000a81548173ffffffffffffffffffffffffffffffffffffffff021916908373ffffffffffffffffffffffffffffffffffffffff1602179055506001610131600088815260200190815260200160002060080160006101000a81548160ff021916908315150217905550505050505061135e6137bf565b50565b600061012f54905090565b7f000000000000000000000000000000000000000000000000000000000000000073ffffffffffffffffffffffffffffffffffffffff163073ffffffffffffffffffffffffffffffffffffffff16036113fa576040517f08c379a00000000000000000000000000000000000000000000000000000000081526004016113f19061518d565b60405180910390fd5b7f000000000000000000000000000000000000000000000000000000000000000073ffffffffffffffffffffffffffffffffffffffff166114396137ed565b73ffffffffffffffffffffffffffffffffffffffff161461148f576040517f08c379a00000000000000000000000000000000000000000000000000000000081526004016114869061521f565b60405180910390fd5b61149881613844565b6114f181600067ffffffffffffffff8111156114b7576114b661446f565b5b6040519080825280601f01601f1916602001820160405280156114e95781602001600182028036833780820191505090505b50600061384f565b50565b6114fc6139bd565b611504613a3b565b565b7f000000000000000000000000000000000000000000000000000000000000000073ffffffffffffffffffffffffffffffffffffffff163073ffffffffffffffffffffffffffffffffffffffff1603611594576040517f08c379a000000000000000000000000000000000000000000000000000000000815260040161158b9061518d565b60405180910390fd5b7f000000000000000000000000000000000000000000000000000000000000000073ffffffffffffffffffffffffffffffffffffffff166115d36137ed565b73ffffffffffffffffffffffffffffffffffffffff1614611629576040517f08c379a00000000000000000000000000000000000000000000000000000000081526004016116209061521f565b60405180910390fd5b61163282613844565b61163e8282600161384f565b5050565b6060600061165161012d6137df565b90506000808267ffffffffffffffff8111156116705761166f61446f565b5b6040519080825280602002602001820160405280156116a957816020015b6116966140f3565b81526020019060019003908161168e5790505b5090506000600190505b83811161190f57600061013060008381526020019081526020016000209050600115158160080160029054906101000a900460ff161515036118ec578060405180610160016040529081600082015481526020016001820160009054906101000a900473ffffffffffffffffffffffffffffffffffffffff1673ffffffffffffffffffffffffffffffffffffffff1673ffffffffffffffffffffffffffffffffffffffff1681526020016002820160009054906101000a900473ffffffffffffffffffffffffffffffffffffffff1673ffffffffffffffffffffffffffffffffffffffff1673ffffffffffffffffffffffffffffffffffffffff1681526020016003820160009054906101000a900473ffffffffffffffffffffffffffffffffffffffff1673ffffffffffffffffffffffffffffffffffffffff1673ffffffffffffffffffffffffffffffffffffffff1681526020016004820160009054906101000a900473ffffffffffffffffffffffffffffffffffffffff1673ffffffffffffffffffffffffffffffffffffffff1673ffffffffffffffffffffffffffffffffffffffff1681526020016005820154815260200160068201548152602001600782015481526020016008820160009054906101000a900460ff161515151581526020016008820160019054906101000a900460ff161515151581526020016008820160029054906101000a900460ff1615151515815250508385815181106118e0576118df61523f565b5b60200260200101819052505b6001846118f9919061529d565b9350508080611907906152d1565b9150506116b3565b5080935050505090565b60007f000000000000000000000000000000000000000000000000000000000000000073ffffffffffffffffffffffffffffffffffffffff163073ffffffffffffffffffffffffffffffffffffffff16146119a9576040517f08c379a00000000000000000000000000000000000000000000000000000000081526004016119a09061538b565b60405180910390fd5b7f360894a13ba1a3210667c828492db98dca3e2076cc3735a920a3ca505d382bbc60001b905090565b60606040518060400160405280600581526020017f322e322e31000000000000000000000000000000000000000000000000000000815250905090565b611a17613770565b61012f54341015611a5d576040517f08c379a0000000000000000000000000000000000000000000000000000000008152600401611a5490614fb7565b60405180910390fd5b611a686101326137c9565b6000611a756101326137df565b90506040518061016001604052808281526020013373ffffffffffffffffffffffffffffffffffffffff168152602001600073ffffffffffffffffffffffffffffffffffffffff1681526020018873ffffffffffffffffffffffffffffffffffffffff1681526020018773ffffffffffffffffffffffffffffffffffffffff16815260200186815260200185815260200184815260200160001515815260200160001515815260200183151581525061013160008381526020019081526020016000206000820151816000015560208201518160010160006101000a81548173ffffffffffffffffffffffffffffffffffffffff021916908373ffffffffffffffffffffffffffffffffffffffff16021790555060408201518160020160006101000a81548173ffffffffffffffffffffffffffffffffffffffff021916908373ffffffffffffffffffffffffffffffffffffffff16021790555060608201518160030160006101000a81548173ffffffffffffffffffffffffffffffffffffffff021916908373ffffffffffffffffffffffffffffffffffffffff16021790555060808201518160040160006101000a81548173ffffffffffffffffffffffffffffffffffffffff021916908373ffffffffffffffffffffffffffffffffffffffff16021790555060a0820151816005015560c0820151816006015560e082015181600701556101008201518160080160006101000a81548160ff0219169083151502179055506101208201518160080160016101000a81548160ff0219169083151502179055506101408201518160080160026101000a81548160ff0219169083151502179055509050508673ffffffffffffffffffffffffffffffffffffffff166323b872dd3330886040518463ffffffff1660e01b8152600401611d1f93929190614ea3565b600060405180830381600087803b158015611d3957600080fd5b505af1158015611d4d573d6000803e3d6000fd5b5050505061012e60009054906101000a900473ffffffffffffffffffffffffffffffffffffffff1673ffffffffffffffffffffffffffffffffffffffff166108fc61012f549081150290604051600060405180830381858888f19350505050158015611dbd573d6000803e3d6000fd5b5050611dc76137bf565b505050505050565b60606000611dde6101326137df565b90506000808267ffffffffffffffff811115611dfd57611dfc61446f565b5b604051908082528060200260200182016040528015611e3657816020015b611e236141ab565b815260200190600190039081611e1b5790505b5090506000600190505b83811161209c57600061013160008381526020019081526020016000209050600115158160080160029054906101000a900460ff16151503612079578060405180610160016040529081600082015481526020016001820160009054906101000a900473ffffffffffffffffffffffffffffffffffffffff1673ffffffffffffffffffffffffffffffffffffffff1673ffffffffffffffffffffffffffffffffffffffff1681526020016002820160009054906101000a900473ffffffffffffffffffffffffffffffffffffffff1673ffffffffffffffffffffffffffffffffffffffff1673ffffffffffffffffffffffffffffffffffffffff1681526020016003820160009054906101000a900473ffffffffffffffffffffffffffffffffffffffff1673ffffffffffffffffffffffffffffffffffffffff1673ffffffffffffffffffffffffffffffffffffffff1681526020016004820160009054906101000a900473ffffffffffffffffffffffffffffffffffffffff1673ffffffffffffffffffffffffffffffffffffffff1673ffffffffffffffffffffffffffffffffffffffff1681526020016005820154815260200160068201548152602001600782015481526020016008820160009054906101000a900460ff161515151581526020016008820160019054906101000a900460ff161515151581526020016008820160029054906101000a900460ff16151515158152505083858151811061206d5761206c61523f565b5b60200260200101819052505b600184612086919061529d565b9350508080612094906152d1565b915050611e40565b5080935050505090565b6000603360009054906101000a900460ff16905090565b6120c56140f3565b6000600167ffffffffffffffff8111156120e2576120e161446f565b5b60405190808252806020026020018201604052801561211b57816020015b6121086140f3565b8152602001906001900390816121005790505b509050600061212b61012d6137df565b90506000600190505b81811161237d57846101306000838152602001908152602001600020600001540361236a57610130600082815260200190815260200160002060405180610160016040529081600082015481526020016001820160009054906101000a900473ffffffffffffffffffffffffffffffffffffffff1673ffffffffffffffffffffffffffffffffffffffff1673ffffffffffffffffffffffffffffffffffffffff1681526020016002820160009054906101000a900473ffffffffffffffffffffffffffffffffffffffff1673ffffffffffffffffffffffffffffffffffffffff1673ffffffffffffffffffffffffffffffffffffffff1681526020016003820160009054906101000a900473ffffffffffffffffffffffffffffffffffffffff1673ffffffffffffffffffffffffffffffffffffffff1673ffffffffffffffffffffffffffffffffffffffff1681526020016004820160009054906101000a900473ffffffffffffffffffffffffffffffffffffffff1673ffffffffffffffffffffffffffffffffffffffff1673ffffffffffffffffffffffffffffffffffffffff1681526020016005820154815260200160068201548152602001600782015481526020016008820160009054906101000a900460ff161515151581526020016008820160019054906101000a900460ff161515151581526020016008820160029054906101000a900460ff1615151515815250508360008151811061235e5761235d61523f565b5b60200260200101819052505b8080612375906152d1565b915050612134565b50816000815181106123925761239161523f565b5b602002602001015192505050919050565b6123ab6139bd565b6123b56000613a9e565b565b6123bf6139bd565b6123c7613b64565b565b606060006123d861012d6137df565b90506000806000600190505b8381116124e6573373ffffffffffffffffffffffffffffffffffffffff16610130600083815260200190815260200160002060010160009054906101000a900473ffffffffffffffffffffffffffffffffffffffff1673ffffffffffffffffffffffffffffffffffffffff1614806124be57503373ffffffffffffffffffffffffffffffffffffffff16610130600083815260200190815260200160002060020160009054906101000a900473ffffffffffffffffffffffffffffffffffffffff1673ffffffffffffffffffffffffffffffffffffffff16145b156124d3576001836124d0919061529d565b92505b80806124de906152d1565b9150506123e4565b5060008267ffffffffffffffff8111156125035761250261446f565b5b60405190808252806020026020018201604052801561253c57816020015b6125296140f3565b8152602001906001900390816125215790505b5090506000600190505b84811161285d573373ffffffffffffffffffffffffffffffffffffffff16610130600083815260200190815260200160002060010160009054906101000a900473ffffffffffffffffffffffffffffffffffffffff1673ffffffffffffffffffffffffffffffffffffffff16148061262057503373ffffffffffffffffffffffffffffffffffffffff16610130600083815260200190815260200160002060020160009054906101000a900473ffffffffffffffffffffffffffffffffffffffff1673ffffffffffffffffffffffffffffffffffffffff16145b1561284a576000610130600083815260200190815260200160002090508060405180610160016040529081600082015481526020016001820160009054906101000a900473ffffffffffffffffffffffffffffffffffffffff1673ffffffffffffffffffffffffffffffffffffffff1673ffffffffffffffffffffffffffffffffffffffff1681526020016002820160009054906101000a900473ffffffffffffffffffffffffffffffffffffffff1673ffffffffffffffffffffffffffffffffffffffff1673ffffffffffffffffffffffffffffffffffffffff1681526020016003820160009054906101000a900473ffffffffffffffffffffffffffffffffffffffff1673ffffffffffffffffffffffffffffffffffffffff1673ffffffffffffffffffffffffffffffffffffffff1681526020016004820160009054906101000a900473ffffffffffffffffffffffffffffffffffffffff1673ffffffffffffffffffffffffffffffffffffffff1673ffffffffffffffffffffffffffffffffffffffff1681526020016005820154815260200160068201548152602001600782015481526020016008820160009054906101000a900460ff161515151581526020016008820160019054906101000a900460ff161515151581526020016008820160029054906101000a900460ff16151515158152505083858151811061282e5761282d61523f565b5b6020026020010181905250600184612846919061529d565b9350505b8080612855906152d1565b915050612546565b508094505050505090565b6000606560009054906101000a900473ffffffffffffffffffffffffffffffffffffffff16905090565b61289a6141ab565b6000600167ffffffffffffffff8111156128b7576128b661446f565b5b6040519080825280602002602001820160405280156128f057816020015b6128dd6141ab565b8152602001906001900390816128d55790505b50905060006129006101326137df565b90506000600190505b818111612b52578461013160008381526020019081526020016000206000015403612b3f57610131600082815260200190815260200160002060405180610160016040529081600082015481526020016001820160009054906101000a900473ffffffffffffffffffffffffffffffffffffffff1673ffffffffffffffffffffffffffffffffffffffff1673ffffffffffffffffffffffffffffffffffffffff1681526020016002820160009054906101000a900473ffffffffffffffffffffffffffffffffffffffff1673ffffffffffffffffffffffffffffffffffffffff1673ffffffffffffffffffffffffffffffffffffffff1681526020016003820160009054906101000a900473ffffffffffffffffffffffffffffffffffffffff1673ffffffffffffffffffffffffffffffffffffffff1673ffffffffffffffffffffffffffffffffffffffff1681526020016004820160009054906101000a900473ffffffffffffffffffffffffffffffffffffffff1673ffffffffffffffffffffffffffffffffffffffff1673ffffffffffffffffffffffffffffffffffffffff1681526020016005820154815260200160068201548152602001600782015481526020016008820160009054906101000a900460ff161515151581526020016008820160019054906101000a900460ff161515151581526020016008820160029054906101000a900460ff16151515158152505083600081518110612b3357612b3261523f565b5b60200260200101819052505b8080612b4a906152d1565b915050612909565b5081600081518110612b6757612b6661523f565b5b602002602001015192505050919050565b612b80613770565b610130600082815260200190815260200160002060080160009054906101000a900460ff16610130600083815260200190815260200160002060080160019054906101000a900460ff166101306000848152602001908152602001600020600701546000151583151514612c29576040517f08c379a0000000000000000000000000000000000000000000000000000000008152600401612c2090614d19565b60405180910390fd5b6000151582151514612c70576040517f08c379a0000000000000000000000000000000000000000000000000000000008152600401612c6790614d85565b60405180910390fd5b6000811115612cbd5780421115612cbc576040517f08c379a0000000000000000000000000000000000000000000000000000000008152600401612cb390614df1565b60405180910390fd5b5b6000610130600086815260200190815260200160002060040160009054906101000a900473ffffffffffffffffffffffffffffffffffffffff16905060008173ffffffffffffffffffffffffffffffffffffffff166370a08231336040518263ffffffff1660e01b8152600401612d349190614bb5565b602060405180830381865afa158015612d51573d6000803e3d6000fd5b505050506040513d601f19601f82011682018060405250810190612d7591906153c0565b9050610130600087815260200190815260200160002060060154811015612dd1576040517f08c379a0000000000000000000000000000000000000000000000000000000008152600401612dc89061545f565b60405180910390fd5b8173ffffffffffffffffffffffffffffffffffffffff166323b872dd3361013060008a815260200190815260200160002060010160009054906101000a900473ffffffffffffffffffffffffffffffffffffffff1661013060008b8152602001908152602001600020600601546040518463ffffffff1660e01b8152600401612e5c939291906150e4565b6020604051808303816000875af1158015612e7b573d6000803e3d6000fd5b505050506040513d601f19601f82011682018060405250810190612e9f9190614f18565b506000610130600088815260200190815260200160002060030160009054906101000a900473ffffffffffffffffffffffffffffffffffffffff1690508073ffffffffffffffffffffffffffffffffffffffff1663a9059cbb3361013060008b8152602001908152602001600020600501546040518363ffffffff1660e01b8152600401612f2e929190614eda565b6020604051808303816000875af1158015612f4d573d6000803e3d6000fd5b505050506040513d601f19601f82011682018060405250810190612f719190614f18565b5033610130600089815260200190815260200160002060020160006101000a81548173ffffffffffffffffffffffffffffffffffffffff021916908373ffffffffffffffffffffffffffffffffffffffff1602179055506001610130600089815260200190815260200160002060080160006101000a81548160ff0219169083151502179055505050505050506130066137bf565b50565b613011613770565b61012e60009054906101000a900473ffffffffffffffffffffffffffffffffffffffff1673ffffffffffffffffffffffffffffffffffffffff163373ffffffffffffffffffffffffffffffffffffffff16146130a2576040517f08c379a0000000000000000000000000000000000000000000000000000000008152600401613099906154f1565b60405180910390fd5b8061012f819055506130b26137bf565b50565b606060006130c46101326137df565b90506000806000600190505b8381116131d2573373ffffffffffffffffffffffffffffffffffffffff16610131600083815260200190815260200160002060010160009054906101000a900473ffffffffffffffffffffffffffffffffffffffff1673ffffffffffffffffffffffffffffffffffffffff1614806131aa57503373ffffffffffffffffffffffffffffffffffffffff16610131600083815260200190815260200160002060020160009054906101000a900473ffffffffffffffffffffffffffffffffffffffff1673ffffffffffffffffffffffffffffffffffffffff16145b156131bf576001836131bc919061529d565b92505b80806131ca906152d1565b9150506130d0565b5060008267ffffffffffffffff8111156131ef576131ee61446f565b5b60405190808252806020026020018201604052801561322857816020015b6132156141ab565b81526020019060019003908161320d5790505b5090506000600190505b848111613549573373ffffffffffffffffffffffffffffffffffffffff16610131600083815260200190815260200160002060010160009054906101000a900473ffffffffffffffffffffffffffffffffffffffff1673ffffffffffffffffffffffffffffffffffffffff16148061330c57503373ffffffffffffffffffffffffffffffffffffffff16610131600083815260200190815260200160002060020160009054906101000a900473ffffffffffffffffffffffffffffffffffffffff1673ffffffffffffffffffffffffffffffffffffffff16145b15613536576000610131600083815260200190815260200160002090508060405180610160016040529081600082015481526020016001820160009054906101000a900473ffffffffffffffffffffffffffffffffffffffff1673ffffffffffffffffffffffffffffffffffffffff1673ffffffffffffffffffffffffffffffffffffffff1681526020016002820160009054906101000a900473ffffffffffffffffffffffffffffffffffffffff1673ffffffffffffffffffffffffffffffffffffffff1673ffffffffffffffffffffffffffffffffffffffff1681526020016003820160009054906101000a900473ffffffffffffffffffffffffffffffffffffffff1673ffffffffffffffffffffffffffffffffffffffff1673ffffffffffffffffffffffffffffffffffffffff1681526020016004820160009054906101000a900473ffffffffffffffffffffffffffffffffffffffff1673ffffffffffffffffffffffffffffffffffffffff1673ffffffffffffffffffffffffffffffffffffffff1681526020016005820154815260200160068201548152602001600782015481526020016008820160009054906101000a900460ff161515151581526020016008820160019054906101000a900460ff161515151581526020016008820160029054906101000a900460ff16151515158152505083858151811061351a5761351961523f565b5b6020026020010181905250600184613532919061529d565b9350505b8080613541906152d1565b915050613232565b508094505050505090565b61355c6139bd565b600073ffffffffffffffffffffffffffffffffffffffff168173ffffffffffffffffffffffffffffffffffffffff16036135cb576040517f08c379a00000000000000000000000000000000000000000000000000000000081526004016135c290615583565b60405180910390fd5b6135d481613a9e565b50565b60008060019054906101000a900460ff161590508080156136085750600160008054906101000a900460ff1660ff16105b80613635575061361730613bc7565b1580156136345750600160008054906101000a900460ff1660ff16145b5b613674576040517f08c379a000000000000000000000000000000000000000000000000000000000815260040161366b90615615565b60405180910390fd5b60016000806101000a81548160ff021916908360ff16021790555080156136b1576001600060016101000a81548160ff0219169083151502179055505b8161012f819055506136c1613bea565b6136c9613c43565b6136d1613c9c565b3361012e60006101000a81548173ffffffffffffffffffffffffffffffffffffffff021916908373ffffffffffffffffffffffffffffffffffffffff160217905550801561376c5760008060016101000a81548160ff0219169083151502179055507f7f26b83ff96e1f2b6a682f133852f6798a09c465da95921460cefb38474024986001604051613763919061567d565b60405180910390a15b5050565b600260fb54036137b5576040517f08c379a00000000000000000000000000000000000000000000000000000000081526004016137ac906156e4565b60405180910390fd5b600260fb81905550565b600160fb81905550565b6001816000016000828254019250508190555050565b600081600001549050919050565b600061381b7f360894a13ba1a3210667c828492db98dca3e2076cc3735a920a3ca505d382bbc60001b613ced565b60000160009054906101000a900473ffffffffffffffffffffffffffffffffffffffff16905090565b61384c6139bd565b50565b61387b7f4910fdfa16fed3260ed0e7147f7cc6da11a60208b5b9406d12a635614ffd914360001b613cf7565b60000160009054906101000a900460ff161561389f5761389a83613d01565b6139b8565b8273ffffffffffffffffffffffffffffffffffffffff166352d1902d6040518163ffffffff1660e01b8152600401602060405180830381865afa92505050801561390757506040513d601f19601f820116820180604052508101906139049190615730565b60015b613946576040517f08c379a000000000000000000000000000000000000000000000000000000000815260040161393d906157cf565b60405180910390fd5b7f360894a13ba1a3210667c828492db98dca3e2076cc3735a920a3ca505d382bbc60001b81146139ab576040517f08c379a00000000000000000000000000000000000000000000000000000000081526004016139a290615861565b60405180910390fd5b506139b7838383613dba565b5b505050565b6139c5613de6565b73ffffffffffffffffffffffffffffffffffffffff166139e3612868565b73ffffffffffffffffffffffffffffffffffffffff1614613a39576040517f08c379a0000000000000000000000000000000000000000000000000000000008152600401613a30906158cd565b60405180910390fd5b565b613a43613dee565b6000603360006101000a81548160ff0219169083151502179055507f5db9ee0a495bf2e6ff9c91a7834c1ba4fdd244a5e8aa4e537bd38aeae4b073aa613a87613de6565b604051613a949190614bb5565b60405180910390a1565b6000606560009054906101000a900473ffffffffffffffffffffffffffffffffffffffff16905081606560006101000a81548173ffffffffffffffffffffffffffffffffffffffff021916908373ffffffffffffffffffffffffffffffffffffffff1602179055508173ffffffffffffffffffffffffffffffffffffffff168173ffffffffffffffffffffffffffffffffffffffff167f8be0079c531659141344cd1fd0a4f28419497f9722a3daafe3b4186f6b6457e060405160405180910390a35050565b613b6c613e37565b6001603360006101000a81548160ff0219169083151502179055507f62e78cea01bee320cd4e420270b5ea74000d11b0c9f74754ebdbfc544b05a258613bb0613de6565b604051613bbd9190614bb5565b60405180910390a1565b6000808273ffffffffffffffffffffffffffffffffffffffff163b119050919050565b600060019054906101000a900460ff16613c39576040517f08c379a0000000000000000000000000000000000000000000000000000000008152600401613c309061595f565b60405180910390fd5b613c41613e81565b565b600060019054906101000a900460ff16613c92576040517f08c379a0000000000000000000000000000000000000000000000000000000008152600401613c899061595f565b60405180910390fd5b613c9a613eed565b565b600060019054906101000a900460ff16613ceb576040517f08c379a0000000000000000000000000000000000000000000000000000000008152600401613ce29061595f565b60405180910390fd5b565b6000819050919050565b6000819050919050565b613d0a81613bc7565b613d49576040517f08c379a0000000000000000000000000000000000000000000000000000000008152600401613d40906159f1565b60405180910390fd5b80613d767f360894a13ba1a3210667c828492db98dca3e2076cc3735a920a3ca505d382bbc60001b613ced565b60000160006101000a81548173ffffffffffffffffffffffffffffffffffffffff021916908373ffffffffffffffffffffffffffffffffffffffff16021790555050565b613dc383613f4e565b600082511180613dd05750805b15613de157613ddf8383613f9d565b505b505050565b600033905090565b613df66120a6565b613e35576040517f08c379a0000000000000000000000000000000000000000000000000000000008152600401613e2c90615a5d565b60405180910390fd5b565b613e3f6120a6565b15613e7f576040517f08c379a0000000000000000000000000000000000000000000000000000000008152600401613e7690615ac9565b60405180910390fd5b565b600060019054906101000a900460ff16613ed0576040517f08c379a0000000000000000000000000000000000000000000000000000000008152600401613ec79061595f565b60405180910390fd5b6000603360006101000a81548160ff021916908315150217905550565b600060019054906101000a900460ff16613f3c576040517f08c379a0000000000000000000000000000000000000000000000000000000008152600401613f339061595f565b60405180910390fd5b613f4c613f47613de6565b613a9e565b565b613f5781613d01565b8073ffffffffffffffffffffffffffffffffffffffff167fbc7cd75a20ee27fd9adebab32041f755214dbc6bffa90cc0225b39da2e5c2d3b60405160405180910390a250565b6060613fa883613bc7565b613fe7576040517f08c379a0000000000000000000000000000000000000000000000000000000008152600401613fde90615b5b565b60405180910390fd5b6000808473ffffffffffffffffffffffffffffffffffffffff168460405161400f9190615bc2565b600060405180830381855af49150503d806000811461404a576040519150601f19603f3d011682016040523d82523d6000602084013e61404f565b606091505b50915091506140778282604051806060016040528060278152602001615bda60279139614081565b9250505092915050565b606083156140915782905061409c565b61409b83836140a3565b5b9392505050565b6000825111156140b65781518083602001fd5b806040517f08c379a00000000000000000000000000000000000000000000000000000000081526004016140ea91906148aa565b60405180910390fd5b60405180610160016040528060008152602001600073ffffffffffffffffffffffffffffffffffffffff168152602001600073ffffffffffffffffffffffffffffffffffffffff168152602001600073ffffffffffffffffffffffffffffffffffffffff168152602001600073ffffffffffffffffffffffffffffffffffffffff1681526020016000815260200160008152602001600081526020016000151581526020016000151581526020016000151581525090565b60405180610160016040528060008152602001600073ffffffffffffffffffffffffffffffffffffffff168152602001600073ffffffffffffffffffffffffffffffffffffffff168152602001600073ffffffffffffffffffffffffffffffffffffffff168152602001600073ffffffffffffffffffffffffffffffffffffffff1681526020016000815260200160008152602001600081526020016000151581526020016000151581526020016000151581525090565b6000604051905090565b600080fd5b600080fd5b6000819050919050565b61428a81614277565b811461429557600080fd5b50565b6000813590506142a781614281565b92915050565b6000602082840312156142c3576142c261426d565b5b60006142d184828501614298565b91505092915050565b600073ffffffffffffffffffffffffffffffffffffffff82169050919050565b6000614305826142da565b9050919050565b614315816142fa565b811461432057600080fd5b50565b6000813590506143328161430c565b92915050565b60008115159050919050565b61434d81614338565b811461435857600080fd5b50565b60008135905061436a81614344565b92915050565b60008060008060008060c0878903121561438d5761438c61426d565b5b600061439b89828a01614323565b96505060206143ac89828a01614323565b95505060406143bd89828a01614298565b94505060606143ce89828a01614298565b93505060806143df89828a01614298565b92505060a06143f089828a0161435b565b9150509295509295509295565b61440681614277565b82525050565b600060208201905061442160008301846143fd565b92915050565b60006020828403121561443d5761443c61426d565b5b600061444b84828501614323565b91505092915050565b600080fd5b600080fd5b6000601f19601f8301169050919050565b7f4e487b7100000000000000000000000000000000000000000000000000000000600052604160045260246000fd5b6144a78261445e565b810181811067ffffffffffffffff821117156144c6576144c561446f565b5b80604052505050565b60006144d9614263565b90506144e5828261449e565b919050565b600067ffffffffffffffff8211156145055761450461446f565b5b61450e8261445e565b9050602081019050919050565b82818337600083830152505050565b600061453d614538846144ea565b6144cf565b90508281526020810184848401111561455957614558614459565b5b61456484828561451b565b509392505050565b600082601f83011261458157614580614454565b5b813561459184826020860161452a565b91505092915050565b600080604083850312156145b1576145b061426d565b5b60006145bf85828601614323565b925050602083013567ffffffffffffffff8111156145e0576145df614272565b5b6145ec8582860161456c565b9150509250929050565b600081519050919050565b600082825260208201905092915050565b6000819050602082019050919050565b61462b81614277565b82525050565b600061463c826142da565b9050919050565b61464c81614631565b82525050565b61465b816142fa565b82525050565b61466a81614338565b82525050565b610160820160008201516146876000850182614622565b50602082015161469a6020850182614643565b5060408201516146ad6040850182614643565b5060608201516146c06060850182614652565b5060808201516146d36080850182614652565b5060a08201516146e660a0850182614622565b5060c08201516146f960c0850182614622565b5060e082015161470c60e0850182614622565b50610100820151614721610100850182614661565b50610120820151614736610120850182614661565b5061014082015161474b610140850182614661565b50505050565b600061475d8383614670565b6101608301905092915050565b6000602082019050919050565b6000614782826145f6565b61478c8185614601565b935061479783614612565b8060005b838110156147c85781516147af8882614751565b97506147ba8361476a565b92505060018101905061479b565b5085935050505092915050565b600060208201905081810360008301526147ef8184614777565b905092915050565b6000819050919050565b61480a816147f7565b82525050565b60006020820190506148256000830184614801565b92915050565b600081519050919050565b600082825260208201905092915050565b60005b8381101561486557808201518184015260208101905061484a565b60008484015250505050565b600061487c8261482b565b6148868185614836565b9350614896818560208601614847565b61489f8161445e565b840191505092915050565b600060208201905081810360008301526148c48184614871565b905092915050565b600081519050919050565b600082825260208201905092915050565b6000819050602082019050919050565b6101608201600082015161490f6000850182614622565b5060208201516149226020850182614643565b5060408201516149356040850182614643565b5060608201516149486060850182614652565b50608082015161495b6080850182614652565b5060a082015161496e60a0850182614622565b5060c082015161498160c0850182614622565b5060e082015161499460e0850182614622565b506101008201516149a9610100850182614661565b506101208201516149be610120850182614661565b506101408201516149d3610140850182614661565b50505050565b60006149e583836148f8565b6101608301905092915050565b6000602082019050919050565b6000614a0a826148cc565b614a1481856148d7565b9350614a1f836148e8565b8060005b83811015614a50578151614a3788826149d9565b9750614a42836149f2565b925050600181019050614a23565b5085935050505092915050565b60006020820190508181036000830152614a7781846149ff565b905092915050565b614a8881614338565b82525050565b6000602082019050614aa36000830184614a7f565b92915050565b61016082016000820151614ac06000850182614622565b506020820151614ad36020850182614643565b506040820151614ae66040850182614643565b506060820151614af96060850182614652565b506080820151614b0c6080850182614652565b5060a0820151614b1f60a0850182614622565b5060c0820151614b3260c0850182614622565b5060e0820151614b4560e0850182614622565b50610100820151614b5a610100850182614661565b50610120820151614b6f610120850182614661565b50610140820151614b84610140850182614661565b50505050565b600061016082019050614ba06000830184614aa9565b92915050565b614baf816142fa565b82525050565b6000602082019050614bca6000830184614ba6565b92915050565b61016082016000820151614be76000850182614622565b506020820151614bfa6020850182614643565b506040820151614c0d6040850182614643565b506060820151614c206060850182614652565b506080820151614c336080850182614652565b5060a0820151614c4660a0850182614622565b5060c0820151614c5960c0850182614622565b5060e0820151614c6c60e0850182614622565b50610100820151614c81610100850182614661565b50610120820151614c96610120850182614661565b50610140820151614cab610140850182614661565b50505050565b600061016082019050614cc76000830184614bd0565b92915050565b7f5468697320747261646520697320616c726561647920736f6c64210000000000600082015250565b6000614d03601b83614836565b9150614d0e82614ccd565b602082019050919050565b60006020820190508181036000830152614d3281614cf6565b9050919050565b7f546869732074726164652069732063616e63656c6c6564210000000000000000600082015250565b6000614d6f601883614836565b9150614d7a82614d39565b602082019050919050565b60006020820190508181036000830152614d9e81614d62565b9050919050565b7f54686520747261646520697320696e76616c6964210000000000000000000000600082015250565b6000614ddb601583614836565b9150614de682614da5565b602082019050919050565b60006020820190508181036000830152614e0a81614dce565b9050919050565b7f596f7520617265206e6f74207468652063726561746f72206f6620746869732060008201527f7472616465210000000000000000000000000000000000000000000000000000602082015250565b6000614e6d602683614836565b9150614e7882614e11565b604082019050919050565b60006020820190508181036000830152614e9c81614e60565b9050919050565b6000606082019050614eb86000830186614ba6565b614ec56020830185614ba6565b614ed260408301846143fd565b949350505050565b6000604082019050614eef6000830185614ba6565b614efc60208301846143fd565b9392505050565b600081519050614f1281614344565b92915050565b600060208284031215614f2e57614f2d61426d565b5b6000614f3c84828501614f03565b91505092915050565b7f596f7520646f6e2774206861766520656e6f75676820616d6f756e74206f662060008201527f6e617469766520746f6b656e7320746f20706179207468652066656573000000602082015250565b6000614fa1603d83614836565b9150614fac82614f45565b604082019050919050565b60006020820190508181036000830152614fd081614f94565b9050919050565b600081519050614fe68161430c565b92915050565b6000602082840312156150025761500161426d565b5b600061501084828501614fd7565b91505092915050565b7f596f7520617265206e6f7420746865206f776e6572206f6620746865206e6674600082015250565b600061504f602083614836565b915061505a82615019565b602082019050919050565b6000602082019050818103600083015261507e81615042565b9050919050565b6000819050919050565b60006150aa6150a56150a0846142da565b615085565b6142da565b9050919050565b60006150bc8261508f565b9050919050565b60006150ce826150b1565b9050919050565b6150de816150c3565b82525050565b60006060820190506150f96000830186614ba6565b61510660208301856150d5565b61511360408301846143fd565b949350505050565b7f46756e6374696f6e206d7573742062652063616c6c6564207468726f7567682060008201527f64656c656761746563616c6c0000000000000000000000000000000000000000602082015250565b6000615177602c83614836565b91506151828261511b565b604082019050919050565b600060208201905081810360008301526151a68161516a565b9050919050565b7f46756e6374696f6e206d7573742062652063616c6c6564207468726f7567682060008201527f6163746976652070726f78790000000000000000000000000000000000000000602082015250565b6000615209602c83614836565b9150615214826151ad565b604082019050919050565b60006020820190508181036000830152615238816151fc565b9050919050565b7f4e487b7100000000000000000000000000000000000000000000000000000000600052603260045260246000fd5b7f4e487b7100000000000000000000000000000000000000000000000000000000600052601160045260246000fd5b60006152a882614277565b91506152b383614277565b92508282019050808211156152cb576152ca61526e565b5b92915050565b60006152dc82614277565b91507fffffffffffffffffffffffffffffffffffffffffffffffffffffffffffffffff820361530e5761530d61526e565b5b600182019050919050565b7f555550535570677261646561626c653a206d757374206e6f742062652063616c60008201527f6c6564207468726f7567682064656c656761746563616c6c0000000000000000602082015250565b6000615375603883614836565b915061538082615319565b604082019050919050565b600060208201905081810360008301526153a481615368565b9050919050565b6000815190506153ba81614281565b92915050565b6000602082840312156153d6576153d561426d565b5b60006153e4848285016153ab565b91505092915050565b7f596f7520646f6e277420686176652074686520656e6f7567682066756e64732060008201527f746f2065786368616e6765210000000000000000000000000000000000000000602082015250565b6000615449602c83614836565b9150615454826153ed565b604082019050919050565b600060208201905081810360008301526154788161543c565b9050919050565b7f4f6e6c79206f776e657220697320616c6c6f77656420746f20646f207468697360008201527f20616374696f6e00000000000000000000000000000000000000000000000000602082015250565b60006154db602783614836565b91506154e68261547f565b604082019050919050565b6000602082019050818103600083015261550a816154ce565b9050919050565b7f4f776e61626c653a206e6577206f776e657220697320746865207a65726f206160008201527f6464726573730000000000000000000000000000000000000000000000000000602082015250565b600061556d602683614836565b915061557882615511565b604082019050919050565b6000602082019050818103600083015261559c81615560565b9050919050565b7f496e697469616c697a61626c653a20636f6e747261637420697320616c72656160008201527f647920696e697469616c697a6564000000000000000000000000000000000000602082015250565b60006155ff602e83614836565b915061560a826155a3565b604082019050919050565b6000602082019050818103600083015261562e816155f2565b9050919050565b6000819050919050565b600060ff82169050919050565b600061566761566261565d84615635565b615085565b61563f565b9050919050565b6156778161564c565b82525050565b6000602082019050615692600083018461566e565b92915050565b7f5265656e7472616e637947756172643a207265656e7472616e742063616c6c00600082015250565b60006156ce601f83614836565b91506156d982615698565b602082019050919050565b600060208201905081810360008301526156fd816156c1565b9050919050565b61570d816147f7565b811461571857600080fd5b50565b60008151905061572a81615704565b92915050565b6000602082840312156157465761574561426d565b5b60006157548482850161571b565b91505092915050565b7f45524331393637557067726164653a206e657720696d706c656d656e7461746960008201527f6f6e206973206e6f742055555053000000000000000000000000000000000000602082015250565b60006157b9602e83614836565b91506157c48261575d565b604082019050919050565b600060208201905081810360008301526157e8816157ac565b9050919050565b7f45524331393637557067726164653a20756e737570706f727465642070726f7860008201527f6961626c65555549440000000000000000000000000000000000000000000000602082015250565b600061584b602983614836565b9150615856826157ef565b604082019050919050565b6000602082019050818103600083015261587a8161583e565b9050919050565b7f4f776e61626c653a2063616c6c6572206973206e6f7420746865206f776e6572600082015250565b60006158b7602083614836565b91506158c282615881565b602082019050919050565b600060208201905081810360008301526158e6816158aa565b9050919050565b7f496e697469616c697a61626c653a20636f6e7472616374206973206e6f74206960008201527f6e697469616c697a696e67000000000000000000000000000000000000000000602082015250565b6000615949602b83614836565b9150615954826158ed565b604082019050919050565b600060208201905081810360008301526159788161593c565b9050919050565b7f455243313936373a206e657720696d706c656d656e746174696f6e206973206e60008201527f6f74206120636f6e747261637400000000000000000000000000000000000000602082015250565b60006159db602d83614836565b91506159e68261597f565b604082019050919050565b60006020820190508181036000830152615a0a816159ce565b9050919050565b7f5061757361626c653a206e6f7420706175736564000000000000000000000000600082015250565b6000615a47601483614836565b9150615a5282615a11565b602082019050919050565b60006020820190508181036000830152615a7681615a3a565b9050919050565b7f5061757361626c653a2070617573656400000000000000000000000000000000600082015250565b6000615ab3601083614836565b9150615abe82615a7d565b602082019050919050565b60006020820190508181036000830152615ae281615aa6565b9050919050565b7f416464726573733a2064656c65676174652063616c6c20746f206e6f6e2d636f60008201527f6e74726163740000000000000000000000000000000000000000000000000000602082015250565b6000615b45602683614836565b9150615b5082615ae9565b604082019050919050565b60006020820190508181036000830152615b7481615b38565b9050919050565b600081519050919050565b600081905092915050565b6000615b9c82615b7b565b615ba68185615b86565b9350615bb6818560208601614847565b80840191505092915050565b6000615bce8284615b91565b91508190509291505056fe416464726573733a206c6f772d6c6576656c2064656c65676174652063616c6c206661696c6564a2646970667358221220b942641ae1d367c581dd30a7aeb7d77429554028238210bfd7b02d0fd331f5a064736f6c63430008110033",
  "linkReferences": {},
  "deployedLinkReferences": {}
}