{
  "_format": "hh-sol-artifact-1",
  "contractName": "MikosavaOTC_V225",
  "sourceName": "contracts/MikosavaOTC_V225.sol",
  "abi": [
    {
      "inputs": [],
      "stateMutability": "nonpayable",
      "type": "constructor"
    },
    {
      "anonymous": false,
      "inputs": [
        {
          "indexed": false,
          "internalType": "address",
          "name": "previousAdmin",
          "type": "address"
        },
        {
          "indexed": false,
          "internalType": "address",
          "name": "newAdmin",
          "type": "address"
        }
      ],
      "name": "AdminChanged",
      "type": "event"
    },
    {
      "anonymous": false,
      "inputs": [
        {
          "indexed": true,
          "internalType": "address",
          "name": "beacon",
          "type": "address"
        }
      ],
      "name": "BeaconUpgraded",
      "type": "event"
    },
    {
      "anonymous": false,
      "inputs": [
        {
          "indexed": false,
          "internalType": "uint8",
          "name": "version",
          "type": "uint8"
        }
      ],
      "name": "Initialized",
      "type": "event"
    },
    {
      "anonymous": false,
      "inputs": [
        {
          "indexed": true,
          "internalType": "address",
          "name": "previousOwner",
          "type": "address"
        },
        {
          "indexed": true,
          "internalType": "address",
          "name": "newOwner",
          "type": "address"
        }
      ],
      "name": "OwnershipTransferred",
      "type": "event"
    },
    {
      "anonymous": false,
      "inputs": [
        {
          "indexed": false,
          "internalType": "address",
          "name": "account",
          "type": "address"
        }
      ],
      "name": "Paused",
      "type": "event"
    },
    {
      "anonymous": false,
      "inputs": [
        {
          "indexed": false,
          "internalType": "address",
          "name": "account",
          "type": "address"
        }
      ],
      "name": "Unpaused",
      "type": "event"
    },
    {
      "anonymous": false,
      "inputs": [
        {
          "indexed": true,
          "internalType": "address",
          "name": "implementation",
          "type": "address"
        }
      ],
      "name": "Upgraded",
      "type": "event"
    },
    {
      "inputs": [
        {
          "internalType": "uint256",
          "name": "coinTradePositionId",
          "type": "uint256"
        }
      ],
      "name": "cancellOTCCPosition",
      "outputs": [],
      "stateMutability": "payable",
      "type": "function"
    },
    {
      "inputs": [
        {
          "internalType": "uint256",
          "name": "nftTradePositionId",
          "type": "uint256"
        }
      ],
      "name": "cancellOTCNPosition",
      "outputs": [],
      "stateMutability": "payable",
      "type": "function"
    },
    {
      "inputs": [
        {
          "internalType": "uint256",
          "name": "coinTradePositionId",
          "type": "uint256"
        }
      ],
      "name": "closeOTCCPosition",
      "outputs": [],
      "stateMutability": "payable",
      "type": "function"
    },
    {
      "inputs": [
        {
          "internalType": "uint256",
          "name": "nftTradePositionId",
          "type": "uint256"
        }
      ],
      "name": "closeOTCNPosition",
      "outputs": [],
      "stateMutability": "payable",
      "type": "function"
    },
    {
      "inputs": [
        {
          "internalType": "address",
          "name": "coinAAddress",
          "type": "address"
        },
        {
          "internalType": "address",
          "name": "coinBAddress",
          "type": "address"
        },
        {
          "internalType": "uint256",
          "name": "amountCoinA",
          "type": "uint256"
        },
        {
          "internalType": "uint256",
          "name": "amountCoinB",
          "type": "uint256"
        },
        {
          "internalType": "uint256",
          "name": "validUntil",
          "type": "uint256"
        },
        {
          "internalType": "bool",
          "name": "isPublic",
          "type": "bool"
        }
      ],
      "name": "createOTCCPosition",
      "outputs": [],
      "stateMutability": "payable",
      "type": "function"
    },
    {
      "inputs": [
        {
          "internalType": "address",
          "name": "nftCollectionAddressA",
          "type": "address"
        },
        {
          "internalType": "address",
          "name": "nftCollectionAddressB",
          "type": "address"
        },
        {
          "internalType": "uint256",
          "name": "nftIdA",
          "type": "uint256"
        },
        {
          "internalType": "uint256",
          "name": "nftIdB",
          "type": "uint256"
        },
        {
          "internalType": "uint256",
          "name": "validUntil",
          "type": "uint256"
        },
        {
          "internalType": "bool",
          "name": "isPublic",
          "type": "bool"
        }
      ],
      "name": "createOTCNPosition",
      "outputs": [],
      "stateMutability": "payable",
      "type": "function"
    },
    {
      "inputs": [],
      "name": "fetchAllCoinTrades",
      "outputs": [
        {
          "components": [
            {
              "internalType": "uint256",
              "name": "tradeId",
              "type": "uint256"
            },
            {
              "internalType": "address payable",
              "name": "creator",
              "type": "address"
            },
            {
              "internalType": "address payable",
              "name": "counterpart",
              "type": "address"
            },
            {
              "internalType": "address",
              "name": "coinCreator",
              "type": "address"
            },
            {
              "internalType": "address",
              "name": "coinCounterpart",
              "type": "address"
            },
            {
              "internalType": "uint256",
              "name": "amountPositionCreator",
              "type": "uint256"
            },
            {
              "internalType": "uint256",
              "name": "amountPositionCounterpart",
              "type": "uint256"
            },
            {
              "internalType": "uint256",
              "name": "validUntil",
              "type": "uint256"
            },
            {
              "internalType": "bool",
              "name": "sold",
              "type": "bool"
            },
            {
              "internalType": "bool",
              "name": "cancelled",
              "type": "bool"
            },
            {
              "internalType": "bool",
              "name": "publicTrade",
              "type": "bool"
            },
            {
              "internalType": "uint256",
              "name": "createdAt",
              "type": "uint256"
            }
          ],
          "internalType": "struct MikosavaOTC_V225.OTCCTrade[]",
          "name": "",
          "type": "tuple[]"
        }
      ],
      "stateMutability": "view",
      "type": "function"
    },
    {
      "inputs": [],
      "name": "fetchAllNftTrades",
      "outputs": [
        {
          "components": [
            {
              "internalType": "uint256",
              "name": "tradeId",
              "type": "uint256"
            },
            {
              "internalType": "address payable",
              "name": "creator",
              "type": "address"
            },
            {
              "internalType": "address payable",
              "name": "counterpart",
              "type": "address"
            },
            {
              "internalType": "address",
              "name": "nftAddressA",
              "type": "address"
            },
            {
              "internalType": "address",
              "name": "nftAddressB",
              "type": "address"
            },
            {
              "internalType": "uint256",
              "name": "nftIdA",
              "type": "uint256"
            },
            {
              "internalType": "uint256",
              "name": "nftIdB",
              "type": "uint256"
            },
            {
              "internalType": "uint256",
              "name": "validUntil",
              "type": "uint256"
            },
            {
              "internalType": "bool",
              "name": "sold",
              "type": "bool"
            },
            {
              "internalType": "bool",
              "name": "cancelled",
              "type": "bool"
            },
            {
              "internalType": "bool",
              "name": "publicTrade",
              "type": "bool"
            },
            {
              "internalType": "uint256",
              "name": "createdAt",
              "type": "uint256"
            }
          ],
          "internalType": "struct MikosavaOTC_V225.OTCCNFT[]",
          "name": "",
          "type": "tuple[]"
        }
      ],
      "stateMutability": "view",
      "type": "function"
    },
    {
      "inputs": [
        {
          "internalType": "uint256",
          "name": "tradeId",
          "type": "uint256"
        }
      ],
      "name": "fetchCoinTradeById",
      "outputs": [
        {
          "components": [
            {
              "internalType": "uint256",
              "name": "tradeId",
              "type": "uint256"
            },
            {
              "internalType": "address payable",
              "name": "creator",
              "type": "address"
            },
            {
              "internalType": "address payable",
              "name": "counterpart",
              "type": "address"
            },
            {
              "internalType": "address",
              "name": "coinCreator",
              "type": "address"
            },
            {
              "internalType": "address",
              "name": "coinCounterpart",
              "type": "address"
            },
            {
              "internalType": "uint256",
              "name": "amountPositionCreator",
              "type": "uint256"
            },
            {
              "internalType": "uint256",
              "name": "amountPositionCounterpart",
              "type": "uint256"
            },
            {
              "internalType": "uint256",
              "name": "validUntil",
              "type": "uint256"
            },
            {
              "internalType": "bool",
              "name": "sold",
              "type": "bool"
            },
            {
              "internalType": "bool",
              "name": "cancelled",
              "type": "bool"
            },
            {
              "internalType": "bool",
              "name": "publicTrade",
              "type": "bool"
            },
            {
              "internalType": "uint256",
              "name": "createdAt",
              "type": "uint256"
            }
          ],
          "internalType": "struct MikosavaOTC_V225.OTCCTrade",
          "name": "",
          "type": "tuple"
        }
      ],
      "stateMutability": "view",
      "type": "function"
    },
    {
      "inputs": [],
      "name": "fetchMyCoinTrades",
      "outputs": [
        {
          "components": [
            {
              "internalType": "uint256",
              "name": "tradeId",
              "type": "uint256"
            },
            {
              "internalType": "address payable",
              "name": "creator",
              "type": "address"
            },
            {
              "internalType": "address payable",
              "name": "counterpart",
              "type": "address"
            },
            {
              "internalType": "address",
              "name": "coinCreator",
              "type": "address"
            },
            {
              "internalType": "address",
              "name": "coinCounterpart",
              "type": "address"
            },
            {
              "internalType": "uint256",
              "name": "amountPositionCreator",
              "type": "uint256"
            },
            {
              "internalType": "uint256",
              "name": "amountPositionCounterpart",
              "type": "uint256"
            },
            {
              "internalType": "uint256",
              "name": "validUntil",
              "type": "uint256"
            },
            {
              "internalType": "bool",
              "name": "sold",
              "type": "bool"
            },
            {
              "internalType": "bool",
              "name": "cancelled",
              "type": "bool"
            },
            {
              "internalType": "bool",
              "name": "publicTrade",
              "type": "bool"
            },
            {
              "internalType": "uint256",
              "name": "createdAt",
              "type": "uint256"
            }
          ],
          "internalType": "struct MikosavaOTC_V225.OTCCTrade[]",
          "name": "",
          "type": "tuple[]"
        }
      ],
      "stateMutability": "view",
      "type": "function"
    },
    {
      "inputs": [],
      "name": "fetchMyNftTrades",
      "outputs": [
        {
          "components": [
            {
              "internalType": "uint256",
              "name": "tradeId",
              "type": "uint256"
            },
            {
              "internalType": "address payable",
              "name": "creator",
              "type": "address"
            },
            {
              "internalType": "address payable",
              "name": "counterpart",
              "type": "address"
            },
            {
              "internalType": "address",
              "name": "nftAddressA",
              "type": "address"
            },
            {
              "internalType": "address",
              "name": "nftAddressB",
              "type": "address"
            },
            {
              "internalType": "uint256",
              "name": "nftIdA",
              "type": "uint256"
            },
            {
              "internalType": "uint256",
              "name": "nftIdB",
              "type": "uint256"
            },
            {
              "internalType": "uint256",
              "name": "validUntil",
              "type": "uint256"
            },
            {
              "internalType": "bool",
              "name": "sold",
              "type": "bool"
            },
            {
              "internalType": "bool",
              "name": "cancelled",
              "type": "bool"
            },
            {
              "internalType": "bool",
              "name": "publicTrade",
              "type": "bool"
            },
            {
              "internalType": "uint256",
              "name": "createdAt",
              "type": "uint256"
            }
          ],
          "internalType": "struct MikosavaOTC_V225.OTCCNFT[]",
          "name": "",
          "type": "tuple[]"
        }
      ],
      "stateMutability": "view",
      "type": "function"
    },
    {
      "inputs": [
        {
          "internalType": "uint256",
          "name": "tradeId",
          "type": "uint256"
        }
      ],
      "name": "fetchNftTradeById",
      "outputs": [
        {
          "components": [
            {
              "internalType": "uint256",
              "name": "tradeId",
              "type": "uint256"
            },
            {
              "internalType": "address payable",
              "name": "creator",
              "type": "address"
            },
            {
              "internalType": "address payable",
              "name": "counterpart",
              "type": "address"
            },
            {
              "internalType": "address",
              "name": "nftAddressA",
              "type": "address"
            },
            {
              "internalType": "address",
              "name": "nftAddressB",
              "type": "address"
            },
            {
              "internalType": "uint256",
              "name": "nftIdA",
              "type": "uint256"
            },
            {
              "internalType": "uint256",
              "name": "nftIdB",
              "type": "uint256"
            },
            {
              "internalType": "uint256",
              "name": "validUntil",
              "type": "uint256"
            },
            {
              "internalType": "bool",
              "name": "sold",
              "type": "bool"
            },
            {
              "internalType": "bool",
              "name": "cancelled",
              "type": "bool"
            },
            {
              "internalType": "bool",
              "name": "publicTrade",
              "type": "bool"
            },
            {
              "internalType": "uint256",
              "name": "createdAt",
              "type": "uint256"
            }
          ],
          "internalType": "struct MikosavaOTC_V225.OTCCNFT",
          "name": "",
          "type": "tuple"
        }
      ],
      "stateMutability": "view",
      "type": "function"
    },
    {
      "inputs": [],
      "name": "getCoinFee",
      "outputs": [
        {
          "internalType": "uint256",
          "name": "",
          "type": "uint256"
        }
      ],
      "stateMutability": "view",
      "type": "function"
    },
    {
      "inputs": [
        {
          "internalType": "uint256",
          "name": "coinFeeParam",
          "type": "uint256"
        }
      ],
      "name": "initialize",
      "outputs": [],
      "stateMutability": "nonpayable",
      "type": "function"
    },
    {
      "inputs": [],
      "name": "owner",
      "outputs": [
        {
          "internalType": "address",
          "name": "",
          "type": "address"
        }
      ],
      "stateMutability": "view",
      "type": "function"
    },
    {
      "inputs": [],
      "name": "pause",
      "outputs": [],
      "stateMutability": "nonpayable",
      "type": "function"
    },
    {
      "inputs": [],
      "name": "paused",
      "outputs": [
        {
          "internalType": "bool",
          "name": "",
          "type": "bool"
        }
      ],
      "stateMutability": "view",
      "type": "function"
    },
    {
      "inputs": [],
      "name": "proxiableUUID",
      "outputs": [
        {
          "internalType": "bytes32",
          "name": "",
          "type": "bytes32"
        }
      ],
      "stateMutability": "view",
      "type": "function"
    },
    {
      "inputs": [],
      "name": "renounceOwnership",
      "outputs": [],
      "stateMutability": "nonpayable",
      "type": "function"
    },
    {
      "inputs": [
        {
          "internalType": "uint256",
          "name": "newCoinFee",
          "type": "uint256"
        }
      ],
      "name": "setCoinFee",
      "outputs": [],
      "stateMutability": "nonpayable",
      "type": "function"
    },
    {
      "inputs": [
        {
          "internalType": "address",
          "name": "newOwner",
          "type": "address"
        }
      ],
      "name": "transferOwnership",
      "outputs": [],
      "stateMutability": "nonpayable",
      "type": "function"
    },
    {
      "inputs": [],
      "name": "unpause",
      "outputs": [],
      "stateMutability": "nonpayable",
      "type": "function"
    },
    {
      "inputs": [
        {
          "internalType": "address",
          "name": "newImplementation",
          "type": "address"
        }
      ],
      "name": "upgradeTo",
      "outputs": [],
      "stateMutability": "nonpayable",
      "type": "function"
    },
    {
      "inputs": [
        {
          "internalType": "address",
          "name": "newImplementation",
          "type": "address"
        },
        {
          "internalType": "bytes",
          "name": "data",
          "type": "bytes"
        }
      ],
      "name": "upgradeToAndCall",
      "outputs": [],
      "stateMutability": "payable",
      "type": "function"
    },
    {
      "inputs": [],
      "name": "version",
      "outputs": [
        {
          "internalType": "string",
          "name": "",
          "type": "string"
        }
      ],
      "stateMutability": "pure",
      "type": "function"
    }
  ],
  "bytecode": "0x60a06040523073ffffffffffffffffffffffffffffffffffffffff1660809073ffffffffffffffffffffffffffffffffffffffff168152503480156200004457600080fd5b50620000556200005b60201b60201c565b62000206565b600060019054906101000a900460ff1615620000ae576040517f08c379a0000000000000000000000000000000000000000000000000000000008152600401620000a590620001a9565b60405180910390fd5b60ff801660008054906101000a900460ff1660ff161015620001205760ff6000806101000a81548160ff021916908360ff1602179055507f7f26b83ff96e1f2b6a682f133852f6798a09c465da95921460cefb384740249860ff604051620001179190620001e9565b60405180910390a15b565b600082825260208201905092915050565b7f496e697469616c697a61626c653a20636f6e747261637420697320696e69746960008201527f616c697a696e6700000000000000000000000000000000000000000000000000602082015250565b60006200019160278362000122565b91506200019e8262000133565b604082019050919050565b60006020820190508181036000830152620001c48162000182565b9050919050565b600060ff82169050919050565b620001e381620001cb565b82525050565b6000602082019050620002006000830184620001d8565b92915050565b608051615dc06200023e6000396000818161137f0152818161140d01528181611519015281816115a7015261199d0152615dc06000f3fe6080604052600436106101665760003560e01c80635b1a691e116100d15780638da5cb5b1161008a578063d6d45e0111610064578063d6d45e011461046f578063e134c2bb14610498578063f2fde38b146104c3578063fe4b84df146104ec57610166565b80638da5cb5b146103eb5780639096e50c14610416578063a2f52f501461045357610166565b80635b1a691e146102ff5780635c975abb1461032a5780636787be4214610355578063715018a6146103925780638456cb59146103a9578063883f8a81146103c057610166565b80633f4ba83a116101235780633f4ba83a1461022f5780634f1ef286146102465780634ff35f8e1461026257806352d1902d1461028d57806354fd4d50146102b857806358f56fd4146102e357610166565b806308dd894f1461016b57806317bc566f146101875780631ec54774146101a35780631fa1bad8146101bf578063280d7ae4146101db5780633659cfe614610206575b600080fd5b610185600480360381019061018091906143e3565b610515565b005b6101a1600480360381019061019c91906143e3565b610800565b005b6101bd60048036038101906101b891906144a6565b610afb565b005b6101d960048036038101906101d491906143e3565b610ede565b005b3480156101e757600080fd5b506101f0611372565b6040516101fd9190614542565b60405180910390f35b34801561021257600080fd5b5061022d6004803603810190610228919061455d565b61137d565b005b34801561023b57600080fd5b50610244611505565b005b610260600480360381019061025b91906146d0565b611517565b005b34801561026e57600080fd5b50610277611653565b6040516102849190614920565b60405180910390f35b34801561029957600080fd5b506102a2611999565b6040516102af919061495b565b60405180910390f35b3480156102c457600080fd5b506102cd611a52565b6040516102da91906149f5565b60405180910390f35b6102fd60048036038101906102f891906144a6565b611a8f565b005b34801561030b57600080fd5b50610314611e60565b6040516103219190614bbd565b60405180910390f35b34801561033657600080fd5b5061033f6121a6565b60405161034c9190614bee565b60405180910390f35b34801561036157600080fd5b5061037c600480360381019061037791906143e3565b6121bd565b6040516103899190614cff565b60405180910390f35b34801561039e57600080fd5b506103a76124ad565b005b3480156103b557600080fd5b506103be6124c1565b005b3480156103cc57600080fd5b506103d56124d3565b6040516103e29190614920565b60405180910390f35b3480156103f757600080fd5b5061040061297c565b60405161040d9190614d2a565b60405180910390f35b34801561042257600080fd5b5061043d600480360381019061043891906143e3565b6129a6565b60405161044a9190614e3b565b60405180910390f35b61046d600480360381019061046891906143e3565b612c96565b005b34801561047b57600080fd5b50610496600480360381019061049191906143e3565b613127565b005b3480156104a457600080fd5b506104ad6131d3565b6040516104ba9190614bbd565b60405180910390f35b3480156104cf57600080fd5b506104ea60048036038101906104e5919061455d565b61367c565b005b3480156104f857600080fd5b50610513600480360381019061050e91906143e3565b6136ff565b005b61051d613898565b610131600082815260200190815260200160002060080160009054906101000a900460ff16610131600083815260200190815260200160002060080160019054906101000a900460ff1661013160008481526020019081526020016000206007015460001515831515146105c6576040517f08c379a00000000000000000000000000000000000000000000000000000000081526004016105bd90614ea3565b60405180910390fd5b600015158215151461060d576040517f08c379a000000000000000000000000000000000000000000000000000000000815260040161060490614f0f565b60405180910390fd5b600081111561065a5780421115610659576040517f08c379a000000000000000000000000000000000000000000000000000000000815260040161065090614f7b565b60405180910390fd5b5b3373ffffffffffffffffffffffffffffffffffffffff16610131600086815260200190815260200160002060010160009054906101000a900473ffffffffffffffffffffffffffffffffffffffff1673ffffffffffffffffffffffffffffffffffffffff16146106ff576040517f08c379a00000000000000000000000000000000000000000000000000000000081526004016106f69061500d565b60405180910390fd5b6000610131600086815260200190815260200160002060030160009054906101000a900473ffffffffffffffffffffffffffffffffffffffff1690508073ffffffffffffffffffffffffffffffffffffffff166323b872dd303361013160008a8152602001908152602001600020600501546040518463ffffffff1660e01b815260040161078f9392919061502d565b600060405180830381600087803b1580156107a957600080fd5b505af11580156107bd573d6000803e3d6000fd5b505050506001610131600087815260200190815260200160002060080160016101000a81548160ff021916908315150217905550505050506107fd6138e7565b50565b610808613898565b610130600082815260200190815260200160002060080160009054906101000a900460ff16610130600083815260200190815260200160002060080160019054906101000a900460ff1661013060008481526020019081526020016000206007015460001515831515146108b1576040517f08c379a00000000000000000000000000000000000000000000000000000000081526004016108a890614ea3565b60405180910390fd5b60001515821515146108f8576040517f08c379a00000000000000000000000000000000000000000000000000000000081526004016108ef90614f0f565b60405180910390fd5b60008111156109455780421115610944576040517f08c379a000000000000000000000000000000000000000000000000000000000815260040161093b90614f7b565b60405180910390fd5b5b3373ffffffffffffffffffffffffffffffffffffffff16610130600086815260200190815260200160002060010160009054906101000a900473ffffffffffffffffffffffffffffffffffffffff1673ffffffffffffffffffffffffffffffffffffffff16146109ea576040517f08c379a00000000000000000000000000000000000000000000000000000000081526004016109e19061500d565b60405180910390fd5b6000610130600086815260200190815260200160002060030160009054906101000a900473ffffffffffffffffffffffffffffffffffffffff1690508073ffffffffffffffffffffffffffffffffffffffff1663a9059cbb336101306000898152602001908152602001600020600501546040518363ffffffff1660e01b8152600401610a78929190615064565b6020604051808303816000875af1158015610a97573d6000803e3d6000fd5b505050506040513d601f19601f82011682018060405250810190610abb91906150a2565b506001610130600087815260200190815260200160002060080160016101000a81548160ff02191690831515021790555050505050610af86138e7565b50565b610b03613898565b61012f54341015610b49576040517f08c379a0000000000000000000000000000000000000000000000000000000008152600401610b4090615141565b60405180910390fd5b610b5461012d6138f1565b6000610b6161012d613907565b90506040518061018001604052808281526020013373ffffffffffffffffffffffffffffffffffffffff168152602001600073ffffffffffffffffffffffffffffffffffffffff1681526020018873ffffffffffffffffffffffffffffffffffffffff1681526020018773ffffffffffffffffffffffffffffffffffffffff16815260200186815260200185815260200184815260200160001515815260200160001515815260200183151581526020014281525061013060008381526020019081526020016000206000820151816000015560208201518160010160006101000a81548173ffffffffffffffffffffffffffffffffffffffff021916908373ffffffffffffffffffffffffffffffffffffffff16021790555060408201518160020160006101000a81548173ffffffffffffffffffffffffffffffffffffffff021916908373ffffffffffffffffffffffffffffffffffffffff16021790555060608201518160030160006101000a81548173ffffffffffffffffffffffffffffffffffffffff021916908373ffffffffffffffffffffffffffffffffffffffff16021790555060808201518160040160006101000a81548173ffffffffffffffffffffffffffffffffffffffff021916908373ffffffffffffffffffffffffffffffffffffffff16021790555060a0820151816005015560c0820151816006015560e082015181600701556101008201518160080160006101000a81548160ff0219169083151502179055506101208201518160080160016101000a81548160ff0219169083151502179055506101408201518160080160026101000a81548160ff02191690831515021790555061016082015181600901559050508673ffffffffffffffffffffffffffffffffffffffff166323b872dd3330886040518463ffffffff1660e01b8152600401610e1c9392919061502d565b6020604051808303816000875af1158015610e3b573d6000803e3d6000fd5b505050506040513d601f19601f82011682018060405250810190610e5f91906150a2565b5061012e60009054906101000a900473ffffffffffffffffffffffffffffffffffffffff1673ffffffffffffffffffffffffffffffffffffffff166108fc61012f549081150290604051600060405180830381858888f19350505050158015610ecc573d6000803e3d6000fd5b5050610ed66138e7565b505050505050565b610ee6613898565b610131600082815260200190815260200160002060080160009054906101000a900460ff16610131600083815260200190815260200160002060080160019054906101000a900460ff166101316000848152602001908152602001600020600701546000151583151514610f8f576040517f08c379a0000000000000000000000000000000000000000000000000000000008152600401610f8690614ea3565b60405180910390fd5b6000151582151514610fd6576040517f08c379a0000000000000000000000000000000000000000000000000000000008152600401610fcd90614f0f565b60405180910390fd5b60008111156110235780421115611022576040517f08c379a000000000000000000000000000000000000000000000000000000000815260040161101990614f7b565b60405180910390fd5b5b6000610131600086815260200190815260200160002060040160009054906101000a900473ffffffffffffffffffffffffffffffffffffffff1690508073ffffffffffffffffffffffffffffffffffffffff16636352211e6101316000888152602001908152602001600020600601546040518263ffffffff1660e01b81526004016110af9190614542565b602060405180830381865afa1580156110cc573d6000803e3d6000fd5b505050506040513d601f19601f820116820180604052508101906110f09190615176565b73ffffffffffffffffffffffffffffffffffffffff163373ffffffffffffffffffffffffffffffffffffffff161461115d576040517f08c379a0000000000000000000000000000000000000000000000000000000008152600401611154906151ef565b60405180910390fd5b8073ffffffffffffffffffffffffffffffffffffffff166323b872dd33610131600089815260200190815260200160002060010160009054906101000a900473ffffffffffffffffffffffffffffffffffffffff1661013160008a8152602001908152602001600020600601546040518463ffffffff1660e01b81526004016111e89392919061526e565b600060405180830381600087803b15801561120257600080fd5b505af1158015611216573d6000803e3d6000fd5b505050506000610131600087815260200190815260200160002060030160009054906101000a900473ffffffffffffffffffffffffffffffffffffffff1690508073ffffffffffffffffffffffffffffffffffffffff166323b872dd303361013160008b8152602001908152602001600020600501546040518463ffffffff1660e01b81526004016112aa9392919061502d565b600060405180830381600087803b1580156112c457600080fd5b505af11580156112d8573d6000803e3d6000fd5b5050505033610131600088815260200190815260200160002060020160006101000a81548173ffffffffffffffffffffffffffffffffffffffff021916908373ffffffffffffffffffffffffffffffffffffffff1602179055506001610131600088815260200190815260200160002060080160006101000a81548160ff021916908315150217905550505050505061136f6138e7565b50565b600061012f54905090565b7f000000000000000000000000000000000000000000000000000000000000000073ffffffffffffffffffffffffffffffffffffffff163073ffffffffffffffffffffffffffffffffffffffff160361140b576040517f08c379a000000000000000000000000000000000000000000000000000000000815260040161140290615317565b60405180910390fd5b7f000000000000000000000000000000000000000000000000000000000000000073ffffffffffffffffffffffffffffffffffffffff1661144a613915565b73ffffffffffffffffffffffffffffffffffffffff16146114a0576040517f08c379a0000000000000000000000000000000000000000000000000000000008152600401611497906153a9565b60405180910390fd5b6114a98161396c565b61150281600067ffffffffffffffff8111156114c8576114c76145a5565b5b6040519080825280601f01601f1916602001820160405280156114fa5781602001600182028036833780820191505090505b506000613977565b50565b61150d613ae5565b611515613b63565b565b7f000000000000000000000000000000000000000000000000000000000000000073ffffffffffffffffffffffffffffffffffffffff163073ffffffffffffffffffffffffffffffffffffffff16036115a5576040517f08c379a000000000000000000000000000000000000000000000000000000000815260040161159c90615317565b60405180910390fd5b7f000000000000000000000000000000000000000000000000000000000000000073ffffffffffffffffffffffffffffffffffffffff166115e4613915565b73ffffffffffffffffffffffffffffffffffffffff161461163a576040517f08c379a0000000000000000000000000000000000000000000000000000000008152600401611631906153a9565b60405180910390fd5b6116438261396c565b61164f82826001613977565b5050565b6060600061166261012d613907565b90506000806000600190505b8381116116c85760011515610130600083815260200190815260200160002060080160029054906101000a900460ff161515036116b5576001836116b291906153f8565b92505b80806116c09061542c565b91505061166e565b5060008267ffffffffffffffff8111156116e5576116e46145a5565b5b60405190808252806020026020018201604052801561171e57816020015b61170b61421b565b8152602001906001900390816117035790505b5090506000600190505b84811161198e57600061013060008381526020019081526020016000209050600115158160080160029054906101000a900460ff1615150361197a578060405180610180016040529081600082015481526020016001820160009054906101000a900473ffffffffffffffffffffffffffffffffffffffff1673ffffffffffffffffffffffffffffffffffffffff1673ffffffffffffffffffffffffffffffffffffffff1681526020016002820160009054906101000a900473ffffffffffffffffffffffffffffffffffffffff1673ffffffffffffffffffffffffffffffffffffffff1673ffffffffffffffffffffffffffffffffffffffff1681526020016003820160009054906101000a900473ffffffffffffffffffffffffffffffffffffffff1673ffffffffffffffffffffffffffffffffffffffff1673ffffffffffffffffffffffffffffffffffffffff1681526020016004820160009054906101000a900473ffffffffffffffffffffffffffffffffffffffff1673ffffffffffffffffffffffffffffffffffffffff1673ffffffffffffffffffffffffffffffffffffffff1681526020016005820154815260200160068201548152602001600782015481526020016008820160009054906101000a900460ff161515151581526020016008820160019054906101000a900460ff161515151581526020016008820160029054906101000a900460ff1615151515815260200160098201548152505083858151811061195f5761195e615474565b5b602002602001018190525060018461197791906153f8565b93505b5080806119869061542c565b915050611728565b508094505050505090565b60007f000000000000000000000000000000000000000000000000000000000000000073ffffffffffffffffffffffffffffffffffffffff163073ffffffffffffffffffffffffffffffffffffffff1614611a29576040517f08c379a0000000000000000000000000000000000000000000000000000000008152600401611a2090615515565b60405180910390fd5b7f360894a13ba1a3210667c828492db98dca3e2076cc3735a920a3ca505d382bbc60001b905090565b60606040518060400160405280600581526020017f322e322e35000000000000000000000000000000000000000000000000000000815250905090565b611a97613898565b61012f54341015611add576040517f08c379a0000000000000000000000000000000000000000000000000000000008152600401611ad490615141565b60405180910390fd5b611ae86101326138f1565b6000611af5610132613907565b90506040518061018001604052808281526020013373ffffffffffffffffffffffffffffffffffffffff168152602001600073ffffffffffffffffffffffffffffffffffffffff1681526020018873ffffffffffffffffffffffffffffffffffffffff1681526020018773ffffffffffffffffffffffffffffffffffffffff16815260200186815260200185815260200184815260200160001515815260200160001515815260200183151581526020014281525061013160008381526020019081526020016000206000820151816000015560208201518160010160006101000a81548173ffffffffffffffffffffffffffffffffffffffff021916908373ffffffffffffffffffffffffffffffffffffffff16021790555060408201518160020160006101000a81548173ffffffffffffffffffffffffffffffffffffffff021916908373ffffffffffffffffffffffffffffffffffffffff16021790555060608201518160030160006101000a81548173ffffffffffffffffffffffffffffffffffffffff021916908373ffffffffffffffffffffffffffffffffffffffff16021790555060808201518160040160006101000a81548173ffffffffffffffffffffffffffffffffffffffff021916908373ffffffffffffffffffffffffffffffffffffffff16021790555060a0820151816005015560c0820151816006015560e082015181600701556101008201518160080160006101000a81548160ff0219169083151502179055506101208201518160080160016101000a81548160ff0219169083151502179055506101408201518160080160026101000a81548160ff02191690831515021790555061016082015181600901559050508673ffffffffffffffffffffffffffffffffffffffff166323b872dd3330886040518463ffffffff1660e01b8152600401611db09392919061502d565b600060405180830381600087803b158015611dca57600080fd5b505af1158015611dde573d6000803e3d6000fd5b5050505061012e60009054906101000a900473ffffffffffffffffffffffffffffffffffffffff1673ffffffffffffffffffffffffffffffffffffffff166108fc61012f549081150290604051600060405180830381858888f19350505050158015611e4e573d6000803e3d6000fd5b5050611e586138e7565b505050505050565b60606000611e6f610132613907565b90506000806000600190505b838111611ed55760011515610131600083815260200190815260200160002060080160029054906101000a900460ff16151503611ec257600183611ebf91906153f8565b92505b8080611ecd9061542c565b915050611e7b565b5060008267ffffffffffffffff811115611ef257611ef16145a5565b5b604051908082528060200260200182016040528015611f2b57816020015b611f186142da565b815260200190600190039081611f105790505b5090506000600190505b84811161219b57600061013160008381526020019081526020016000209050600115158160080160029054906101000a900460ff16151503612187578060405180610180016040529081600082015481526020016001820160009054906101000a900473ffffffffffffffffffffffffffffffffffffffff1673ffffffffffffffffffffffffffffffffffffffff1673ffffffffffffffffffffffffffffffffffffffff1681526020016002820160009054906101000a900473ffffffffffffffffffffffffffffffffffffffff1673ffffffffffffffffffffffffffffffffffffffff1673ffffffffffffffffffffffffffffffffffffffff1681526020016003820160009054906101000a900473ffffffffffffffffffffffffffffffffffffffff1673ffffffffffffffffffffffffffffffffffffffff1673ffffffffffffffffffffffffffffffffffffffff1681526020016004820160009054906101000a900473ffffffffffffffffffffffffffffffffffffffff1673ffffffffffffffffffffffffffffffffffffffff1673ffffffffffffffffffffffffffffffffffffffff1681526020016005820154815260200160068201548152602001600782015481526020016008820160009054906101000a900460ff161515151581526020016008820160019054906101000a900460ff161515151581526020016008820160029054906101000a900460ff1615151515815260200160098201548152505083858151811061216c5761216b615474565b5b602002602001018190525060018461218491906153f8565b93505b5080806121939061542c565b915050611f35565b508094505050505090565b6000603360009054906101000a900460ff16905090565b6121c561421b565b6000600167ffffffffffffffff8111156121e2576121e16145a5565b5b60405190808252806020026020018201604052801561221b57816020015b61220861421b565b8152602001906001900390816122005790505b509050600061222b61012d613907565b90506000600190505b81811161248757846101306000838152602001908152602001600020600001540361247457610130600082815260200190815260200160002060405180610180016040529081600082015481526020016001820160009054906101000a900473ffffffffffffffffffffffffffffffffffffffff1673ffffffffffffffffffffffffffffffffffffffff1673ffffffffffffffffffffffffffffffffffffffff1681526020016002820160009054906101000a900473ffffffffffffffffffffffffffffffffffffffff1673ffffffffffffffffffffffffffffffffffffffff1673ffffffffffffffffffffffffffffffffffffffff1681526020016003820160009054906101000a900473ffffffffffffffffffffffffffffffffffffffff1673ffffffffffffffffffffffffffffffffffffffff1673ffffffffffffffffffffffffffffffffffffffff1681526020016004820160009054906101000a900473ffffffffffffffffffffffffffffffffffffffff1673ffffffffffffffffffffffffffffffffffffffff1673ffffffffffffffffffffffffffffffffffffffff1681526020016005820154815260200160068201548152602001600782015481526020016008820160009054906101000a900460ff161515151581526020016008820160019054906101000a900460ff161515151581526020016008820160029054906101000a900460ff161515151581526020016009820154815250508360008151811061246857612467615474565b5b60200260200101819052505b808061247f9061542c565b915050612234565b508160008151811061249c5761249b615474565b5b602002602001015192505050919050565b6124b5613ae5565b6124bf6000613bc6565b565b6124c9613ae5565b6124d1613c8c565b565b606060006124e261012d613907565b90506000806000600190505b8381116125f0573373ffffffffffffffffffffffffffffffffffffffff16610130600083815260200190815260200160002060010160009054906101000a900473ffffffffffffffffffffffffffffffffffffffff1673ffffffffffffffffffffffffffffffffffffffff1614806125c857503373ffffffffffffffffffffffffffffffffffffffff16610130600083815260200190815260200160002060020160009054906101000a900473ffffffffffffffffffffffffffffffffffffffff1673ffffffffffffffffffffffffffffffffffffffff16145b156125dd576001836125da91906153f8565b92505b80806125e89061542c565b9150506124ee565b5060008267ffffffffffffffff81111561260d5761260c6145a5565b5b60405190808252806020026020018201604052801561264657816020015b61263361421b565b81526020019060019003908161262b5790505b5090506000600190505b848111612971573373ffffffffffffffffffffffffffffffffffffffff16610130600083815260200190815260200160002060010160009054906101000a900473ffffffffffffffffffffffffffffffffffffffff1673ffffffffffffffffffffffffffffffffffffffff16148061272a57503373ffffffffffffffffffffffffffffffffffffffff16610130600083815260200190815260200160002060020160009054906101000a900473ffffffffffffffffffffffffffffffffffffffff1673ffffffffffffffffffffffffffffffffffffffff16145b1561295e576000610130600083815260200190815260200160002090508060405180610180016040529081600082015481526020016001820160009054906101000a900473ffffffffffffffffffffffffffffffffffffffff1673ffffffffffffffffffffffffffffffffffffffff1673ffffffffffffffffffffffffffffffffffffffff1681526020016002820160009054906101000a900473ffffffffffffffffffffffffffffffffffffffff1673ffffffffffffffffffffffffffffffffffffffff1673ffffffffffffffffffffffffffffffffffffffff1681526020016003820160009054906101000a900473ffffffffffffffffffffffffffffffffffffffff1673ffffffffffffffffffffffffffffffffffffffff1673ffffffffffffffffffffffffffffffffffffffff1681526020016004820160009054906101000a900473ffffffffffffffffffffffffffffffffffffffff1673ffffffffffffffffffffffffffffffffffffffff1673ffffffffffffffffffffffffffffffffffffffff1681526020016005820154815260200160068201548152602001600782015481526020016008820160009054906101000a900460ff161515151581526020016008820160019054906101000a900460ff161515151581526020016008820160029054906101000a900460ff1615151515815260200160098201548152505083858151811061294257612941615474565b5b602002602001018190525060018461295a91906153f8565b9350505b80806129699061542c565b915050612650565b508094505050505090565b6000606560009054906101000a900473ffffffffffffffffffffffffffffffffffffffff16905090565b6129ae6142da565b6000600167ffffffffffffffff8111156129cb576129ca6145a5565b5b604051908082528060200260200182016040528015612a0457816020015b6129f16142da565b8152602001906001900390816129e95790505b5090506000612a14610132613907565b90506000600190505b818111612c70578461013160008381526020019081526020016000206000015403612c5d57610131600082815260200190815260200160002060405180610180016040529081600082015481526020016001820160009054906101000a900473ffffffffffffffffffffffffffffffffffffffff1673ffffffffffffffffffffffffffffffffffffffff1673ffffffffffffffffffffffffffffffffffffffff1681526020016002820160009054906101000a900473ffffffffffffffffffffffffffffffffffffffff1673ffffffffffffffffffffffffffffffffffffffff1673ffffffffffffffffffffffffffffffffffffffff1681526020016003820160009054906101000a900473ffffffffffffffffffffffffffffffffffffffff1673ffffffffffffffffffffffffffffffffffffffff1673ffffffffffffffffffffffffffffffffffffffff1681526020016004820160009054906101000a900473ffffffffffffffffffffffffffffffffffffffff1673ffffffffffffffffffffffffffffffffffffffff1673ffffffffffffffffffffffffffffffffffffffff1681526020016005820154815260200160068201548152602001600782015481526020016008820160009054906101000a900460ff161515151581526020016008820160019054906101000a900460ff161515151581526020016008820160029054906101000a900460ff1615151515815260200160098201548152505083600081518110612c5157612c50615474565b5b60200260200101819052505b8080612c689061542c565b915050612a1d565b5081600081518110612c8557612c84615474565b5b602002602001015192505050919050565b612c9e613898565b610130600082815260200190815260200160002060080160009054906101000a900460ff16610130600083815260200190815260200160002060080160019054906101000a900460ff166101306000848152602001908152602001600020600701546000151583151514612d47576040517f08c379a0000000000000000000000000000000000000000000000000000000008152600401612d3e90614ea3565b60405180910390fd5b6000151582151514612d8e576040517f08c379a0000000000000000000000000000000000000000000000000000000008152600401612d8590614f0f565b60405180910390fd5b6000811115612ddb5780421115612dda576040517f08c379a0000000000000000000000000000000000000000000000000000000008152600401612dd190614f7b565b60405180910390fd5b5b6000610130600086815260200190815260200160002060040160009054906101000a900473ffffffffffffffffffffffffffffffffffffffff16905060008173ffffffffffffffffffffffffffffffffffffffff166370a08231336040518263ffffffff1660e01b8152600401612e529190614d2a565b602060405180830381865afa158015612e6f573d6000803e3d6000fd5b505050506040513d601f19601f82011682018060405250810190612e93919061554a565b9050610130600087815260200190815260200160002060060154811015612eef576040517f08c379a0000000000000000000000000000000000000000000000000000000008152600401612ee6906155e9565b60405180910390fd5b8173ffffffffffffffffffffffffffffffffffffffff166323b872dd3361013060008a815260200190815260200160002060010160009054906101000a900473ffffffffffffffffffffffffffffffffffffffff1661013060008b8152602001908152602001600020600601546040518463ffffffff1660e01b8152600401612f7a9392919061526e565b6020604051808303816000875af1158015612f99573d6000803e3d6000fd5b505050506040513d601f19601f82011682018060405250810190612fbd91906150a2565b506000610130600088815260200190815260200160002060030160009054906101000a900473ffffffffffffffffffffffffffffffffffffffff1690508073ffffffffffffffffffffffffffffffffffffffff1663a9059cbb3361013060008b8152602001908152602001600020600501546040518363ffffffff1660e01b815260040161304c929190615064565b6020604051808303816000875af115801561306b573d6000803e3d6000fd5b505050506040513d601f19601f8201168201806040525081019061308f91906150a2565b5033610130600089815260200190815260200160002060020160006101000a81548173ffffffffffffffffffffffffffffffffffffffff021916908373ffffffffffffffffffffffffffffffffffffffff1602179055506001610130600089815260200190815260200160002060080160006101000a81548160ff0219169083151502179055505050505050506131246138e7565b50565b61312f613898565b61012e60009054906101000a900473ffffffffffffffffffffffffffffffffffffffff1673ffffffffffffffffffffffffffffffffffffffff163373ffffffffffffffffffffffffffffffffffffffff16146131c0576040517f08c379a00000000000000000000000000000000000000000000000000000000081526004016131b79061567b565b60405180910390fd5b8061012f819055506131d06138e7565b50565b606060006131e2610132613907565b90506000806000600190505b8381116132f0573373ffffffffffffffffffffffffffffffffffffffff16610131600083815260200190815260200160002060010160009054906101000a900473ffffffffffffffffffffffffffffffffffffffff1673ffffffffffffffffffffffffffffffffffffffff1614806132c857503373ffffffffffffffffffffffffffffffffffffffff16610131600083815260200190815260200160002060020160009054906101000a900473ffffffffffffffffffffffffffffffffffffffff1673ffffffffffffffffffffffffffffffffffffffff16145b156132dd576001836132da91906153f8565b92505b80806132e89061542c565b9150506131ee565b5060008267ffffffffffffffff81111561330d5761330c6145a5565b5b60405190808252806020026020018201604052801561334657816020015b6133336142da565b81526020019060019003908161332b5790505b5090506000600190505b848111613671573373ffffffffffffffffffffffffffffffffffffffff16610131600083815260200190815260200160002060010160009054906101000a900473ffffffffffffffffffffffffffffffffffffffff1673ffffffffffffffffffffffffffffffffffffffff16148061342a57503373ffffffffffffffffffffffffffffffffffffffff16610131600083815260200190815260200160002060020160009054906101000a900473ffffffffffffffffffffffffffffffffffffffff1673ffffffffffffffffffffffffffffffffffffffff16145b1561365e576000610131600083815260200190815260200160002090508060405180610180016040529081600082015481526020016001820160009054906101000a900473ffffffffffffffffffffffffffffffffffffffff1673ffffffffffffffffffffffffffffffffffffffff1673ffffffffffffffffffffffffffffffffffffffff1681526020016002820160009054906101000a900473ffffffffffffffffffffffffffffffffffffffff1673ffffffffffffffffffffffffffffffffffffffff1673ffffffffffffffffffffffffffffffffffffffff1681526020016003820160009054906101000a900473ffffffffffffffffffffffffffffffffffffffff1673ffffffffffffffffffffffffffffffffffffffff1673ffffffffffffffffffffffffffffffffffffffff1681526020016004820160009054906101000a900473ffffffffffffffffffffffffffffffffffffffff1673ffffffffffffffffffffffffffffffffffffffff1673ffffffffffffffffffffffffffffffffffffffff1681526020016005820154815260200160068201548152602001600782015481526020016008820160009054906101000a900460ff161515151581526020016008820160019054906101000a900460ff161515151581526020016008820160029054906101000a900460ff1615151515815260200160098201548152505083858151811061364257613641615474565b5b602002602001018190525060018461365a91906153f8565b9350505b80806136699061542c565b915050613350565b508094505050505090565b613684613ae5565b600073ffffffffffffffffffffffffffffffffffffffff168173ffffffffffffffffffffffffffffffffffffffff16036136f3576040517f08c379a00000000000000000000000000000000000000000000000000000000081526004016136ea9061570d565b60405180910390fd5b6136fc81613bc6565b50565b60008060019054906101000a900460ff161590508080156137305750600160008054906101000a900460ff1660ff16105b8061375d575061373f30613cef565b15801561375c5750600160008054906101000a900460ff1660ff16145b5b61379c576040517f08c379a00000000000000000000000000000000000000000000000000000000081526004016137939061579f565b60405180910390fd5b60016000806101000a81548160ff021916908360ff16021790555080156137d9576001600060016101000a81548160ff0219169083151502179055505b8161012f819055506137e9613d12565b6137f1613d6b565b6137f9613dc4565b3361012e60006101000a81548173ffffffffffffffffffffffffffffffffffffffff021916908373ffffffffffffffffffffffffffffffffffffffff16021790555080156138945760008060016101000a81548160ff0219169083151502179055507f7f26b83ff96e1f2b6a682f133852f6798a09c465da95921460cefb3847402498600160405161388b9190615807565b60405180910390a15b5050565b600260fb54036138dd576040517f08c379a00000000000000000000000000000000000000000000000000000000081526004016138d49061586e565b60405180910390fd5b600260fb81905550565b600160fb81905550565b6001816000016000828254019250508190555050565b600081600001549050919050565b60006139437f360894a13ba1a3210667c828492db98dca3e2076cc3735a920a3ca505d382bbc60001b613e15565b60000160009054906101000a900473ffffffffffffffffffffffffffffffffffffffff16905090565b613974613ae5565b50565b6139a37f4910fdfa16fed3260ed0e7147f7cc6da11a60208b5b9406d12a635614ffd914360001b613e1f565b60000160009054906101000a900460ff16156139c7576139c283613e29565b613ae0565b8273ffffffffffffffffffffffffffffffffffffffff166352d1902d6040518163ffffffff1660e01b8152600401602060405180830381865afa925050508015613a2f57506040513d601f19601f82011682018060405250810190613a2c91906158ba565b60015b613a6e576040517f08c379a0000000000000000000000000000000000000000000000000000000008152600401613a6590615959565b60405180910390fd5b7f360894a13ba1a3210667c828492db98dca3e2076cc3735a920a3ca505d382bbc60001b8114613ad3576040517f08c379a0000000000000000000000000000000000000000000000000000000008152600401613aca906159eb565b60405180910390fd5b50613adf838383613ee2565b5b505050565b613aed613f0e565b73ffffffffffffffffffffffffffffffffffffffff16613b0b61297c565b73ffffffffffffffffffffffffffffffffffffffff1614613b61576040517f08c379a0000000000000000000000000000000000000000000000000000000008152600401613b5890615a57565b60405180910390fd5b565b613b6b613f16565b6000603360006101000a81548160ff0219169083151502179055507f5db9ee0a495bf2e6ff9c91a7834c1ba4fdd244a5e8aa4e537bd38aeae4b073aa613baf613f0e565b604051613bbc9190614d2a565b60405180910390a1565b6000606560009054906101000a900473ffffffffffffffffffffffffffffffffffffffff16905081606560006101000a81548173ffffffffffffffffffffffffffffffffffffffff021916908373ffffffffffffffffffffffffffffffffffffffff1602179055508173ffffffffffffffffffffffffffffffffffffffff168173ffffffffffffffffffffffffffffffffffffffff167f8be0079c531659141344cd1fd0a4f28419497f9722a3daafe3b4186f6b6457e060405160405180910390a35050565b613c94613f5f565b6001603360006101000a81548160ff0219169083151502179055507f62e78cea01bee320cd4e420270b5ea74000d11b0c9f74754ebdbfc544b05a258613cd8613f0e565b604051613ce59190614d2a565b60405180910390a1565b6000808273ffffffffffffffffffffffffffffffffffffffff163b119050919050565b600060019054906101000a900460ff16613d61576040517f08c379a0000000000000000000000000000000000000000000000000000000008152600401613d5890615ae9565b60405180910390fd5b613d69613fa9565b565b600060019054906101000a900460ff16613dba576040517f08c379a0000000000000000000000000000000000000000000000000000000008152600401613db190615ae9565b60405180910390fd5b613dc2614015565b565b600060019054906101000a900460ff16613e13576040517f08c379a0000000000000000000000000000000000000000000000000000000008152600401613e0a90615ae9565b60405180910390fd5b565b6000819050919050565b6000819050919050565b613e3281613cef565b613e71576040517f08c379a0000000000000000000000000000000000000000000000000000000008152600401613e6890615b7b565b60405180910390fd5b80613e9e7f360894a13ba1a3210667c828492db98dca3e2076cc3735a920a3ca505d382bbc60001b613e15565b60000160006101000a81548173ffffffffffffffffffffffffffffffffffffffff021916908373ffffffffffffffffffffffffffffffffffffffff16021790555050565b613eeb83614076565b600082511180613ef85750805b15613f0957613f0783836140c5565b505b505050565b600033905090565b613f1e6121a6565b613f5d576040517f08c379a0000000000000000000000000000000000000000000000000000000008152600401613f5490615be7565b60405180910390fd5b565b613f676121a6565b15613fa7576040517f08c379a0000000000000000000000000000000000000000000000000000000008152600401613f9e90615c53565b60405180910390fd5b565b600060019054906101000a900460ff16613ff8576040517f08c379a0000000000000000000000000000000000000000000000000000000008152600401613fef90615ae9565b60405180910390fd5b6000603360006101000a81548160ff021916908315150217905550565b600060019054906101000a900460ff16614064576040517f08c379a000000000000000000000000000000000000000000000000000000000815260040161405b90615ae9565b60405180910390fd5b61407461406f613f0e565b613bc6565b565b61407f81613e29565b8073ffffffffffffffffffffffffffffffffffffffff167fbc7cd75a20ee27fd9adebab32041f755214dbc6bffa90cc0225b39da2e5c2d3b60405160405180910390a250565b60606140d083613cef565b61410f576040517f08c379a000000000000000000000000000000000000000000000000000000000815260040161410690615ce5565b60405180910390fd5b6000808473ffffffffffffffffffffffffffffffffffffffff16846040516141379190615d4c565b600060405180830381855af49150503d8060008114614172576040519150601f19603f3d011682016040523d82523d6000602084013e614177565b606091505b509150915061419f8282604051806060016040528060278152602001615d64602791396141a9565b9250505092915050565b606083156141b9578290506141c4565b6141c383836141cb565b5b9392505050565b6000825111156141de5781518083602001fd5b806040517f08c379a000000000000000000000000000000000000000000000000000000000815260040161421291906149f5565b60405180910390fd5b60405180610180016040528060008152602001600073ffffffffffffffffffffffffffffffffffffffff168152602001600073ffffffffffffffffffffffffffffffffffffffff168152602001600073ffffffffffffffffffffffffffffffffffffffff168152602001600073ffffffffffffffffffffffffffffffffffffffff168152602001600081526020016000815260200160008152602001600015158152602001600015158152602001600015158152602001600081525090565b60405180610180016040528060008152602001600073ffffffffffffffffffffffffffffffffffffffff168152602001600073ffffffffffffffffffffffffffffffffffffffff168152602001600073ffffffffffffffffffffffffffffffffffffffff168152602001600073ffffffffffffffffffffffffffffffffffffffff168152602001600081526020016000815260200160008152602001600015158152602001600015158152602001600015158152602001600081525090565b6000604051905090565b600080fd5b600080fd5b6000819050919050565b6143c0816143ad565b81146143cb57600080fd5b50565b6000813590506143dd816143b7565b92915050565b6000602082840312156143f9576143f86143a3565b5b6000614407848285016143ce565b91505092915050565b600073ffffffffffffffffffffffffffffffffffffffff82169050919050565b600061443b82614410565b9050919050565b61444b81614430565b811461445657600080fd5b50565b60008135905061446881614442565b92915050565b60008115159050919050565b6144838161446e565b811461448e57600080fd5b50565b6000813590506144a08161447a565b92915050565b60008060008060008060c087890312156144c3576144c26143a3565b5b60006144d189828a01614459565b96505060206144e289828a01614459565b95505060406144f389828a016143ce565b945050606061450489828a016143ce565b935050608061451589828a016143ce565b92505060a061452689828a01614491565b9150509295509295509295565b61453c816143ad565b82525050565b60006020820190506145576000830184614533565b92915050565b600060208284031215614573576145726143a3565b5b600061458184828501614459565b91505092915050565b600080fd5b600080fd5b6000601f19601f8301169050919050565b7f4e487b7100000000000000000000000000000000000000000000000000000000600052604160045260246000fd5b6145dd82614594565b810181811067ffffffffffffffff821117156145fc576145fb6145a5565b5b80604052505050565b600061460f614399565b905061461b82826145d4565b919050565b600067ffffffffffffffff82111561463b5761463a6145a5565b5b61464482614594565b9050602081019050919050565b82818337600083830152505050565b600061467361466e84614620565b614605565b90508281526020810184848401111561468f5761468e61458f565b5b61469a848285614651565b509392505050565b600082601f8301126146b7576146b661458a565b5b81356146c7848260208601614660565b91505092915050565b600080604083850312156146e7576146e66143a3565b5b60006146f585828601614459565b925050602083013567ffffffffffffffff811115614716576147156143a8565b5b614722858286016146a2565b9150509250929050565b600081519050919050565b600082825260208201905092915050565b6000819050602082019050919050565b614761816143ad565b82525050565b600061477282614410565b9050919050565b61478281614767565b82525050565b61479181614430565b82525050565b6147a08161446e565b82525050565b610180820160008201516147bd6000850182614758565b5060208201516147d06020850182614779565b5060408201516147e36040850182614779565b5060608201516147f66060850182614788565b5060808201516148096080850182614788565b5060a082015161481c60a0850182614758565b5060c082015161482f60c0850182614758565b5060e082015161484260e0850182614758565b50610100820151614857610100850182614797565b5061012082015161486c610120850182614797565b50610140820151614881610140850182614797565b50610160820151614896610160850182614758565b50505050565b60006148a883836147a6565b6101808301905092915050565b6000602082019050919050565b60006148cd8261472c565b6148d78185614737565b93506148e283614748565b8060005b838110156149135781516148fa888261489c565b9750614905836148b5565b9250506001810190506148e6565b5085935050505092915050565b6000602082019050818103600083015261493a81846148c2565b905092915050565b6000819050919050565b61495581614942565b82525050565b6000602082019050614970600083018461494c565b92915050565b600081519050919050565b600082825260208201905092915050565b60005b838110156149b0578082015181840152602081019050614995565b60008484015250505050565b60006149c782614976565b6149d18185614981565b93506149e1818560208601614992565b6149ea81614594565b840191505092915050565b60006020820190508181036000830152614a0f81846149bc565b905092915050565b600081519050919050565b600082825260208201905092915050565b6000819050602082019050919050565b61018082016000820151614a5a6000850182614758565b506020820151614a6d6020850182614779565b506040820151614a806040850182614779565b506060820151614a936060850182614788565b506080820151614aa66080850182614788565b5060a0820151614ab960a0850182614758565b5060c0820151614acc60c0850182614758565b5060e0820151614adf60e0850182614758565b50610100820151614af4610100850182614797565b50610120820151614b09610120850182614797565b50610140820151614b1e610140850182614797565b50610160820151614b33610160850182614758565b50505050565b6000614b458383614a43565b6101808301905092915050565b6000602082019050919050565b6000614b6a82614a17565b614b748185614a22565b9350614b7f83614a33565b8060005b83811015614bb0578151614b978882614b39565b9750614ba283614b52565b925050600181019050614b83565b5085935050505092915050565b60006020820190508181036000830152614bd78184614b5f565b905092915050565b614be88161446e565b82525050565b6000602082019050614c036000830184614bdf565b92915050565b61018082016000820151614c206000850182614758565b506020820151614c336020850182614779565b506040820151614c466040850182614779565b506060820151614c596060850182614788565b506080820151614c6c6080850182614788565b5060a0820151614c7f60a0850182614758565b5060c0820151614c9260c0850182614758565b5060e0820151614ca560e0850182614758565b50610100820151614cba610100850182614797565b50610120820151614ccf610120850182614797565b50610140820151614ce4610140850182614797565b50610160820151614cf9610160850182614758565b50505050565b600061018082019050614d156000830184614c09565b92915050565b614d2481614430565b82525050565b6000602082019050614d3f6000830184614d1b565b92915050565b61018082016000820151614d5c6000850182614758565b506020820151614d6f6020850182614779565b506040820151614d826040850182614779565b506060820151614d956060850182614788565b506080820151614da86080850182614788565b5060a0820151614dbb60a0850182614758565b5060c0820151614dce60c0850182614758565b5060e0820151614de160e0850182614758565b50610100820151614df6610100850182614797565b50610120820151614e0b610120850182614797565b50610140820151614e20610140850182614797565b50610160820151614e35610160850182614758565b50505050565b600061018082019050614e516000830184614d45565b92915050565b7f5468697320747261646520697320616c726561647920736f6c64210000000000600082015250565b6000614e8d601b83614981565b9150614e9882614e57565b602082019050919050565b60006020820190508181036000830152614ebc81614e80565b9050919050565b7f546869732074726164652069732063616e63656c6c6564210000000000000000600082015250565b6000614ef9601883614981565b9150614f0482614ec3565b602082019050919050565b60006020820190508181036000830152614f2881614eec565b9050919050565b7f54686520747261646520697320696e76616c6964210000000000000000000000600082015250565b6000614f65601583614981565b9150614f7082614f2f565b602082019050919050565b60006020820190508181036000830152614f9481614f58565b9050919050565b7f596f7520617265206e6f74207468652063726561746f72206f6620746869732060008201527f7472616465210000000000000000000000000000000000000000000000000000602082015250565b6000614ff7602683614981565b915061500282614f9b565b604082019050919050565b6000602082019050818103600083015261502681614fea565b9050919050565b60006060820190506150426000830186614d1b565b61504f6020830185614d1b565b61505c6040830184614533565b949350505050565b60006040820190506150796000830185614d1b565b6150866020830184614533565b9392505050565b60008151905061509c8161447a565b92915050565b6000602082840312156150b8576150b76143a3565b5b60006150c68482850161508d565b91505092915050565b7f596f7520646f6e2774206861766520656e6f75676820616d6f756e74206f662060008201527f6e617469766520746f6b656e7320746f20706179207468652066656573000000602082015250565b600061512b603d83614981565b9150615136826150cf565b604082019050919050565b6000602082019050818103600083015261515a8161511e565b9050919050565b60008151905061517081614442565b92915050565b60006020828403121561518c5761518b6143a3565b5b600061519a84828501615161565b91505092915050565b7f596f7520617265206e6f7420746865206f776e6572206f6620746865206e6674600082015250565b60006151d9602083614981565b91506151e4826151a3565b602082019050919050565b60006020820190508181036000830152615208816151cc565b9050919050565b6000819050919050565b600061523461522f61522a84614410565b61520f565b614410565b9050919050565b600061524682615219565b9050919050565b60006152588261523b565b9050919050565b6152688161524d565b82525050565b60006060820190506152836000830186614d1b565b615290602083018561525f565b61529d6040830184614533565b949350505050565b7f46756e6374696f6e206d7573742062652063616c6c6564207468726f7567682060008201527f64656c656761746563616c6c0000000000000000000000000000000000000000602082015250565b6000615301602c83614981565b915061530c826152a5565b604082019050919050565b60006020820190508181036000830152615330816152f4565b9050919050565b7f46756e6374696f6e206d7573742062652063616c6c6564207468726f7567682060008201527f6163746976652070726f78790000000000000000000000000000000000000000602082015250565b6000615393602c83614981565b915061539e82615337565b604082019050919050565b600060208201905081810360008301526153c281615386565b9050919050565b7f4e487b7100000000000000000000000000000000000000000000000000000000600052601160045260246000fd5b6000615403826143ad565b915061540e836143ad565b9250828201905080821115615426576154256153c9565b5b92915050565b6000615437826143ad565b91507fffffffffffffffffffffffffffffffffffffffffffffffffffffffffffffffff8203615469576154686153c9565b5b600182019050919050565b7f4e487b7100000000000000000000000000000000000000000000000000000000600052603260045260246000fd5b7f555550535570677261646561626c653a206d757374206e6f742062652063616c60008201527f6c6564207468726f7567682064656c656761746563616c6c0000000000000000602082015250565b60006154ff603883614981565b915061550a826154a3565b604082019050919050565b6000602082019050818103600083015261552e816154f2565b9050919050565b600081519050615544816143b7565b92915050565b6000602082840312156155605761555f6143a3565b5b600061556e84828501615535565b91505092915050565b7f596f7520646f6e277420686176652074686520656e6f7567682066756e64732060008201527f746f2065786368616e6765210000000000000000000000000000000000000000602082015250565b60006155d3602c83614981565b91506155de82615577565b604082019050919050565b60006020820190508181036000830152615602816155c6565b9050919050565b7f4f6e6c79206f776e657220697320616c6c6f77656420746f20646f207468697360008201527f20616374696f6e00000000000000000000000000000000000000000000000000602082015250565b6000615665602783614981565b915061567082615609565b604082019050919050565b6000602082019050818103600083015261569481615658565b9050919050565b7f4f776e61626c653a206e6577206f776e657220697320746865207a65726f206160008201527f6464726573730000000000000000000000000000000000000000000000000000602082015250565b60006156f7602683614981565b91506157028261569b565b604082019050919050565b60006020820190508181036000830152615726816156ea565b9050919050565b7f496e697469616c697a61626c653a20636f6e747261637420697320616c72656160008201527f647920696e697469616c697a6564000000000000000000000000000000000000602082015250565b6000615789602e83614981565b91506157948261572d565b604082019050919050565b600060208201905081810360008301526157b88161577c565b9050919050565b6000819050919050565b600060ff82169050919050565b60006157f16157ec6157e7846157bf565b61520f565b6157c9565b9050919050565b615801816157d6565b82525050565b600060208201905061581c60008301846157f8565b92915050565b7f5265656e7472616e637947756172643a207265656e7472616e742063616c6c00600082015250565b6000615858601f83614981565b915061586382615822565b602082019050919050565b600060208201905081810360008301526158878161584b565b9050919050565b61589781614942565b81146158a257600080fd5b50565b6000815190506158b48161588e565b92915050565b6000602082840312156158d0576158cf6143a3565b5b60006158de848285016158a5565b91505092915050565b7f45524331393637557067726164653a206e657720696d706c656d656e7461746960008201527f6f6e206973206e6f742055555053000000000000000000000000000000000000602082015250565b6000615943602e83614981565b915061594e826158e7565b604082019050919050565b6000602082019050818103600083015261597281615936565b9050919050565b7f45524331393637557067726164653a20756e737570706f727465642070726f7860008201527f6961626c65555549440000000000000000000000000000000000000000000000602082015250565b60006159d5602983614981565b91506159e082615979565b604082019050919050565b60006020820190508181036000830152615a04816159c8565b9050919050565b7f4f776e61626c653a2063616c6c6572206973206e6f7420746865206f776e6572600082015250565b6000615a41602083614981565b9150615a4c82615a0b565b602082019050919050565b60006020820190508181036000830152615a7081615a34565b9050919050565b7f496e697469616c697a61626c653a20636f6e7472616374206973206e6f74206960008201527f6e697469616c697a696e67000000000000000000000000000000000000000000602082015250565b6000615ad3602b83614981565b9150615ade82615a77565b604082019050919050565b60006020820190508181036000830152615b0281615ac6565b9050919050565b7f455243313936373a206e657720696d706c656d656e746174696f6e206973206e60008201527f6f74206120636f6e747261637400000000000000000000000000000000000000602082015250565b6000615b65602d83614981565b9150615b7082615b09565b604082019050919050565b60006020820190508181036000830152615b9481615b58565b9050919050565b7f5061757361626c653a206e6f7420706175736564000000000000000000000000600082015250565b6000615bd1601483614981565b9150615bdc82615b9b565b602082019050919050565b60006020820190508181036000830152615c0081615bc4565b9050919050565b7f5061757361626c653a2070617573656400000000000000000000000000000000600082015250565b6000615c3d601083614981565b9150615c4882615c07565b602082019050919050565b60006020820190508181036000830152615c6c81615c30565b9050919050565b7f416464726573733a2064656c65676174652063616c6c20746f206e6f6e2d636f60008201527f6e74726163740000000000000000000000000000000000000000000000000000602082015250565b6000615ccf602683614981565b9150615cda82615c73565b604082019050919050565b60006020820190508181036000830152615cfe81615cc2565b9050919050565b600081519050919050565b600081905092915050565b6000615d2682615d05565b615d308185615d10565b9350615d40818560208601614992565b80840191505092915050565b6000615d588284615d1b565b91508190509291505056fe416464726573733a206c6f772d6c6576656c2064656c65676174652063616c6c206661696c6564a264697066735822122063b9de5662719f77a3083c3944a1e581ec04ea42b0649f7aee169d0efbb8d2ca64736f6c63430008110033",
  "linkReferences": {},
  "deployedLinkReferences": {}
}