{
  "_format": "hh-sol-artifact-1",
  "contractName": "MikosavaOTC_V220",
  "sourceName": "contracts/MikosavaOTC_V220.sol",
  "abi": [
    {
      "inputs": [],
      "stateMutability": "nonpayable",
      "type": "constructor"
    },
    {
      "anonymous": false,
      "inputs": [
        {
          "indexed": false,
          "internalType": "address",
          "name": "previousAdmin",
          "type": "address"
        },
        {
          "indexed": false,
          "internalType": "address",
          "name": "newAdmin",
          "type": "address"
        }
      ],
      "name": "AdminChanged",
      "type": "event"
    },
    {
      "anonymous": false,
      "inputs": [
        {
          "indexed": true,
          "internalType": "address",
          "name": "beacon",
          "type": "address"
        }
      ],
      "name": "BeaconUpgraded",
      "type": "event"
    },
    {
      "anonymous": false,
      "inputs": [
        {
          "indexed": false,
          "internalType": "uint8",
          "name": "version",
          "type": "uint8"
        }
      ],
      "name": "Initialized",
      "type": "event"
    },
    {
      "anonymous": false,
      "inputs": [
        {
          "indexed": true,
          "internalType": "address",
          "name": "previousOwner",
          "type": "address"
        },
        {
          "indexed": true,
          "internalType": "address",
          "name": "newOwner",
          "type": "address"
        }
      ],
      "name": "OwnershipTransferred",
      "type": "event"
    },
    {
      "anonymous": false,
      "inputs": [
        {
          "indexed": false,
          "internalType": "address",
          "name": "account",
          "type": "address"
        }
      ],
      "name": "Paused",
      "type": "event"
    },
    {
      "anonymous": false,
      "inputs": [
        {
          "indexed": false,
          "internalType": "address",
          "name": "account",
          "type": "address"
        }
      ],
      "name": "Unpaused",
      "type": "event"
    },
    {
      "anonymous": false,
      "inputs": [
        {
          "indexed": true,
          "internalType": "address",
          "name": "implementation",
          "type": "address"
        }
      ],
      "name": "Upgraded",
      "type": "event"
    },
    {
      "inputs": [
        {
          "internalType": "uint256",
          "name": "coinTradePositionId",
          "type": "uint256"
        }
      ],
      "name": "cancellOTCCPosition",
      "outputs": [],
      "stateMutability": "payable",
      "type": "function"
    },
    {
      "inputs": [
        {
          "internalType": "uint256",
          "name": "nftTradePositionId",
          "type": "uint256"
        }
      ],
      "name": "cancellOTCNPosition",
      "outputs": [],
      "stateMutability": "payable",
      "type": "function"
    },
    {
      "inputs": [
        {
          "internalType": "uint256",
          "name": "coinTradePositionId",
          "type": "uint256"
        }
      ],
      "name": "closeOTCCPosition",
      "outputs": [],
      "stateMutability": "payable",
      "type": "function"
    },
    {
      "inputs": [
        {
          "internalType": "uint256",
          "name": "nftTradePositionId",
          "type": "uint256"
        }
      ],
      "name": "closeOTCNPosition",
      "outputs": [],
      "stateMutability": "payable",
      "type": "function"
    },
    {
      "inputs": [
        {
          "internalType": "address",
          "name": "coinAAddress",
          "type": "address"
        },
        {
          "internalType": "address",
          "name": "coinBAddress",
          "type": "address"
        },
        {
          "internalType": "uint256",
          "name": "amountCoinA",
          "type": "uint256"
        },
        {
          "internalType": "uint256",
          "name": "amountCoinB",
          "type": "uint256"
        },
        {
          "internalType": "uint256",
          "name": "validUntil",
          "type": "uint256"
        },
        {
          "internalType": "bool",
          "name": "isPublic",
          "type": "bool"
        }
      ],
      "name": "createOTCCPosition",
      "outputs": [],
      "stateMutability": "payable",
      "type": "function"
    },
    {
      "inputs": [
        {
          "internalType": "address",
          "name": "nftCollectionAddressA",
          "type": "address"
        },
        {
          "internalType": "address",
          "name": "nftCollectionAddressB",
          "type": "address"
        },
        {
          "internalType": "uint256",
          "name": "nftIdA",
          "type": "uint256"
        },
        {
          "internalType": "uint256",
          "name": "nftIdB",
          "type": "uint256"
        },
        {
          "internalType": "uint256",
          "name": "validUntil",
          "type": "uint256"
        },
        {
          "internalType": "bool",
          "name": "isPublic",
          "type": "bool"
        }
      ],
      "name": "createOTCNPosition",
      "outputs": [],
      "stateMutability": "payable",
      "type": "function"
    },
    {
      "inputs": [
        {
          "internalType": "uint256",
          "name": "tradeId",
          "type": "uint256"
        }
      ],
      "name": "fetchCoinTradeById",
      "outputs": [
        {
          "components": [
            {
              "internalType": "uint256",
              "name": "tradeId",
              "type": "uint256"
            },
            {
              "internalType": "address payable",
              "name": "creator",
              "type": "address"
            },
            {
              "internalType": "address payable",
              "name": "counterpart",
              "type": "address"
            },
            {
              "internalType": "address",
              "name": "coinCreator",
              "type": "address"
            },
            {
              "internalType": "address",
              "name": "coinCounterpart",
              "type": "address"
            },
            {
              "internalType": "uint256",
              "name": "amountPositionCreator",
              "type": "uint256"
            },
            {
              "internalType": "uint256",
              "name": "amountPositionCounterpart",
              "type": "uint256"
            },
            {
              "internalType": "uint256",
              "name": "validUntil",
              "type": "uint256"
            },
            {
              "internalType": "bool",
              "name": "sold",
              "type": "bool"
            },
            {
              "internalType": "bool",
              "name": "cancelled",
              "type": "bool"
            },
            {
              "internalType": "bool",
              "name": "publicTrade",
              "type": "bool"
            }
          ],
          "internalType": "struct MikosavaOTC_V220.OTCCTrade",
          "name": "",
          "type": "tuple"
        }
      ],
      "stateMutability": "view",
      "type": "function"
    },
    {
      "inputs": [],
      "name": "fetchMyCoinTrades",
      "outputs": [
        {
          "components": [
            {
              "internalType": "uint256",
              "name": "tradeId",
              "type": "uint256"
            },
            {
              "internalType": "address payable",
              "name": "creator",
              "type": "address"
            },
            {
              "internalType": "address payable",
              "name": "counterpart",
              "type": "address"
            },
            {
              "internalType": "address",
              "name": "coinCreator",
              "type": "address"
            },
            {
              "internalType": "address",
              "name": "coinCounterpart",
              "type": "address"
            },
            {
              "internalType": "uint256",
              "name": "amountPositionCreator",
              "type": "uint256"
            },
            {
              "internalType": "uint256",
              "name": "amountPositionCounterpart",
              "type": "uint256"
            },
            {
              "internalType": "uint256",
              "name": "validUntil",
              "type": "uint256"
            },
            {
              "internalType": "bool",
              "name": "sold",
              "type": "bool"
            },
            {
              "internalType": "bool",
              "name": "cancelled",
              "type": "bool"
            },
            {
              "internalType": "bool",
              "name": "publicTrade",
              "type": "bool"
            }
          ],
          "internalType": "struct MikosavaOTC_V220.OTCCTrade[]",
          "name": "",
          "type": "tuple[]"
        }
      ],
      "stateMutability": "view",
      "type": "function"
    },
    {
      "inputs": [],
      "name": "fetchMyNftTrades",
      "outputs": [
        {
          "components": [
            {
              "internalType": "uint256",
              "name": "tradeId",
              "type": "uint256"
            },
            {
              "internalType": "address payable",
              "name": "creator",
              "type": "address"
            },
            {
              "internalType": "address payable",
              "name": "counterpart",
              "type": "address"
            },
            {
              "internalType": "address",
              "name": "nftAddressA",
              "type": "address"
            },
            {
              "internalType": "address",
              "name": "nftAddressB",
              "type": "address"
            },
            {
              "internalType": "uint256",
              "name": "nftIdA",
              "type": "uint256"
            },
            {
              "internalType": "uint256",
              "name": "nftIdB",
              "type": "uint256"
            },
            {
              "internalType": "uint256",
              "name": "validUntil",
              "type": "uint256"
            },
            {
              "internalType": "bool",
              "name": "sold",
              "type": "bool"
            },
            {
              "internalType": "bool",
              "name": "cancelled",
              "type": "bool"
            },
            {
              "internalType": "bool",
              "name": "publicTrade",
              "type": "bool"
            }
          ],
          "internalType": "struct MikosavaOTC_V220.OTCCNFT[]",
          "name": "",
          "type": "tuple[]"
        }
      ],
      "stateMutability": "view",
      "type": "function"
    },
    {
      "inputs": [
        {
          "internalType": "uint256",
          "name": "tradeId",
          "type": "uint256"
        }
      ],
      "name": "fetchNftTradeById",
      "outputs": [
        {
          "components": [
            {
              "internalType": "uint256",
              "name": "tradeId",
              "type": "uint256"
            },
            {
              "internalType": "address payable",
              "name": "creator",
              "type": "address"
            },
            {
              "internalType": "address payable",
              "name": "counterpart",
              "type": "address"
            },
            {
              "internalType": "address",
              "name": "nftAddressA",
              "type": "address"
            },
            {
              "internalType": "address",
              "name": "nftAddressB",
              "type": "address"
            },
            {
              "internalType": "uint256",
              "name": "nftIdA",
              "type": "uint256"
            },
            {
              "internalType": "uint256",
              "name": "nftIdB",
              "type": "uint256"
            },
            {
              "internalType": "uint256",
              "name": "validUntil",
              "type": "uint256"
            },
            {
              "internalType": "bool",
              "name": "sold",
              "type": "bool"
            },
            {
              "internalType": "bool",
              "name": "cancelled",
              "type": "bool"
            },
            {
              "internalType": "bool",
              "name": "publicTrade",
              "type": "bool"
            }
          ],
          "internalType": "struct MikosavaOTC_V220.OTCCNFT",
          "name": "",
          "type": "tuple"
        }
      ],
      "stateMutability": "view",
      "type": "function"
    },
    {
      "inputs": [],
      "name": "getCoinFee",
      "outputs": [
        {
          "internalType": "uint256",
          "name": "",
          "type": "uint256"
        }
      ],
      "stateMutability": "view",
      "type": "function"
    },
    {
      "inputs": [
        {
          "internalType": "uint256",
          "name": "coinFeeParam",
          "type": "uint256"
        }
      ],
      "name": "initialize",
      "outputs": [],
      "stateMutability": "nonpayable",
      "type": "function"
    },
    {
      "inputs": [],
      "name": "owner",
      "outputs": [
        {
          "internalType": "address",
          "name": "",
          "type": "address"
        }
      ],
      "stateMutability": "view",
      "type": "function"
    },
    {
      "inputs": [],
      "name": "pause",
      "outputs": [],
      "stateMutability": "nonpayable",
      "type": "function"
    },
    {
      "inputs": [],
      "name": "paused",
      "outputs": [
        {
          "internalType": "bool",
          "name": "",
          "type": "bool"
        }
      ],
      "stateMutability": "view",
      "type": "function"
    },
    {
      "inputs": [],
      "name": "proxiableUUID",
      "outputs": [
        {
          "internalType": "bytes32",
          "name": "",
          "type": "bytes32"
        }
      ],
      "stateMutability": "view",
      "type": "function"
    },
    {
      "inputs": [],
      "name": "renounceOwnership",
      "outputs": [],
      "stateMutability": "nonpayable",
      "type": "function"
    },
    {
      "inputs": [
        {
          "internalType": "uint256",
          "name": "newCoinFee",
          "type": "uint256"
        }
      ],
      "name": "setCoinFee",
      "outputs": [],
      "stateMutability": "nonpayable",
      "type": "function"
    },
    {
      "inputs": [
        {
          "internalType": "address",
          "name": "newOwner",
          "type": "address"
        }
      ],
      "name": "transferOwnership",
      "outputs": [],
      "stateMutability": "nonpayable",
      "type": "function"
    },
    {
      "inputs": [],
      "name": "unpause",
      "outputs": [],
      "stateMutability": "nonpayable",
      "type": "function"
    },
    {
      "inputs": [
        {
          "internalType": "address",
          "name": "newImplementation",
          "type": "address"
        }
      ],
      "name": "upgradeTo",
      "outputs": [],
      "stateMutability": "nonpayable",
      "type": "function"
    },
    {
      "inputs": [
        {
          "internalType": "address",
          "name": "newImplementation",
          "type": "address"
        },
        {
          "internalType": "bytes",
          "name": "data",
          "type": "bytes"
        }
      ],
      "name": "upgradeToAndCall",
      "outputs": [],
      "stateMutability": "payable",
      "type": "function"
    },
    {
      "inputs": [],
      "name": "version",
      "outputs": [
        {
          "internalType": "string",
          "name": "",
          "type": "string"
        }
      ],
      "stateMutability": "pure",
      "type": "function"
    }
  ],
  "bytecode": "0x60a06040523073ffffffffffffffffffffffffffffffffffffffff1660809073ffffffffffffffffffffffffffffffffffffffff168152503480156200004457600080fd5b50620000556200005b60201b60201c565b62000206565b600060019054906101000a900460ff1615620000ae576040517f08c379a0000000000000000000000000000000000000000000000000000000008152600401620000a590620001a9565b60405180910390fd5b60ff801660008054906101000a900460ff1660ff161015620001205760ff6000806101000a81548160ff021916908360ff1602179055507f7f26b83ff96e1f2b6a682f133852f6798a09c465da95921460cefb384740249860ff604051620001179190620001e9565b60405180910390a15b565b600082825260208201905092915050565b7f496e697469616c697a61626c653a20636f6e747261637420697320696e69746960008201527f616c697a696e6700000000000000000000000000000000000000000000000000602082015250565b60006200019160278362000122565b91506200019e8262000133565b604082019050919050565b60006020820190508181036000830152620001c48162000182565b9050919050565b600060ff82169050919050565b620001e381620001cb565b82525050565b6000602082019050620002006000830184620001d8565b92915050565b60805161560c6200023e600039600081816112f2015281816113800152818161148c0152818161151a01526115ca015261560c6000f3fe6080604052600436106101405760003560e01c80635c975abb116100b65780639096e50c1161006f5780639096e50c1461039a578063a2f52f50146103d7578063d6d45e01146103f3578063e134c2bb1461041c578063f2fde38b14610447578063fe4b84df1461047057610140565b80635c975abb146102ae5780636787be42146102d9578063715018a6146103165780638456cb591461032d578063883f8a81146103445780638da5cb5b1461036f57610140565b80633659cfe6116101085780633659cfe6146101e05780633f4ba83a146102095780634f1ef2861461022057806352d1902d1461023c57806354fd4d501461026757806358f56fd41461029257610140565b806308dd894f1461014557806317bc566f146101615780631ec547741461017d5780631fa1bad814610199578063280d7ae4146101b5575b600080fd5b61015f600480360381019061015a9190613c83565b610499565b005b61017b60048036038101906101769190613c83565b610784565b005b61019760048036038101906101929190613d46565b610a7f565b005b6101b360048036038101906101ae9190613c83565b610e51565b005b3480156101c157600080fd5b506101ca6112e5565b6040516101d79190613de2565b60405180910390f35b3480156101ec57600080fd5b5061020760048036038101906102029190613dfd565b6112f0565b005b34801561021557600080fd5b5061021e611478565b005b61023a60048036038101906102359190613f70565b61148a565b005b34801561024857600080fd5b506102516115c6565b60405161025e9190613fe5565b60405180910390f35b34801561027357600080fd5b5061027c61167f565b604051610289919061407f565b60405180910390f35b6102ac60048036038101906102a79190613d46565b6116bc565b005b3480156102ba57600080fd5b506102c3611a7c565b6040516102d091906140b0565b60405180910390f35b3480156102e557600080fd5b5061030060048036038101906102fb9190613c83565b611a93565b60405161030d91906141fa565b60405180910390f35b34801561032257600080fd5b5061032b611d79565b005b34801561033957600080fd5b50610342611d8d565b005b34801561035057600080fd5b50610359611d9f565b60405161036691906143a7565b60405180910390f35b34801561037b57600080fd5b5061038461223e565b60405161039191906143d8565b60405180910390f35b3480156103a657600080fd5b506103c160048036038101906103bc9190613c83565b612268565b6040516103ce91906144d4565b60405180910390f35b6103f160048036038101906103ec9190613c83565b61254e565b005b3480156103ff57600080fd5b5061041a60048036038101906104159190613c83565b6129df565b005b34801561042857600080fd5b50610431612a8b565b60405161043e9190614681565b60405180910390f35b34801561045357600080fd5b5061046e60048036038101906104699190613dfd565b612f2a565b005b34801561047c57600080fd5b5061049760048036038101906104929190613c83565b612fad565b005b6104a1613146565b610132600082815260200190815260200160002060080160009054906101000a900460ff16610132600083815260200190815260200160002060080160019054906101000a900460ff16610132600084815260200190815260200160002060070154600015158315151461054a576040517f08c379a0000000000000000000000000000000000000000000000000000000008152600401610541906146ef565b60405180910390fd5b6000151582151514610591576040517f08c379a00000000000000000000000000000000000000000000000000000000081526004016105889061475b565b60405180910390fd5b60008111156105de57804211156105dd576040517f08c379a00000000000000000000000000000000000000000000000000000000081526004016105d4906147c7565b60405180910390fd5b5b3373ffffffffffffffffffffffffffffffffffffffff16610132600086815260200190815260200160002060010160009054906101000a900473ffffffffffffffffffffffffffffffffffffffff1673ffffffffffffffffffffffffffffffffffffffff1614610683576040517f08c379a000000000000000000000000000000000000000000000000000000000815260040161067a90614859565b60405180910390fd5b6000610132600086815260200190815260200160002060030160009054906101000a900473ffffffffffffffffffffffffffffffffffffffff1690508073ffffffffffffffffffffffffffffffffffffffff166323b872dd303361013260008a8152602001908152602001600020600501546040518463ffffffff1660e01b815260040161071393929190614879565b600060405180830381600087803b15801561072d57600080fd5b505af1158015610741573d6000803e3d6000fd5b505050506001610132600087815260200190815260200160002060080160016101000a81548160ff02191690831515021790555050505050610781613195565b50565b61078c613146565b610131600082815260200190815260200160002060080160009054906101000a900460ff16610131600083815260200190815260200160002060080160019054906101000a900460ff166101316000848152602001908152602001600020600701546000151583151514610835576040517f08c379a000000000000000000000000000000000000000000000000000000000815260040161082c906146ef565b60405180910390fd5b600015158215151461087c576040517f08c379a00000000000000000000000000000000000000000000000000000000081526004016108739061475b565b60405180910390fd5b60008111156108c957804211156108c8576040517f08c379a00000000000000000000000000000000000000000000000000000000081526004016108bf906147c7565b60405180910390fd5b5b3373ffffffffffffffffffffffffffffffffffffffff16610131600086815260200190815260200160002060010160009054906101000a900473ffffffffffffffffffffffffffffffffffffffff1673ffffffffffffffffffffffffffffffffffffffff161461096e576040517f08c379a000000000000000000000000000000000000000000000000000000000815260040161096590614859565b60405180910390fd5b6000610131600086815260200190815260200160002060030160009054906101000a900473ffffffffffffffffffffffffffffffffffffffff1690508073ffffffffffffffffffffffffffffffffffffffff1663a9059cbb336101316000898152602001908152602001600020600501546040518363ffffffff1660e01b81526004016109fc9291906148b0565b6020604051808303816000875af1158015610a1b573d6000803e3d6000fd5b505050506040513d601f19601f82011682018060405250810190610a3f91906148ee565b506001610131600087815260200190815260200160002060080160016101000a81548160ff02191690831515021790555050505050610a7c613195565b50565b610a87613146565b61013054341015610acd576040517f08c379a0000000000000000000000000000000000000000000000000000000008152600401610ac49061498d565b60405180910390fd5b610ad861012d61319f565b6000610ae561012d6131b5565b90506040518061016001604052808281526020013373ffffffffffffffffffffffffffffffffffffffff168152602001600073ffffffffffffffffffffffffffffffffffffffff1681526020018873ffffffffffffffffffffffffffffffffffffffff1681526020018773ffffffffffffffffffffffffffffffffffffffff16815260200186815260200185815260200184815260200160001515815260200160001515815260200183151581525061013160008381526020019081526020016000206000820151816000015560208201518160010160006101000a81548173ffffffffffffffffffffffffffffffffffffffff021916908373ffffffffffffffffffffffffffffffffffffffff16021790555060408201518160020160006101000a81548173ffffffffffffffffffffffffffffffffffffffff021916908373ffffffffffffffffffffffffffffffffffffffff16021790555060608201518160030160006101000a81548173ffffffffffffffffffffffffffffffffffffffff021916908373ffffffffffffffffffffffffffffffffffffffff16021790555060808201518160040160006101000a81548173ffffffffffffffffffffffffffffffffffffffff021916908373ffffffffffffffffffffffffffffffffffffffff16021790555060a0820151816005015560c0820151816006015560e082015181600701556101008201518160080160006101000a81548160ff0219169083151502179055506101208201518160080160016101000a81548160ff0219169083151502179055506101408201518160080160026101000a81548160ff0219169083151502179055509050508673ffffffffffffffffffffffffffffffffffffffff166323b872dd3330886040518463ffffffff1660e01b8152600401610d8f93929190614879565b6020604051808303816000875af1158015610dae573d6000803e3d6000fd5b505050506040513d601f19601f82011682018060405250810190610dd291906148ee565b5061012f60009054906101000a900473ffffffffffffffffffffffffffffffffffffffff1673ffffffffffffffffffffffffffffffffffffffff166108fc610130549081150290604051600060405180830381858888f19350505050158015610e3f573d6000803e3d6000fd5b5050610e49613195565b505050505050565b610e59613146565b610132600082815260200190815260200160002060080160009054906101000a900460ff16610132600083815260200190815260200160002060080160019054906101000a900460ff166101326000848152602001908152602001600020600701546000151583151514610f02576040517f08c379a0000000000000000000000000000000000000000000000000000000008152600401610ef9906146ef565b60405180910390fd5b6000151582151514610f49576040517f08c379a0000000000000000000000000000000000000000000000000000000008152600401610f409061475b565b60405180910390fd5b6000811115610f965780421115610f95576040517f08c379a0000000000000000000000000000000000000000000000000000000008152600401610f8c906147c7565b60405180910390fd5b5b6000610132600086815260200190815260200160002060040160009054906101000a900473ffffffffffffffffffffffffffffffffffffffff1690508073ffffffffffffffffffffffffffffffffffffffff16636352211e6101326000888152602001908152602001600020600601546040518263ffffffff1660e01b81526004016110229190613de2565b602060405180830381865afa15801561103f573d6000803e3d6000fd5b505050506040513d601f19601f8201168201806040525081019061106391906149c2565b73ffffffffffffffffffffffffffffffffffffffff163373ffffffffffffffffffffffffffffffffffffffff16146110d0576040517f08c379a00000000000000000000000000000000000000000000000000000000081526004016110c790614a3b565b60405180910390fd5b8073ffffffffffffffffffffffffffffffffffffffff166323b872dd33610132600089815260200190815260200160002060010160009054906101000a900473ffffffffffffffffffffffffffffffffffffffff1661013260008a8152602001908152602001600020600601546040518463ffffffff1660e01b815260040161115b93929190614aba565b600060405180830381600087803b15801561117557600080fd5b505af1158015611189573d6000803e3d6000fd5b505050506000610132600087815260200190815260200160002060030160009054906101000a900473ffffffffffffffffffffffffffffffffffffffff1690508073ffffffffffffffffffffffffffffffffffffffff166323b872dd303361013260008b8152602001908152602001600020600501546040518463ffffffff1660e01b815260040161121d93929190614879565b600060405180830381600087803b15801561123757600080fd5b505af115801561124b573d6000803e3d6000fd5b5050505033610132600088815260200190815260200160002060020160006101000a81548173ffffffffffffffffffffffffffffffffffffffff021916908373ffffffffffffffffffffffffffffffffffffffff1602179055506001610132600088815260200190815260200160002060080160006101000a81548160ff02191690831515021790555050505050506112e2613195565b50565b600061013054905090565b7f000000000000000000000000000000000000000000000000000000000000000073ffffffffffffffffffffffffffffffffffffffff163073ffffffffffffffffffffffffffffffffffffffff160361137e576040517f08c379a000000000000000000000000000000000000000000000000000000000815260040161137590614b63565b60405180910390fd5b7f000000000000000000000000000000000000000000000000000000000000000073ffffffffffffffffffffffffffffffffffffffff166113bd6131c3565b73ffffffffffffffffffffffffffffffffffffffff1614611413576040517f08c379a000000000000000000000000000000000000000000000000000000000815260040161140a90614bf5565b60405180910390fd5b61141c8161321a565b61147581600067ffffffffffffffff81111561143b5761143a613e45565b5b6040519080825280601f01601f19166020018201604052801561146d5781602001600182028036833780820191505090505b506000613225565b50565b611480613393565b611488613411565b565b7f000000000000000000000000000000000000000000000000000000000000000073ffffffffffffffffffffffffffffffffffffffff163073ffffffffffffffffffffffffffffffffffffffff1603611518576040517f08c379a000000000000000000000000000000000000000000000000000000000815260040161150f90614b63565b60405180910390fd5b7f000000000000000000000000000000000000000000000000000000000000000073ffffffffffffffffffffffffffffffffffffffff166115576131c3565b73ffffffffffffffffffffffffffffffffffffffff16146115ad576040517f08c379a00000000000000000000000000000000000000000000000000000000081526004016115a490614bf5565b60405180910390fd5b6115b68261321a565b6115c282826001613225565b5050565b60007f000000000000000000000000000000000000000000000000000000000000000073ffffffffffffffffffffffffffffffffffffffff163073ffffffffffffffffffffffffffffffffffffffff1614611656576040517f08c379a000000000000000000000000000000000000000000000000000000000815260040161164d90614c87565b60405180910390fd5b7f360894a13ba1a3210667c828492db98dca3e2076cc3735a920a3ca505d382bbc60001b905090565b60606040518060400160405280600581526020017f322e322e30000000000000000000000000000000000000000000000000000000815250905090565b6116c4613146565b6101305434101561170a576040517f08c379a00000000000000000000000000000000000000000000000000000000081526004016117019061498d565b60405180910390fd5b61171561012e61319f565b600061172261012e6131b5565b90506040518061016001604052808281526020013373ffffffffffffffffffffffffffffffffffffffff168152602001600073ffffffffffffffffffffffffffffffffffffffff1681526020018873ffffffffffffffffffffffffffffffffffffffff1681526020018773ffffffffffffffffffffffffffffffffffffffff16815260200186815260200185815260200184815260200160001515815260200160001515815260200183151581525061013260008381526020019081526020016000206000820151816000015560208201518160010160006101000a81548173ffffffffffffffffffffffffffffffffffffffff021916908373ffffffffffffffffffffffffffffffffffffffff16021790555060408201518160020160006101000a81548173ffffffffffffffffffffffffffffffffffffffff021916908373ffffffffffffffffffffffffffffffffffffffff16021790555060608201518160030160006101000a81548173ffffffffffffffffffffffffffffffffffffffff021916908373ffffffffffffffffffffffffffffffffffffffff16021790555060808201518160040160006101000a81548173ffffffffffffffffffffffffffffffffffffffff021916908373ffffffffffffffffffffffffffffffffffffffff16021790555060a0820151816005015560c0820151816006015560e082015181600701556101008201518160080160006101000a81548160ff0219169083151502179055506101208201518160080160016101000a81548160ff0219169083151502179055506101408201518160080160026101000a81548160ff0219169083151502179055509050508673ffffffffffffffffffffffffffffffffffffffff166323b872dd3330886040518463ffffffff1660e01b81526004016119cc93929190614879565b600060405180830381600087803b1580156119e657600080fd5b505af11580156119fa573d6000803e3d6000fd5b5050505061012f60009054906101000a900473ffffffffffffffffffffffffffffffffffffffff1673ffffffffffffffffffffffffffffffffffffffff166108fc610130549081150290604051600060405180830381858888f19350505050158015611a6a573d6000803e3d6000fd5b5050611a74613195565b505050505050565b6000603360009054906101000a900460ff16905090565b611a9b613ac9565b6000600167ffffffffffffffff811115611ab857611ab7613e45565b5b604051908082528060200260200182016040528015611af157816020015b611ade613ac9565b815260200190600190039081611ad65790505b5090506000611b0161012d6131b5565b90506000600190505b818111611d53578461013160008381526020019081526020016000206000015403611d4057610131600082815260200190815260200160002060405180610160016040529081600082015481526020016001820160009054906101000a900473ffffffffffffffffffffffffffffffffffffffff1673ffffffffffffffffffffffffffffffffffffffff1673ffffffffffffffffffffffffffffffffffffffff1681526020016002820160009054906101000a900473ffffffffffffffffffffffffffffffffffffffff1673ffffffffffffffffffffffffffffffffffffffff1673ffffffffffffffffffffffffffffffffffffffff1681526020016003820160009054906101000a900473ffffffffffffffffffffffffffffffffffffffff1673ffffffffffffffffffffffffffffffffffffffff1673ffffffffffffffffffffffffffffffffffffffff1681526020016004820160009054906101000a900473ffffffffffffffffffffffffffffffffffffffff1673ffffffffffffffffffffffffffffffffffffffff1673ffffffffffffffffffffffffffffffffffffffff1681526020016005820154815260200160068201548152602001600782015481526020016008820160009054906101000a900460ff161515151581526020016008820160019054906101000a900460ff161515151581526020016008820160029054906101000a900460ff16151515158152505083600081518110611d3457611d33614ca7565b5b60200260200101819052505b8080611d4b90614d05565b915050611b0a565b5081600081518110611d6857611d67614ca7565b5b602002602001015192505050919050565b611d81613393565b611d8b6000613474565b565b611d95613393565b611d9d61353a565b565b60606000611dae61012d6131b5565b90506000806000600190505b838111611ebc573373ffffffffffffffffffffffffffffffffffffffff16610131600083815260200190815260200160002060010160009054906101000a900473ffffffffffffffffffffffffffffffffffffffff1673ffffffffffffffffffffffffffffffffffffffff161480611e9457503373ffffffffffffffffffffffffffffffffffffffff16610131600083815260200190815260200160002060020160009054906101000a900473ffffffffffffffffffffffffffffffffffffffff1673ffffffffffffffffffffffffffffffffffffffff16145b15611ea957600183611ea69190614d4d565b92505b8080611eb490614d05565b915050611dba565b5060008267ffffffffffffffff811115611ed957611ed8613e45565b5b604051908082528060200260200182016040528015611f1257816020015b611eff613ac9565b815260200190600190039081611ef75790505b5090506000600190505b848111612233573373ffffffffffffffffffffffffffffffffffffffff16610131600083815260200190815260200160002060010160009054906101000a900473ffffffffffffffffffffffffffffffffffffffff1673ffffffffffffffffffffffffffffffffffffffff161480611ff657503373ffffffffffffffffffffffffffffffffffffffff16610131600083815260200190815260200160002060020160009054906101000a900473ffffffffffffffffffffffffffffffffffffffff1673ffffffffffffffffffffffffffffffffffffffff16145b15612220576000610131600083815260200190815260200160002090508060405180610160016040529081600082015481526020016001820160009054906101000a900473ffffffffffffffffffffffffffffffffffffffff1673ffffffffffffffffffffffffffffffffffffffff1673ffffffffffffffffffffffffffffffffffffffff1681526020016002820160009054906101000a900473ffffffffffffffffffffffffffffffffffffffff1673ffffffffffffffffffffffffffffffffffffffff1673ffffffffffffffffffffffffffffffffffffffff1681526020016003820160009054906101000a900473ffffffffffffffffffffffffffffffffffffffff1673ffffffffffffffffffffffffffffffffffffffff1673ffffffffffffffffffffffffffffffffffffffff1681526020016004820160009054906101000a900473ffffffffffffffffffffffffffffffffffffffff1673ffffffffffffffffffffffffffffffffffffffff1673ffffffffffffffffffffffffffffffffffffffff1681526020016005820154815260200160068201548152602001600782015481526020016008820160009054906101000a900460ff161515151581526020016008820160019054906101000a900460ff161515151581526020016008820160029054906101000a900460ff16151515158152505083858151811061220457612203614ca7565b5b602002602001018190525060018461221c9190614d4d565b9350505b808061222b90614d05565b915050611f1c565b508094505050505090565b6000606560009054906101000a900473ffffffffffffffffffffffffffffffffffffffff16905090565b612270613b81565b6000600167ffffffffffffffff81111561228d5761228c613e45565b5b6040519080825280602002602001820160405280156122c657816020015b6122b3613b81565b8152602001906001900390816122ab5790505b50905060006122d661012e6131b5565b90506000600190505b81811161252857846101326000838152602001908152602001600020600001540361251557610132600082815260200190815260200160002060405180610160016040529081600082015481526020016001820160009054906101000a900473ffffffffffffffffffffffffffffffffffffffff1673ffffffffffffffffffffffffffffffffffffffff1673ffffffffffffffffffffffffffffffffffffffff1681526020016002820160009054906101000a900473ffffffffffffffffffffffffffffffffffffffff1673ffffffffffffffffffffffffffffffffffffffff1673ffffffffffffffffffffffffffffffffffffffff1681526020016003820160009054906101000a900473ffffffffffffffffffffffffffffffffffffffff1673ffffffffffffffffffffffffffffffffffffffff1673ffffffffffffffffffffffffffffffffffffffff1681526020016004820160009054906101000a900473ffffffffffffffffffffffffffffffffffffffff1673ffffffffffffffffffffffffffffffffffffffff1673ffffffffffffffffffffffffffffffffffffffff1681526020016005820154815260200160068201548152602001600782015481526020016008820160009054906101000a900460ff161515151581526020016008820160019054906101000a900460ff161515151581526020016008820160029054906101000a900460ff1615151515815250508360008151811061250957612508614ca7565b5b60200260200101819052505b808061252090614d05565b9150506122df565b508160008151811061253d5761253c614ca7565b5b602002602001015192505050919050565b612556613146565b610131600082815260200190815260200160002060080160009054906101000a900460ff16610131600083815260200190815260200160002060080160019054906101000a900460ff1661013160008481526020019081526020016000206007015460001515831515146125ff576040517f08c379a00000000000000000000000000000000000000000000000000000000081526004016125f6906146ef565b60405180910390fd5b6000151582151514612646576040517f08c379a000000000000000000000000000000000000000000000000000000000815260040161263d9061475b565b60405180910390fd5b60008111156126935780421115612692576040517f08c379a0000000000000000000000000000000000000000000000000000000008152600401612689906147c7565b60405180910390fd5b5b6000610131600086815260200190815260200160002060040160009054906101000a900473ffffffffffffffffffffffffffffffffffffffff16905060008173ffffffffffffffffffffffffffffffffffffffff166370a08231336040518263ffffffff1660e01b815260040161270a91906143d8565b602060405180830381865afa158015612727573d6000803e3d6000fd5b505050506040513d601f19601f8201168201806040525081019061274b9190614d96565b90506101316000878152602001908152602001600020600601548110156127a7576040517f08c379a000000000000000000000000000000000000000000000000000000000815260040161279e90614e35565b60405180910390fd5b8173ffffffffffffffffffffffffffffffffffffffff166323b872dd3361013160008a815260200190815260200160002060010160009054906101000a900473ffffffffffffffffffffffffffffffffffffffff1661013160008b8152602001908152602001600020600601546040518463ffffffff1660e01b815260040161283293929190614aba565b6020604051808303816000875af1158015612851573d6000803e3d6000fd5b505050506040513d601f19601f8201168201806040525081019061287591906148ee565b506000610131600088815260200190815260200160002060030160009054906101000a900473ffffffffffffffffffffffffffffffffffffffff1690508073ffffffffffffffffffffffffffffffffffffffff1663a9059cbb3361013160008b8152602001908152602001600020600501546040518363ffffffff1660e01b81526004016129049291906148b0565b6020604051808303816000875af1158015612923573d6000803e3d6000fd5b505050506040513d601f19601f8201168201806040525081019061294791906148ee565b5033610131600089815260200190815260200160002060020160006101000a81548173ffffffffffffffffffffffffffffffffffffffff021916908373ffffffffffffffffffffffffffffffffffffffff1602179055506001610131600089815260200190815260200160002060080160006101000a81548160ff0219169083151502179055505050505050506129dc613195565b50565b6129e7613146565b61012f60009054906101000a900473ffffffffffffffffffffffffffffffffffffffff1673ffffffffffffffffffffffffffffffffffffffff163373ffffffffffffffffffffffffffffffffffffffff1614612a78576040517f08c379a0000000000000000000000000000000000000000000000000000000008152600401612a6f90614ec7565b60405180910390fd5b8061013081905550612a88613195565b50565b60606000612a9a61012e6131b5565b90506000806000600190505b838111612ba8573373ffffffffffffffffffffffffffffffffffffffff16610132600083815260200190815260200160002060010160009054906101000a900473ffffffffffffffffffffffffffffffffffffffff1673ffffffffffffffffffffffffffffffffffffffff161480612b8057503373ffffffffffffffffffffffffffffffffffffffff16610132600083815260200190815260200160002060020160009054906101000a900473ffffffffffffffffffffffffffffffffffffffff1673ffffffffffffffffffffffffffffffffffffffff16145b15612b9557600183612b929190614d4d565b92505b8080612ba090614d05565b915050612aa6565b5060008267ffffffffffffffff811115612bc557612bc4613e45565b5b604051908082528060200260200182016040528015612bfe57816020015b612beb613b81565b815260200190600190039081612be35790505b5090506000600190505b848111612f1f573373ffffffffffffffffffffffffffffffffffffffff16610132600083815260200190815260200160002060010160009054906101000a900473ffffffffffffffffffffffffffffffffffffffff1673ffffffffffffffffffffffffffffffffffffffff161480612ce257503373ffffffffffffffffffffffffffffffffffffffff16610132600083815260200190815260200160002060020160009054906101000a900473ffffffffffffffffffffffffffffffffffffffff1673ffffffffffffffffffffffffffffffffffffffff16145b15612f0c576000610132600083815260200190815260200160002090508060405180610160016040529081600082015481526020016001820160009054906101000a900473ffffffffffffffffffffffffffffffffffffffff1673ffffffffffffffffffffffffffffffffffffffff1673ffffffffffffffffffffffffffffffffffffffff1681526020016002820160009054906101000a900473ffffffffffffffffffffffffffffffffffffffff1673ffffffffffffffffffffffffffffffffffffffff1673ffffffffffffffffffffffffffffffffffffffff1681526020016003820160009054906101000a900473ffffffffffffffffffffffffffffffffffffffff1673ffffffffffffffffffffffffffffffffffffffff1673ffffffffffffffffffffffffffffffffffffffff1681526020016004820160009054906101000a900473ffffffffffffffffffffffffffffffffffffffff1673ffffffffffffffffffffffffffffffffffffffff1673ffffffffffffffffffffffffffffffffffffffff1681526020016005820154815260200160068201548152602001600782015481526020016008820160009054906101000a900460ff161515151581526020016008820160019054906101000a900460ff161515151581526020016008820160029054906101000a900460ff161515151581525050838581518110612ef057612eef614ca7565b5b6020026020010181905250600184612f089190614d4d565b9350505b8080612f1790614d05565b915050612c08565b508094505050505090565b612f32613393565b600073ffffffffffffffffffffffffffffffffffffffff168173ffffffffffffffffffffffffffffffffffffffff1603612fa1576040517f08c379a0000000000000000000000000000000000000000000000000000000008152600401612f9890614f59565b60405180910390fd5b612faa81613474565b50565b60008060019054906101000a900460ff16159050808015612fde5750600160008054906101000a900460ff1660ff16105b8061300b5750612fed3061359d565b15801561300a5750600160008054906101000a900460ff1660ff16145b5b61304a576040517f08c379a000000000000000000000000000000000000000000000000000000000815260040161304190614feb565b60405180910390fd5b60016000806101000a81548160ff021916908360ff1602179055508015613087576001600060016101000a81548160ff0219169083151502179055505b81610130819055506130976135c0565b61309f613619565b6130a7613672565b3361012f60006101000a81548173ffffffffffffffffffffffffffffffffffffffff021916908373ffffffffffffffffffffffffffffffffffffffff16021790555080156131425760008060016101000a81548160ff0219169083151502179055507f7f26b83ff96e1f2b6a682f133852f6798a09c465da95921460cefb384740249860016040516131399190615053565b60405180910390a15b5050565b600260fb540361318b576040517f08c379a0000000000000000000000000000000000000000000000000000000008152600401613182906150ba565b60405180910390fd5b600260fb81905550565b600160fb81905550565b6001816000016000828254019250508190555050565b600081600001549050919050565b60006131f17f360894a13ba1a3210667c828492db98dca3e2076cc3735a920a3ca505d382bbc60001b6136c3565b60000160009054906101000a900473ffffffffffffffffffffffffffffffffffffffff16905090565b613222613393565b50565b6132517f4910fdfa16fed3260ed0e7147f7cc6da11a60208b5b9406d12a635614ffd914360001b6136cd565b60000160009054906101000a900460ff161561327557613270836136d7565b61338e565b8273ffffffffffffffffffffffffffffffffffffffff166352d1902d6040518163ffffffff1660e01b8152600401602060405180830381865afa9250505080156132dd57506040513d601f19601f820116820180604052508101906132da9190615106565b60015b61331c576040517f08c379a0000000000000000000000000000000000000000000000000000000008152600401613313906151a5565b60405180910390fd5b7f360894a13ba1a3210667c828492db98dca3e2076cc3735a920a3ca505d382bbc60001b8114613381576040517f08c379a000000000000000000000000000000000000000000000000000000000815260040161337890615237565b60405180910390fd5b5061338d838383613790565b5b505050565b61339b6137bc565b73ffffffffffffffffffffffffffffffffffffffff166133b961223e565b73ffffffffffffffffffffffffffffffffffffffff161461340f576040517f08c379a0000000000000000000000000000000000000000000000000000000008152600401613406906152a3565b60405180910390fd5b565b6134196137c4565b6000603360006101000a81548160ff0219169083151502179055507f5db9ee0a495bf2e6ff9c91a7834c1ba4fdd244a5e8aa4e537bd38aeae4b073aa61345d6137bc565b60405161346a91906143d8565b60405180910390a1565b6000606560009054906101000a900473ffffffffffffffffffffffffffffffffffffffff16905081606560006101000a81548173ffffffffffffffffffffffffffffffffffffffff021916908373ffffffffffffffffffffffffffffffffffffffff1602179055508173ffffffffffffffffffffffffffffffffffffffff168173ffffffffffffffffffffffffffffffffffffffff167f8be0079c531659141344cd1fd0a4f28419497f9722a3daafe3b4186f6b6457e060405160405180910390a35050565b61354261380d565b6001603360006101000a81548160ff0219169083151502179055507f62e78cea01bee320cd4e420270b5ea74000d11b0c9f74754ebdbfc544b05a2586135866137bc565b60405161359391906143d8565b60405180910390a1565b6000808273ffffffffffffffffffffffffffffffffffffffff163b119050919050565b600060019054906101000a900460ff1661360f576040517f08c379a000000000000000000000000000000000000000000000000000000000815260040161360690615335565b60405180910390fd5b613617613857565b565b600060019054906101000a900460ff16613668576040517f08c379a000000000000000000000000000000000000000000000000000000000815260040161365f90615335565b60405180910390fd5b6136706138c3565b565b600060019054906101000a900460ff166136c1576040517f08c379a00000000000000000000000000000000000000000000000000000000081526004016136b890615335565b60405180910390fd5b565b6000819050919050565b6000819050919050565b6136e08161359d565b61371f576040517f08c379a0000000000000000000000000000000000000000000000000000000008152600401613716906153c7565b60405180910390fd5b8061374c7f360894a13ba1a3210667c828492db98dca3e2076cc3735a920a3ca505d382bbc60001b6136c3565b60000160006101000a81548173ffffffffffffffffffffffffffffffffffffffff021916908373ffffffffffffffffffffffffffffffffffffffff16021790555050565b61379983613924565b6000825111806137a65750805b156137b7576137b58383613973565b505b505050565b600033905090565b6137cc611a7c565b61380b576040517f08c379a000000000000000000000000000000000000000000000000000000000815260040161380290615433565b60405180910390fd5b565b613815611a7c565b15613855576040517f08c379a000000000000000000000000000000000000000000000000000000000815260040161384c9061549f565b60405180910390fd5b565b600060019054906101000a900460ff166138a6576040517f08c379a000000000000000000000000000000000000000000000000000000000815260040161389d90615335565b60405180910390fd5b6000603360006101000a81548160ff021916908315150217905550565b600060019054906101000a900460ff16613912576040517f08c379a000000000000000000000000000000000000000000000000000000000815260040161390990615335565b60405180910390fd5b61392261391d6137bc565b613474565b565b61392d816136d7565b8073ffffffffffffffffffffffffffffffffffffffff167fbc7cd75a20ee27fd9adebab32041f755214dbc6bffa90cc0225b39da2e5c2d3b60405160405180910390a250565b606061397e8361359d565b6139bd576040517f08c379a00000000000000000000000000000000000000000000000000000000081526004016139b490615531565b60405180910390fd5b6000808473ffffffffffffffffffffffffffffffffffffffff16846040516139e59190615598565b600060405180830381855af49150503d8060008114613a20576040519150601f19603f3d011682016040523d82523d6000602084013e613a25565b606091505b5091509150613a4d82826040518060600160405280602781526020016155b060279139613a57565b9250505092915050565b60608315613a6757829050613a72565b613a718383613a79565b5b9392505050565b600082511115613a8c5781518083602001fd5b806040517f08c379a0000000000000000000000000000000000000000000000000000000008152600401613ac0919061407f565b60405180910390fd5b60405180610160016040528060008152602001600073ffffffffffffffffffffffffffffffffffffffff168152602001600073ffffffffffffffffffffffffffffffffffffffff168152602001600073ffffffffffffffffffffffffffffffffffffffff168152602001600073ffffffffffffffffffffffffffffffffffffffff1681526020016000815260200160008152602001600081526020016000151581526020016000151581526020016000151581525090565b60405180610160016040528060008152602001600073ffffffffffffffffffffffffffffffffffffffff168152602001600073ffffffffffffffffffffffffffffffffffffffff168152602001600073ffffffffffffffffffffffffffffffffffffffff168152602001600073ffffffffffffffffffffffffffffffffffffffff1681526020016000815260200160008152602001600081526020016000151581526020016000151581526020016000151581525090565b6000604051905090565b600080fd5b600080fd5b6000819050919050565b613c6081613c4d565b8114613c6b57600080fd5b50565b600081359050613c7d81613c57565b92915050565b600060208284031215613c9957613c98613c43565b5b6000613ca784828501613c6e565b91505092915050565b600073ffffffffffffffffffffffffffffffffffffffff82169050919050565b6000613cdb82613cb0565b9050919050565b613ceb81613cd0565b8114613cf657600080fd5b50565b600081359050613d0881613ce2565b92915050565b60008115159050919050565b613d2381613d0e565b8114613d2e57600080fd5b50565b600081359050613d4081613d1a565b92915050565b60008060008060008060c08789031215613d6357613d62613c43565b5b6000613d7189828a01613cf9565b9650506020613d8289828a01613cf9565b9550506040613d9389828a01613c6e565b9450506060613da489828a01613c6e565b9350506080613db589828a01613c6e565b92505060a0613dc689828a01613d31565b9150509295509295509295565b613ddc81613c4d565b82525050565b6000602082019050613df76000830184613dd3565b92915050565b600060208284031215613e1357613e12613c43565b5b6000613e2184828501613cf9565b91505092915050565b600080fd5b600080fd5b6000601f19601f8301169050919050565b7f4e487b7100000000000000000000000000000000000000000000000000000000600052604160045260246000fd5b613e7d82613e34565b810181811067ffffffffffffffff82111715613e9c57613e9b613e45565b5b80604052505050565b6000613eaf613c39565b9050613ebb8282613e74565b919050565b600067ffffffffffffffff821115613edb57613eda613e45565b5b613ee482613e34565b9050602081019050919050565b82818337600083830152505050565b6000613f13613f0e84613ec0565b613ea5565b905082815260208101848484011115613f2f57613f2e613e2f565b5b613f3a848285613ef1565b509392505050565b600082601f830112613f5757613f56613e2a565b5b8135613f67848260208601613f00565b91505092915050565b60008060408385031215613f8757613f86613c43565b5b6000613f9585828601613cf9565b925050602083013567ffffffffffffffff811115613fb657613fb5613c48565b5b613fc285828601613f42565b9150509250929050565b6000819050919050565b613fdf81613fcc565b82525050565b6000602082019050613ffa6000830184613fd6565b92915050565b600081519050919050565b600082825260208201905092915050565b60005b8381101561403a57808201518184015260208101905061401f565b60008484015250505050565b600061405182614000565b61405b818561400b565b935061406b81856020860161401c565b61407481613e34565b840191505092915050565b600060208201905081810360008301526140998184614046565b905092915050565b6140aa81613d0e565b82525050565b60006020820190506140c560008301846140a1565b92915050565b6140d481613c4d565b82525050565b60006140e582613cb0565b9050919050565b6140f5816140da565b82525050565b61410481613cd0565b82525050565b61411381613d0e565b82525050565b6101608201600082015161413060008501826140cb565b50602082015161414360208501826140ec565b50604082015161415660408501826140ec565b50606082015161416960608501826140fb565b50608082015161417c60808501826140fb565b5060a082015161418f60a08501826140cb565b5060c08201516141a260c08501826140cb565b5060e08201516141b560e08501826140cb565b506101008201516141ca61010085018261410a565b506101208201516141df61012085018261410a565b506101408201516141f461014085018261410a565b50505050565b6000610160820190506142106000830184614119565b92915050565b600081519050919050565b600082825260208201905092915050565b6000819050602082019050919050565b6101608201600082015161425960008501826140cb565b50602082015161426c60208501826140ec565b50604082015161427f60408501826140ec565b50606082015161429260608501826140fb565b5060808201516142a560808501826140fb565b5060a08201516142b860a08501826140cb565b5060c08201516142cb60c08501826140cb565b5060e08201516142de60e08501826140cb565b506101008201516142f361010085018261410a565b5061012082015161430861012085018261410a565b5061014082015161431d61014085018261410a565b50505050565b600061432f8383614242565b6101608301905092915050565b6000602082019050919050565b600061435482614216565b61435e8185614221565b935061436983614232565b8060005b8381101561439a5781516143818882614323565b975061438c8361433c565b92505060018101905061436d565b5085935050505092915050565b600060208201905081810360008301526143c18184614349565b905092915050565b6143d281613cd0565b82525050565b60006020820190506143ed60008301846143c9565b92915050565b6101608201600082015161440a60008501826140cb565b50602082015161441d60208501826140ec565b50604082015161443060408501826140ec565b50606082015161444360608501826140fb565b50608082015161445660808501826140fb565b5060a082015161446960a08501826140cb565b5060c082015161447c60c08501826140cb565b5060e082015161448f60e08501826140cb565b506101008201516144a461010085018261410a565b506101208201516144b961012085018261410a565b506101408201516144ce61014085018261410a565b50505050565b6000610160820190506144ea60008301846143f3565b92915050565b600081519050919050565b600082825260208201905092915050565b6000819050602082019050919050565b6101608201600082015161453360008501826140cb565b50602082015161454660208501826140ec565b50604082015161455960408501826140ec565b50606082015161456c60608501826140fb565b50608082015161457f60808501826140fb565b5060a082015161459260a08501826140cb565b5060c08201516145a560c08501826140cb565b5060e08201516145b860e08501826140cb565b506101008201516145cd61010085018261410a565b506101208201516145e261012085018261410a565b506101408201516145f761014085018261410a565b50505050565b6000614609838361451c565b6101608301905092915050565b6000602082019050919050565b600061462e826144f0565b61463881856144fb565b93506146438361450c565b8060005b8381101561467457815161465b88826145fd565b975061466683614616565b925050600181019050614647565b5085935050505092915050565b6000602082019050818103600083015261469b8184614623565b905092915050565b7f5468697320747261646520697320616c726561647920736f6c64210000000000600082015250565b60006146d9601b8361400b565b91506146e4826146a3565b602082019050919050565b60006020820190508181036000830152614708816146cc565b9050919050565b7f546869732074726164652069732063616e63656c6c6564210000000000000000600082015250565b600061474560188361400b565b91506147508261470f565b602082019050919050565b6000602082019050818103600083015261477481614738565b9050919050565b7f54686520747261646520697320696e76616c6964210000000000000000000000600082015250565b60006147b160158361400b565b91506147bc8261477b565b602082019050919050565b600060208201905081810360008301526147e0816147a4565b9050919050565b7f596f7520617265206e6f74207468652063726561746f72206f6620746869732060008201527f7472616465210000000000000000000000000000000000000000000000000000602082015250565b600061484360268361400b565b915061484e826147e7565b604082019050919050565b6000602082019050818103600083015261487281614836565b9050919050565b600060608201905061488e60008301866143c9565b61489b60208301856143c9565b6148a86040830184613dd3565b949350505050565b60006040820190506148c560008301856143c9565b6148d26020830184613dd3565b9392505050565b6000815190506148e881613d1a565b92915050565b60006020828403121561490457614903613c43565b5b6000614912848285016148d9565b91505092915050565b7f596f7520646f6e2774206861766520656e6f75676820616d6f756e74206f662060008201527f6e617469766520746f6b656e7320746f20706179207468652066656573000000602082015250565b6000614977603d8361400b565b91506149828261491b565b604082019050919050565b600060208201905081810360008301526149a68161496a565b9050919050565b6000815190506149bc81613ce2565b92915050565b6000602082840312156149d8576149d7613c43565b5b60006149e6848285016149ad565b91505092915050565b7f596f7520617265206e6f7420746865206f776e6572206f6620746865206e6674600082015250565b6000614a2560208361400b565b9150614a30826149ef565b602082019050919050565b60006020820190508181036000830152614a5481614a18565b9050919050565b6000819050919050565b6000614a80614a7b614a7684613cb0565b614a5b565b613cb0565b9050919050565b6000614a9282614a65565b9050919050565b6000614aa482614a87565b9050919050565b614ab481614a99565b82525050565b6000606082019050614acf60008301866143c9565b614adc6020830185614aab565b614ae96040830184613dd3565b949350505050565b7f46756e6374696f6e206d7573742062652063616c6c6564207468726f7567682060008201527f64656c656761746563616c6c0000000000000000000000000000000000000000602082015250565b6000614b4d602c8361400b565b9150614b5882614af1565b604082019050919050565b60006020820190508181036000830152614b7c81614b40565b9050919050565b7f46756e6374696f6e206d7573742062652063616c6c6564207468726f7567682060008201527f6163746976652070726f78790000000000000000000000000000000000000000602082015250565b6000614bdf602c8361400b565b9150614bea82614b83565b604082019050919050565b60006020820190508181036000830152614c0e81614bd2565b9050919050565b7f555550535570677261646561626c653a206d757374206e6f742062652063616c60008201527f6c6564207468726f7567682064656c656761746563616c6c0000000000000000602082015250565b6000614c7160388361400b565b9150614c7c82614c15565b604082019050919050565b60006020820190508181036000830152614ca081614c64565b9050919050565b7f4e487b7100000000000000000000000000000000000000000000000000000000600052603260045260246000fd5b7f4e487b7100000000000000000000000000000000000000000000000000000000600052601160045260246000fd5b6000614d1082613c4d565b91507fffffffffffffffffffffffffffffffffffffffffffffffffffffffffffffffff8203614d4257614d41614cd6565b5b600182019050919050565b6000614d5882613c4d565b9150614d6383613c4d565b9250828201905080821115614d7b57614d7a614cd6565b5b92915050565b600081519050614d9081613c57565b92915050565b600060208284031215614dac57614dab613c43565b5b6000614dba84828501614d81565b91505092915050565b7f596f7520646f6e277420686176652074686520656e6f7567682066756e64732060008201527f746f2065786368616e6765210000000000000000000000000000000000000000602082015250565b6000614e1f602c8361400b565b9150614e2a82614dc3565b604082019050919050565b60006020820190508181036000830152614e4e81614e12565b9050919050565b7f4f6e6c79206f776e657220697320616c6c6f77656420746f20646f207468697360008201527f20616374696f6e00000000000000000000000000000000000000000000000000602082015250565b6000614eb160278361400b565b9150614ebc82614e55565b604082019050919050565b60006020820190508181036000830152614ee081614ea4565b9050919050565b7f4f776e61626c653a206e6577206f776e657220697320746865207a65726f206160008201527f6464726573730000000000000000000000000000000000000000000000000000602082015250565b6000614f4360268361400b565b9150614f4e82614ee7565b604082019050919050565b60006020820190508181036000830152614f7281614f36565b9050919050565b7f496e697469616c697a61626c653a20636f6e747261637420697320616c72656160008201527f647920696e697469616c697a6564000000000000000000000000000000000000602082015250565b6000614fd5602e8361400b565b9150614fe082614f79565b604082019050919050565b6000602082019050818103600083015261500481614fc8565b9050919050565b6000819050919050565b600060ff82169050919050565b600061503d6150386150338461500b565b614a5b565b615015565b9050919050565b61504d81615022565b82525050565b60006020820190506150686000830184615044565b92915050565b7f5265656e7472616e637947756172643a207265656e7472616e742063616c6c00600082015250565b60006150a4601f8361400b565b91506150af8261506e565b602082019050919050565b600060208201905081810360008301526150d381615097565b9050919050565b6150e381613fcc565b81146150ee57600080fd5b50565b600081519050615100816150da565b92915050565b60006020828403121561511c5761511b613c43565b5b600061512a848285016150f1565b91505092915050565b7f45524331393637557067726164653a206e657720696d706c656d656e7461746960008201527f6f6e206973206e6f742055555053000000000000000000000000000000000000602082015250565b600061518f602e8361400b565b915061519a82615133565b604082019050919050565b600060208201905081810360008301526151be81615182565b9050919050565b7f45524331393637557067726164653a20756e737570706f727465642070726f7860008201527f6961626c65555549440000000000000000000000000000000000000000000000602082015250565b600061522160298361400b565b915061522c826151c5565b604082019050919050565b6000602082019050818103600083015261525081615214565b9050919050565b7f4f776e61626c653a2063616c6c6572206973206e6f7420746865206f776e6572600082015250565b600061528d60208361400b565b915061529882615257565b602082019050919050565b600060208201905081810360008301526152bc81615280565b9050919050565b7f496e697469616c697a61626c653a20636f6e7472616374206973206e6f74206960008201527f6e697469616c697a696e67000000000000000000000000000000000000000000602082015250565b600061531f602b8361400b565b915061532a826152c3565b604082019050919050565b6000602082019050818103600083015261534e81615312565b9050919050565b7f455243313936373a206e657720696d706c656d656e746174696f6e206973206e60008201527f6f74206120636f6e747261637400000000000000000000000000000000000000602082015250565b60006153b1602d8361400b565b91506153bc82615355565b604082019050919050565b600060208201905081810360008301526153e0816153a4565b9050919050565b7f5061757361626c653a206e6f7420706175736564000000000000000000000000600082015250565b600061541d60148361400b565b9150615428826153e7565b602082019050919050565b6000602082019050818103600083015261544c81615410565b9050919050565b7f5061757361626c653a2070617573656400000000000000000000000000000000600082015250565b600061548960108361400b565b915061549482615453565b602082019050919050565b600060208201905081810360008301526154b88161547c565b9050919050565b7f416464726573733a2064656c65676174652063616c6c20746f206e6f6e2d636f60008201527f6e74726163740000000000000000000000000000000000000000000000000000602082015250565b600061551b60268361400b565b9150615526826154bf565b604082019050919050565b6000602082019050818103600083015261554a8161550e565b9050919050565b600081519050919050565b600081905092915050565b600061557282615551565b61557c818561555c565b935061558c81856020860161401c565b80840191505092915050565b60006155a48284615567565b91508190509291505056fe416464726573733a206c6f772d6c6576656c2064656c65676174652063616c6c206661696c6564a26469706673582212204c7d550ace3f8350afa5243c89946f282e638fcd263876b8675ad2047ee78ae464736f6c63430008110033",
  "linkReferences": {},
  "deployedLinkReferences": {}
}