{
  "_format": "hh-sol-artifact-1",
  "contractName": "MikosavaOTC",
  "sourceName": "contracts/MikosavaOTC.sol",
  "abi": [
    {
      "inputs": [],
      "stateMutability": "nonpayable",
      "type": "constructor"
    },
    {
      "anonymous": false,
      "inputs": [
        {
          "indexed": false,
          "internalType": "address",
          "name": "previousAdmin",
          "type": "address"
        },
        {
          "indexed": false,
          "internalType": "address",
          "name": "newAdmin",
          "type": "address"
        }
      ],
      "name": "AdminChanged",
      "type": "event"
    },
    {
      "anonymous": false,
      "inputs": [
        {
          "indexed": true,
          "internalType": "address",
          "name": "beacon",
          "type": "address"
        }
      ],
      "name": "BeaconUpgraded",
      "type": "event"
    },
    {
      "anonymous": false,
      "inputs": [
        {
          "indexed": false,
          "internalType": "uint8",
          "name": "version",
          "type": "uint8"
        }
      ],
      "name": "Initialized",
      "type": "event"
    },
    {
      "anonymous": false,
      "inputs": [
        {
          "indexed": true,
          "internalType": "address",
          "name": "previousOwner",
          "type": "address"
        },
        {
          "indexed": true,
          "internalType": "address",
          "name": "newOwner",
          "type": "address"
        }
      ],
      "name": "OwnershipTransferred",
      "type": "event"
    },
    {
      "anonymous": false,
      "inputs": [
        {
          "indexed": false,
          "internalType": "address",
          "name": "account",
          "type": "address"
        }
      ],
      "name": "Paused",
      "type": "event"
    },
    {
      "anonymous": false,
      "inputs": [
        {
          "indexed": false,
          "internalType": "address",
          "name": "account",
          "type": "address"
        }
      ],
      "name": "Unpaused",
      "type": "event"
    },
    {
      "anonymous": false,
      "inputs": [
        {
          "indexed": true,
          "internalType": "address",
          "name": "implementation",
          "type": "address"
        }
      ],
      "name": "Upgraded",
      "type": "event"
    },
    {
      "inputs": [
        {
          "internalType": "uint256",
          "name": "coinTradePositionId",
          "type": "uint256"
        }
      ],
      "name": "cancellOTCCPosition",
      "outputs": [],
      "stateMutability": "payable",
      "type": "function"
    },
    {
      "inputs": [
        {
          "internalType": "uint256",
          "name": "coinTradePositionId",
          "type": "uint256"
        }
      ],
      "name": "closeOTCCPosition",
      "outputs": [],
      "stateMutability": "payable",
      "type": "function"
    },
    {
      "inputs": [
        {
          "internalType": "address",
          "name": "coinAAddress",
          "type": "address"
        },
        {
          "internalType": "address",
          "name": "coinBAddress",
          "type": "address"
        },
        {
          "internalType": "uint256",
          "name": "amountCoinA",
          "type": "uint256"
        },
        {
          "internalType": "uint256",
          "name": "amountCoinB",
          "type": "uint256"
        },
        {
          "internalType": "uint256",
          "name": "validUntil",
          "type": "uint256"
        }
      ],
      "name": "createOTCCPosition",
      "outputs": [],
      "stateMutability": "payable",
      "type": "function"
    },
    {
      "inputs": [
        {
          "internalType": "uint256",
          "name": "tradeId",
          "type": "uint256"
        }
      ],
      "name": "fetchCoinTradeById",
      "outputs": [
        {
          "components": [
            {
              "internalType": "uint256",
              "name": "tradeId",
              "type": "uint256"
            },
            {
              "internalType": "address payable",
              "name": "creator",
              "type": "address"
            },
            {
              "internalType": "address payable",
              "name": "counterpart",
              "type": "address"
            },
            {
              "internalType": "address",
              "name": "coinCreator",
              "type": "address"
            },
            {
              "internalType": "address",
              "name": "coinCounterpart",
              "type": "address"
            },
            {
              "internalType": "uint256",
              "name": "amountPositionCreator",
              "type": "uint256"
            },
            {
              "internalType": "uint256",
              "name": "amountPositionCounterpart",
              "type": "uint256"
            },
            {
              "internalType": "uint256",
              "name": "validUntil",
              "type": "uint256"
            },
            {
              "internalType": "bool",
              "name": "sold",
              "type": "bool"
            },
            {
              "internalType": "bool",
              "name": "cancelled",
              "type": "bool"
            }
          ],
          "internalType": "struct MikosavaOTC.OTCCTrade",
          "name": "",
          "type": "tuple"
        }
      ],
      "stateMutability": "view",
      "type": "function"
    },
    {
      "inputs": [],
      "name": "fetchMyCoinTrades",
      "outputs": [
        {
          "components": [
            {
              "internalType": "uint256",
              "name": "tradeId",
              "type": "uint256"
            },
            {
              "internalType": "address payable",
              "name": "creator",
              "type": "address"
            },
            {
              "internalType": "address payable",
              "name": "counterpart",
              "type": "address"
            },
            {
              "internalType": "address",
              "name": "coinCreator",
              "type": "address"
            },
            {
              "internalType": "address",
              "name": "coinCounterpart",
              "type": "address"
            },
            {
              "internalType": "uint256",
              "name": "amountPositionCreator",
              "type": "uint256"
            },
            {
              "internalType": "uint256",
              "name": "amountPositionCounterpart",
              "type": "uint256"
            },
            {
              "internalType": "uint256",
              "name": "validUntil",
              "type": "uint256"
            },
            {
              "internalType": "bool",
              "name": "sold",
              "type": "bool"
            },
            {
              "internalType": "bool",
              "name": "cancelled",
              "type": "bool"
            }
          ],
          "internalType": "struct MikosavaOTC.OTCCTrade[]",
          "name": "",
          "type": "tuple[]"
        }
      ],
      "stateMutability": "view",
      "type": "function"
    },
    {
      "inputs": [],
      "name": "getCoinFee",
      "outputs": [
        {
          "internalType": "uint256",
          "name": "",
          "type": "uint256"
        }
      ],
      "stateMutability": "view",
      "type": "function"
    },
    {
      "inputs": [
        {
          "internalType": "uint256",
          "name": "coinFeeParam",
          "type": "uint256"
        }
      ],
      "name": "initialize",
      "outputs": [],
      "stateMutability": "nonpayable",
      "type": "function"
    },
    {
      "inputs": [],
      "name": "owner",
      "outputs": [
        {
          "internalType": "address",
          "name": "",
          "type": "address"
        }
      ],
      "stateMutability": "view",
      "type": "function"
    },
    {
      "inputs": [],
      "name": "pause",
      "outputs": [],
      "stateMutability": "nonpayable",
      "type": "function"
    },
    {
      "inputs": [],
      "name": "paused",
      "outputs": [
        {
          "internalType": "bool",
          "name": "",
          "type": "bool"
        }
      ],
      "stateMutability": "view",
      "type": "function"
    },
    {
      "inputs": [],
      "name": "proxiableUUID",
      "outputs": [
        {
          "internalType": "bytes32",
          "name": "",
          "type": "bytes32"
        }
      ],
      "stateMutability": "view",
      "type": "function"
    },
    {
      "inputs": [],
      "name": "renounceOwnership",
      "outputs": [],
      "stateMutability": "nonpayable",
      "type": "function"
    },
    {
      "inputs": [
        {
          "internalType": "uint256",
          "name": "newCoinFee",
          "type": "uint256"
        }
      ],
      "name": "setCoinFee",
      "outputs": [],
      "stateMutability": "nonpayable",
      "type": "function"
    },
    {
      "inputs": [
        {
          "internalType": "address",
          "name": "newOwner",
          "type": "address"
        }
      ],
      "name": "transferOwnership",
      "outputs": [],
      "stateMutability": "nonpayable",
      "type": "function"
    },
    {
      "inputs": [],
      "name": "unpause",
      "outputs": [],
      "stateMutability": "nonpayable",
      "type": "function"
    },
    {
      "inputs": [
        {
          "internalType": "address",
          "name": "newImplementation",
          "type": "address"
        }
      ],
      "name": "upgradeTo",
      "outputs": [],
      "stateMutability": "nonpayable",
      "type": "function"
    },
    {
      "inputs": [
        {
          "internalType": "address",
          "name": "newImplementation",
          "type": "address"
        },
        {
          "internalType": "bytes",
          "name": "data",
          "type": "bytes"
        }
      ],
      "name": "upgradeToAndCall",
      "outputs": [],
      "stateMutability": "payable",
      "type": "function"
    },
    {
      "inputs": [],
      "name": "version",
      "outputs": [
        {
          "internalType": "string",
          "name": "",
          "type": "string"
        }
      ],
      "stateMutability": "pure",
      "type": "function"
    }
  ],
  "bytecode": "0x60a06040523073ffffffffffffffffffffffffffffffffffffffff1660809073ffffffffffffffffffffffffffffffffffffffff168152503480156200004457600080fd5b50620000556200005b60201b60201c565b62000206565b600060019054906101000a900460ff1615620000ae576040517f08c379a0000000000000000000000000000000000000000000000000000000008152600401620000a590620001a9565b60405180910390fd5b60ff801660008054906101000a900460ff1660ff161015620001205760ff6000806101000a81548160ff021916908360ff1602179055507f7f26b83ff96e1f2b6a682f133852f6798a09c465da95921460cefb384740249860ff604051620001179190620001e9565b60405180910390a15b565b600082825260208201905092915050565b7f496e697469616c697a61626c653a20636f6e747261637420697320696e69746960008201527f616c697a696e6700000000000000000000000000000000000000000000000000602082015250565b60006200019160278362000122565b91506200019e8262000133565b604082019050919050565b60006020820190508181036000830152620001c48162000182565b9050919050565b600060ff82169050919050565b620001e381620001cb565b82525050565b6000602082019050620002006000830184620001d8565b92915050565b608051613cd26200023e600039600081816109ec01528181610a7a01528181610b8601528181610c140152610cc40152613cd26000f3fe6080604052600436106101095760003560e01c80636787be42116100955780638da5cb5b116100645780638da5cb5b146102e4578063a2f52f501461030f578063d6d45e011461032b578063f2fde38b14610354578063fe4b84df1461037d57610109565b80636787be421461024e578063715018a61461028b5780638456cb59146102a2578063883f8a81146102b957610109565b80633f4ba83a116100dc5780633f4ba83a1461019a5780634f1ef286146101b157806352d1902d146101cd57806354fd4d50146101f85780635c975abb1461022357610109565b806317bc566f1461010e5780631b2c33051461012a578063280d7ae4146101465780633659cfe614610171575b600080fd5b61012860048036038101906101239190612620565b6103a6565b005b610144600480360381019061013f91906126ab565b610637565b005b34801561015257600080fd5b5061015b6109df565b6040516101689190612735565b60405180910390f35b34801561017d57600080fd5b5061019860048036038101906101939190612750565b6109ea565b005b3480156101a657600080fd5b506101af610b72565b005b6101cb60048036038101906101c691906128c3565b610b84565b005b3480156101d957600080fd5b506101e2610cc0565b6040516101ef9190612938565b60405180910390f35b34801561020457600080fd5b5061020d610d79565b60405161021a91906129d2565b60405180910390f35b34801561022f57600080fd5b50610238610db6565b6040516102459190612a0f565b60405180910390f35b34801561025a57600080fd5b5061027560048036038101906102709190612620565b610dcd565b6040516102829190612b44565b60405180910390f35b34801561029757600080fd5b506102a0611098565b005b3480156102ae57600080fd5b506102b76110ac565b005b3480156102c557600080fd5b506102ce6110be565b6040516102db9190612cdc565b60405180910390f35b3480156102f057600080fd5b506102f9611466565b6040516103069190612d0d565b60405180910390f35b61032960048036038101906103249190612620565b611490565b005b34801561033757600080fd5b50610352600480360381019061034d9190612620565b6118dc565b005b34801561036057600080fd5b5061037b60048036038101906103769190612750565b611988565b005b34801561038957600080fd5b506103a4600480360381019061039f9190612620565b611a0b565b005b6103ae611ba4565b3373ffffffffffffffffffffffffffffffffffffffff16610130600083815260200190815260200160002060010160009054906101000a900473ffffffffffffffffffffffffffffffffffffffff1673ffffffffffffffffffffffffffffffffffffffff1614610453576040517f08c379a000000000000000000000000000000000000000000000000000000000815260040161044a90612d9a565b60405180910390fd5b60001515610130600083815260200190815260200160002060080160019054906101000a900460ff161515146104be576040517f08c379a00000000000000000000000000000000000000000000000000000000081526004016104b590612e06565b60405180910390fd5b60001515610130600083815260200190815260200160002060080160009054906101000a900460ff16151514610529576040517f08c379a000000000000000000000000000000000000000000000000000000000815260040161052090612e72565b60405180910390fd5b6000610130600083815260200190815260200160002060030160009054906101000a900473ffffffffffffffffffffffffffffffffffffffff1690508073ffffffffffffffffffffffffffffffffffffffff1663a9059cbb336101306000868152602001908152602001600020600501546040518363ffffffff1660e01b81526004016105b7929190612e92565b6020604051808303816000875af11580156105d6573d6000803e3d6000fd5b505050506040513d601f19601f820116820180604052508101906105fa9190612ee7565b506001610130600084815260200190815260200160002060080160016101000a81548160ff02191690831515021790555050610634611bf3565b50565b61063f611ba4565b61012f54341015610685576040517f08c379a000000000000000000000000000000000000000000000000000000000815260040161067c90612f86565b60405180910390fd5b61069061012d611bfd565b600061069d61012d611c13565b90506040518061014001604052808281526020013373ffffffffffffffffffffffffffffffffffffffff168152602001600073ffffffffffffffffffffffffffffffffffffffff1681526020018773ffffffffffffffffffffffffffffffffffffffff1681526020018673ffffffffffffffffffffffffffffffffffffffff1681526020018581526020018481526020018381526020016000151581526020016000151581525061013060008381526020019081526020016000206000820151816000015560208201518160010160006101000a81548173ffffffffffffffffffffffffffffffffffffffff021916908373ffffffffffffffffffffffffffffffffffffffff16021790555060408201518160020160006101000a81548173ffffffffffffffffffffffffffffffffffffffff021916908373ffffffffffffffffffffffffffffffffffffffff16021790555060608201518160030160006101000a81548173ffffffffffffffffffffffffffffffffffffffff021916908373ffffffffffffffffffffffffffffffffffffffff16021790555060808201518160040160006101000a81548173ffffffffffffffffffffffffffffffffffffffff021916908373ffffffffffffffffffffffffffffffffffffffff16021790555060a0820151816005015560c0820151816006015560e082015181600701556101008201518160080160006101000a81548160ff0219169083151502179055506101208201518160080160016101000a81548160ff0219169083151502179055509050508573ffffffffffffffffffffffffffffffffffffffff166323b872dd3330876040518463ffffffff1660e01b815260040161091e93929190612fa6565b6020604051808303816000875af115801561093d573d6000803e3d6000fd5b505050506040513d601f19601f820116820180604052508101906109619190612ee7565b5061012e60009054906101000a900473ffffffffffffffffffffffffffffffffffffffff1673ffffffffffffffffffffffffffffffffffffffff166108fc61012f549081150290604051600060405180830381858888f193505050501580156109ce573d6000803e3d6000fd5b50506109d8611bf3565b5050505050565b600061012f54905090565b7f000000000000000000000000000000000000000000000000000000000000000073ffffffffffffffffffffffffffffffffffffffff163073ffffffffffffffffffffffffffffffffffffffff1603610a78576040517f08c379a0000000000000000000000000000000000000000000000000000000008152600401610a6f9061304f565b60405180910390fd5b7f000000000000000000000000000000000000000000000000000000000000000073ffffffffffffffffffffffffffffffffffffffff16610ab7611c21565b73ffffffffffffffffffffffffffffffffffffffff1614610b0d576040517f08c379a0000000000000000000000000000000000000000000000000000000008152600401610b04906130e1565b60405180910390fd5b610b1681611c78565b610b6f81600067ffffffffffffffff811115610b3557610b34612798565b5b6040519080825280601f01601f191660200182016040528015610b675781602001600182028036833780820191505090505b506000611c83565b50565b610b7a611df1565b610b82611e6f565b565b7f000000000000000000000000000000000000000000000000000000000000000073ffffffffffffffffffffffffffffffffffffffff163073ffffffffffffffffffffffffffffffffffffffff1603610c12576040517f08c379a0000000000000000000000000000000000000000000000000000000008152600401610c099061304f565b60405180910390fd5b7f000000000000000000000000000000000000000000000000000000000000000073ffffffffffffffffffffffffffffffffffffffff16610c51611c21565b73ffffffffffffffffffffffffffffffffffffffff1614610ca7576040517f08c379a0000000000000000000000000000000000000000000000000000000008152600401610c9e906130e1565b60405180910390fd5b610cb082611c78565b610cbc82826001611c83565b5050565b60007f000000000000000000000000000000000000000000000000000000000000000073ffffffffffffffffffffffffffffffffffffffff163073ffffffffffffffffffffffffffffffffffffffff1614610d50576040517f08c379a0000000000000000000000000000000000000000000000000000000008152600401610d4790613173565b60405180910390fd5b7f360894a13ba1a3210667c828492db98dca3e2076cc3735a920a3ca505d382bbc60001b905090565b60606040518060400160405280600581526020017f312e302e30000000000000000000000000000000000000000000000000000000815250905090565b6000603360009054906101000a900460ff16905090565b610dd5612527565b6000600167ffffffffffffffff811115610df257610df1612798565b5b604051908082528060200260200182016040528015610e2b57816020015b610e18612527565b815260200190600190039081610e105790505b5090506000610e3b61012d611c13565b90506000600190505b81811161107257846101306000838152602001908152602001600020600001540361105f57610130600082815260200190815260200160002060405180610140016040529081600082015481526020016001820160009054906101000a900473ffffffffffffffffffffffffffffffffffffffff1673ffffffffffffffffffffffffffffffffffffffff1673ffffffffffffffffffffffffffffffffffffffff1681526020016002820160009054906101000a900473ffffffffffffffffffffffffffffffffffffffff1673ffffffffffffffffffffffffffffffffffffffff1673ffffffffffffffffffffffffffffffffffffffff1681526020016003820160009054906101000a900473ffffffffffffffffffffffffffffffffffffffff1673ffffffffffffffffffffffffffffffffffffffff1673ffffffffffffffffffffffffffffffffffffffff1681526020016004820160009054906101000a900473ffffffffffffffffffffffffffffffffffffffff1673ffffffffffffffffffffffffffffffffffffffff1673ffffffffffffffffffffffffffffffffffffffff1681526020016005820154815260200160068201548152602001600782015481526020016008820160009054906101000a900460ff161515151581526020016008820160019054906101000a900460ff1615151515815250508360008151811061105357611052613193565b5b60200260200101819052505b808061106a906131f1565b915050610e44565b508160008151811061108757611086613193565b5b602002602001015192505050919050565b6110a0611df1565b6110aa6000611ed2565b565b6110b4611df1565b6110bc611f98565b565b606060006110cd61012d611c13565b90506000806000600190505b83811161116d573373ffffffffffffffffffffffffffffffffffffffff16610130600083815260200190815260200160002060010160009054906101000a900473ffffffffffffffffffffffffffffffffffffffff1673ffffffffffffffffffffffffffffffffffffffff160361115a576001836111579190613239565b92505b8080611165906131f1565b9150506110d9565b5060008267ffffffffffffffff81111561118a57611189612798565b5b6040519080825280602002602001820160405280156111c357816020015b6111b0612527565b8152602001906001900390816111a85790505b5090506000600190505b84811161145b573373ffffffffffffffffffffffffffffffffffffffff16610130600083815260200190815260200160002060010160009054906101000a900473ffffffffffffffffffffffffffffffffffffffff1673ffffffffffffffffffffffffffffffffffffffff1603611448576000610130600083815260200190815260200160002090508060405180610140016040529081600082015481526020016001820160009054906101000a900473ffffffffffffffffffffffffffffffffffffffff1673ffffffffffffffffffffffffffffffffffffffff1673ffffffffffffffffffffffffffffffffffffffff1681526020016002820160009054906101000a900473ffffffffffffffffffffffffffffffffffffffff1673ffffffffffffffffffffffffffffffffffffffff1673ffffffffffffffffffffffffffffffffffffffff1681526020016003820160009054906101000a900473ffffffffffffffffffffffffffffffffffffffff1673ffffffffffffffffffffffffffffffffffffffff1673ffffffffffffffffffffffffffffffffffffffff1681526020016004820160009054906101000a900473ffffffffffffffffffffffffffffffffffffffff1673ffffffffffffffffffffffffffffffffffffffff1673ffffffffffffffffffffffffffffffffffffffff1681526020016005820154815260200160068201548152602001600782015481526020016008820160009054906101000a900460ff161515151581526020016008820160019054906101000a900460ff16151515158152505083858151811061142c5761142b613193565b5b60200260200101819052506001846114449190613239565b9350505b8080611453906131f1565b9150506111cd565b508094505050505090565b6000606560009054906101000a900473ffffffffffffffffffffffffffffffffffffffff16905090565b611498611ba4565b6000610130600083815260200190815260200160002060040160009054906101000a900473ffffffffffffffffffffffffffffffffffffffff16905060008173ffffffffffffffffffffffffffffffffffffffff166370a08231336040518263ffffffff1660e01b815260040161150f9190612d0d565b602060405180830381865afa15801561152c573d6000803e3d6000fd5b505050506040513d601f19601f820116820180604052508101906115509190613282565b90506101306000848152602001908152602001600020600601548110156115ac576040517f08c379a00000000000000000000000000000000000000000000000000000000081526004016115a390613321565b60405180910390fd5b60001515610130600085815260200190815260200160002060080160009054906101000a900460ff16151514611617576040517f08c379a000000000000000000000000000000000000000000000000000000000815260040161160e9061338d565b60405180910390fd5b60001515610130600085815260200190815260200160002060080160019054906101000a900460ff16151514611682576040517f08c379a0000000000000000000000000000000000000000000000000000000008152600401611679906133f9565b60405180910390fd5b600061013060008581526020019081526020016000206007015411156116fd576101306000848152602001908152602001600020600701544211156116fc576040517f08c379a00000000000000000000000000000000000000000000000000000000081526004016116f390613465565b60405180910390fd5b5b8173ffffffffffffffffffffffffffffffffffffffff166323b872dd33610130600087815260200190815260200160002060010160009054906101000a900473ffffffffffffffffffffffffffffffffffffffff166101306000888152602001908152602001600020600601546040518463ffffffff1660e01b8152600401611788939291906134e4565b6020604051808303816000875af11580156117a7573d6000803e3d6000fd5b505050506040513d601f19601f820116820180604052508101906117cb9190612ee7565b506000610130600085815260200190815260200160002060030160009054906101000a900473ffffffffffffffffffffffffffffffffffffffff1690508073ffffffffffffffffffffffffffffffffffffffff1663a9059cbb336101306000888152602001908152602001600020600501546040518363ffffffff1660e01b815260040161185a929190612e92565b6020604051808303816000875af1158015611879573d6000803e3d6000fd5b505050506040513d601f19601f8201168201806040525081019061189d9190612ee7565b506001610130600086815260200190815260200160002060080160006101000a81548160ff0219169083151502179055505050506118d9611bf3565b50565b6118e4611ba4565b61012e60009054906101000a900473ffffffffffffffffffffffffffffffffffffffff1673ffffffffffffffffffffffffffffffffffffffff163373ffffffffffffffffffffffffffffffffffffffff1614611975576040517f08c379a000000000000000000000000000000000000000000000000000000000815260040161196c9061358d565b60405180910390fd5b8061012f81905550611985611bf3565b50565b611990611df1565b600073ffffffffffffffffffffffffffffffffffffffff168173ffffffffffffffffffffffffffffffffffffffff16036119ff576040517f08c379a00000000000000000000000000000000000000000000000000000000081526004016119f69061361f565b60405180910390fd5b611a0881611ed2565b50565b60008060019054906101000a900460ff16159050808015611a3c5750600160008054906101000a900460ff1660ff16105b80611a695750611a4b30611ffb565b158015611a685750600160008054906101000a900460ff1660ff16145b5b611aa8576040517f08c379a0000000000000000000000000000000000000000000000000000000008152600401611a9f906136b1565b60405180910390fd5b60016000806101000a81548160ff021916908360ff1602179055508015611ae5576001600060016101000a81548160ff0219169083151502179055505b8161012f81905550611af561201e565b611afd612077565b611b056120d0565b3361012e60006101000a81548173ffffffffffffffffffffffffffffffffffffffff021916908373ffffffffffffffffffffffffffffffffffffffff1602179055508015611ba05760008060016101000a81548160ff0219169083151502179055507f7f26b83ff96e1f2b6a682f133852f6798a09c465da95921460cefb38474024986001604051611b979190613719565b60405180910390a15b5050565b600260fb5403611be9576040517f08c379a0000000000000000000000000000000000000000000000000000000008152600401611be090613780565b60405180910390fd5b600260fb81905550565b600160fb81905550565b6001816000016000828254019250508190555050565b600081600001549050919050565b6000611c4f7f360894a13ba1a3210667c828492db98dca3e2076cc3735a920a3ca505d382bbc60001b612121565b60000160009054906101000a900473ffffffffffffffffffffffffffffffffffffffff16905090565b611c80611df1565b50565b611caf7f4910fdfa16fed3260ed0e7147f7cc6da11a60208b5b9406d12a635614ffd914360001b61212b565b60000160009054906101000a900460ff1615611cd357611cce83612135565b611dec565b8273ffffffffffffffffffffffffffffffffffffffff166352d1902d6040518163ffffffff1660e01b8152600401602060405180830381865afa925050508015611d3b57506040513d601f19601f82011682018060405250810190611d3891906137cc565b60015b611d7a576040517f08c379a0000000000000000000000000000000000000000000000000000000008152600401611d719061386b565b60405180910390fd5b7f360894a13ba1a3210667c828492db98dca3e2076cc3735a920a3ca505d382bbc60001b8114611ddf576040517f08c379a0000000000000000000000000000000000000000000000000000000008152600401611dd6906138fd565b60405180910390fd5b50611deb8383836121ee565b5b505050565b611df961221a565b73ffffffffffffffffffffffffffffffffffffffff16611e17611466565b73ffffffffffffffffffffffffffffffffffffffff1614611e6d576040517f08c379a0000000000000000000000000000000000000000000000000000000008152600401611e6490613969565b60405180910390fd5b565b611e77612222565b6000603360006101000a81548160ff0219169083151502179055507f5db9ee0a495bf2e6ff9c91a7834c1ba4fdd244a5e8aa4e537bd38aeae4b073aa611ebb61221a565b604051611ec89190612d0d565b60405180910390a1565b6000606560009054906101000a900473ffffffffffffffffffffffffffffffffffffffff16905081606560006101000a81548173ffffffffffffffffffffffffffffffffffffffff021916908373ffffffffffffffffffffffffffffffffffffffff1602179055508173ffffffffffffffffffffffffffffffffffffffff168173ffffffffffffffffffffffffffffffffffffffff167f8be0079c531659141344cd1fd0a4f28419497f9722a3daafe3b4186f6b6457e060405160405180910390a35050565b611fa061226b565b6001603360006101000a81548160ff0219169083151502179055507f62e78cea01bee320cd4e420270b5ea74000d11b0c9f74754ebdbfc544b05a258611fe461221a565b604051611ff19190612d0d565b60405180910390a1565b6000808273ffffffffffffffffffffffffffffffffffffffff163b119050919050565b600060019054906101000a900460ff1661206d576040517f08c379a0000000000000000000000000000000000000000000000000000000008152600401612064906139fb565b60405180910390fd5b6120756122b5565b565b600060019054906101000a900460ff166120c6576040517f08c379a00000000000000000000000000000000000000000000000000000000081526004016120bd906139fb565b60405180910390fd5b6120ce612321565b565b600060019054906101000a900460ff1661211f576040517f08c379a0000000000000000000000000000000000000000000000000000000008152600401612116906139fb565b60405180910390fd5b565b6000819050919050565b6000819050919050565b61213e81611ffb565b61217d576040517f08c379a000000000000000000000000000000000000000000000000000000000815260040161217490613a8d565b60405180910390fd5b806121aa7f360894a13ba1a3210667c828492db98dca3e2076cc3735a920a3ca505d382bbc60001b612121565b60000160006101000a81548173ffffffffffffffffffffffffffffffffffffffff021916908373ffffffffffffffffffffffffffffffffffffffff16021790555050565b6121f783612382565b6000825111806122045750805b156122155761221383836123d1565b505b505050565b600033905090565b61222a610db6565b612269576040517f08c379a000000000000000000000000000000000000000000000000000000000815260040161226090613af9565b60405180910390fd5b565b612273610db6565b156122b3576040517f08c379a00000000000000000000000000000000000000000000000000000000081526004016122aa90613b65565b60405180910390fd5b565b600060019054906101000a900460ff16612304576040517f08c379a00000000000000000000000000000000000000000000000000000000081526004016122fb906139fb565b60405180910390fd5b6000603360006101000a81548160ff021916908315150217905550565b600060019054906101000a900460ff16612370576040517f08c379a0000000000000000000000000000000000000000000000000000000008152600401612367906139fb565b60405180910390fd5b61238061237b61221a565b611ed2565b565b61238b81612135565b8073ffffffffffffffffffffffffffffffffffffffff167fbc7cd75a20ee27fd9adebab32041f755214dbc6bffa90cc0225b39da2e5c2d3b60405160405180910390a250565b60606123dc83611ffb565b61241b576040517f08c379a000000000000000000000000000000000000000000000000000000000815260040161241290613bf7565b60405180910390fd5b6000808473ffffffffffffffffffffffffffffffffffffffff16846040516124439190613c5e565b600060405180830381855af49150503d806000811461247e576040519150601f19603f3d011682016040523d82523d6000602084013e612483565b606091505b50915091506124ab8282604051806060016040528060278152602001613c76602791396124b5565b9250505092915050565b606083156124c5578290506124d0565b6124cf83836124d7565b5b9392505050565b6000825111156124ea5781518083602001fd5b806040517f08c379a000000000000000000000000000000000000000000000000000000000815260040161251e91906129d2565b60405180910390fd5b60405180610140016040528060008152602001600073ffffffffffffffffffffffffffffffffffffffff168152602001600073ffffffffffffffffffffffffffffffffffffffff168152602001600073ffffffffffffffffffffffffffffffffffffffff168152602001600073ffffffffffffffffffffffffffffffffffffffff1681526020016000815260200160008152602001600081526020016000151581526020016000151581525090565b6000604051905090565b600080fd5b600080fd5b6000819050919050565b6125fd816125ea565b811461260857600080fd5b50565b60008135905061261a816125f4565b92915050565b600060208284031215612636576126356125e0565b5b60006126448482850161260b565b91505092915050565b600073ffffffffffffffffffffffffffffffffffffffff82169050919050565b60006126788261264d565b9050919050565b6126888161266d565b811461269357600080fd5b50565b6000813590506126a58161267f565b92915050565b600080600080600060a086880312156126c7576126c66125e0565b5b60006126d588828901612696565b95505060206126e688828901612696565b94505060406126f78882890161260b565b93505060606127088882890161260b565b92505060806127198882890161260b565b9150509295509295909350565b61272f816125ea565b82525050565b600060208201905061274a6000830184612726565b92915050565b600060208284031215612766576127656125e0565b5b600061277484828501612696565b91505092915050565b600080fd5b600080fd5b6000601f19601f8301169050919050565b7f4e487b7100000000000000000000000000000000000000000000000000000000600052604160045260246000fd5b6127d082612787565b810181811067ffffffffffffffff821117156127ef576127ee612798565b5b80604052505050565b60006128026125d6565b905061280e82826127c7565b919050565b600067ffffffffffffffff82111561282e5761282d612798565b5b61283782612787565b9050602081019050919050565b82818337600083830152505050565b600061286661286184612813565b6127f8565b90508281526020810184848401111561288257612881612782565b5b61288d848285612844565b509392505050565b600082601f8301126128aa576128a961277d565b5b81356128ba848260208601612853565b91505092915050565b600080604083850312156128da576128d96125e0565b5b60006128e885828601612696565b925050602083013567ffffffffffffffff811115612909576129086125e5565b5b61291585828601612895565b9150509250929050565b6000819050919050565b6129328161291f565b82525050565b600060208201905061294d6000830184612929565b92915050565b600081519050919050565b600082825260208201905092915050565b60005b8381101561298d578082015181840152602081019050612972565b60008484015250505050565b60006129a482612953565b6129ae818561295e565b93506129be81856020860161296f565b6129c781612787565b840191505092915050565b600060208201905081810360008301526129ec8184612999565b905092915050565b60008115159050919050565b612a09816129f4565b82525050565b6000602082019050612a246000830184612a00565b92915050565b612a33816125ea565b82525050565b6000612a448261264d565b9050919050565b612a5481612a39565b82525050565b612a638161266d565b82525050565b612a72816129f4565b82525050565b61014082016000820151612a8f6000850182612a2a565b506020820151612aa26020850182612a4b565b506040820151612ab56040850182612a4b565b506060820151612ac86060850182612a5a565b506080820151612adb6080850182612a5a565b5060a0820151612aee60a0850182612a2a565b5060c0820151612b0160c0850182612a2a565b5060e0820151612b1460e0850182612a2a565b50610100820151612b29610100850182612a69565b50610120820151612b3e610120850182612a69565b50505050565b600061014082019050612b5a6000830184612a78565b92915050565b600081519050919050565b600082825260208201905092915050565b6000819050602082019050919050565b61014082016000820151612ba36000850182612a2a565b506020820151612bb66020850182612a4b565b506040820151612bc96040850182612a4b565b506060820151612bdc6060850182612a5a565b506080820151612bef6080850182612a5a565b5060a0820151612c0260a0850182612a2a565b5060c0820151612c1560c0850182612a2a565b5060e0820151612c2860e0850182612a2a565b50610100820151612c3d610100850182612a69565b50610120820151612c52610120850182612a69565b50505050565b6000612c648383612b8c565b6101408301905092915050565b6000602082019050919050565b6000612c8982612b60565b612c938185612b6b565b9350612c9e83612b7c565b8060005b83811015612ccf578151612cb68882612c58565b9750612cc183612c71565b925050600181019050612ca2565b5085935050505092915050565b60006020820190508181036000830152612cf68184612c7e565b905092915050565b612d078161266d565b82525050565b6000602082019050612d226000830184612cfe565b92915050565b7f596f7520617265206e6f74207468652063726561746f72206f6620746869732060008201527f7472616465210000000000000000000000000000000000000000000000000000602082015250565b6000612d8460268361295e565b9150612d8f82612d28565b604082019050919050565b60006020820190508181036000830152612db381612d77565b9050919050565b7f547261646520697320616c72656164792063616e63656c6c6564000000000000600082015250565b6000612df0601a8361295e565b9150612dfb82612dba565b602082019050919050565b60006020820190508181036000830152612e1f81612de3565b9050919050565b7f547261646520697320616c726561647920736f6c640000000000000000000000600082015250565b6000612e5c60158361295e565b9150612e6782612e26565b602082019050919050565b60006020820190508181036000830152612e8b81612e4f565b9050919050565b6000604082019050612ea76000830185612cfe565b612eb46020830184612726565b9392505050565b612ec4816129f4565b8114612ecf57600080fd5b50565b600081519050612ee181612ebb565b92915050565b600060208284031215612efd57612efc6125e0565b5b6000612f0b84828501612ed2565b91505092915050565b7f596f7520646f6e2774206861766520656e6f75676820616d6f756e74206f662060008201527f6e617469766520746f6b656e7320746f20706179207468652066656573000000602082015250565b6000612f70603d8361295e565b9150612f7b82612f14565b604082019050919050565b60006020820190508181036000830152612f9f81612f63565b9050919050565b6000606082019050612fbb6000830186612cfe565b612fc86020830185612cfe565b612fd56040830184612726565b949350505050565b7f46756e6374696f6e206d7573742062652063616c6c6564207468726f7567682060008201527f64656c656761746563616c6c0000000000000000000000000000000000000000602082015250565b6000613039602c8361295e565b915061304482612fdd565b604082019050919050565b600060208201905081810360008301526130688161302c565b9050919050565b7f46756e6374696f6e206d7573742062652063616c6c6564207468726f7567682060008201527f6163746976652070726f78790000000000000000000000000000000000000000602082015250565b60006130cb602c8361295e565b91506130d68261306f565b604082019050919050565b600060208201905081810360008301526130fa816130be565b9050919050565b7f555550535570677261646561626c653a206d757374206e6f742062652063616c60008201527f6c6564207468726f7567682064656c656761746563616c6c0000000000000000602082015250565b600061315d60388361295e565b915061316882613101565b604082019050919050565b6000602082019050818103600083015261318c81613150565b9050919050565b7f4e487b7100000000000000000000000000000000000000000000000000000000600052603260045260246000fd5b7f4e487b7100000000000000000000000000000000000000000000000000000000600052601160045260246000fd5b60006131fc826125ea565b91507fffffffffffffffffffffffffffffffffffffffffffffffffffffffffffffffff820361322e5761322d6131c2565b5b600182019050919050565b6000613244826125ea565b915061324f836125ea565b9250828201905080821115613267576132666131c2565b5b92915050565b60008151905061327c816125f4565b92915050565b600060208284031215613298576132976125e0565b5b60006132a68482850161326d565b91505092915050565b7f596f7520646f6e277420686176652074686520656e6f7567682066756e64732060008201527f746f2065786368616e6765210000000000000000000000000000000000000000602082015250565b600061330b602c8361295e565b9150613316826132af565b604082019050919050565b6000602082019050818103600083015261333a816132fe565b9050919050565b7f5468697320747261646520697320616c726561647920736f6c64210000000000600082015250565b6000613377601b8361295e565b915061338282613341565b602082019050919050565b600060208201905081810360008301526133a68161336a565b9050919050565b7f546869732074726164652069732063616e63656c6c6564210000000000000000600082015250565b60006133e360188361295e565b91506133ee826133ad565b602082019050919050565b60006020820190508181036000830152613412816133d6565b9050919050565b7f54686520747261646520697320696e76616c6964210000000000000000000000600082015250565b600061344f60158361295e565b915061345a82613419565b602082019050919050565b6000602082019050818103600083015261347e81613442565b9050919050565b6000819050919050565b60006134aa6134a56134a08461264d565b613485565b61264d565b9050919050565b60006134bc8261348f565b9050919050565b60006134ce826134b1565b9050919050565b6134de816134c3565b82525050565b60006060820190506134f96000830186612cfe565b61350660208301856134d5565b6135136040830184612726565b949350505050565b7f4f6e6c79206f776e657220697320616c6c6f77656420746f20646f207468697360008201527f20616374696f6e00000000000000000000000000000000000000000000000000602082015250565b600061357760278361295e565b91506135828261351b565b604082019050919050565b600060208201905081810360008301526135a68161356a565b9050919050565b7f4f776e61626c653a206e6577206f776e657220697320746865207a65726f206160008201527f6464726573730000000000000000000000000000000000000000000000000000602082015250565b600061360960268361295e565b9150613614826135ad565b604082019050919050565b60006020820190508181036000830152613638816135fc565b9050919050565b7f496e697469616c697a61626c653a20636f6e747261637420697320616c72656160008201527f647920696e697469616c697a6564000000000000000000000000000000000000602082015250565b600061369b602e8361295e565b91506136a68261363f565b604082019050919050565b600060208201905081810360008301526136ca8161368e565b9050919050565b6000819050919050565b600060ff82169050919050565b60006137036136fe6136f9846136d1565b613485565b6136db565b9050919050565b613713816136e8565b82525050565b600060208201905061372e600083018461370a565b92915050565b7f5265656e7472616e637947756172643a207265656e7472616e742063616c6c00600082015250565b600061376a601f8361295e565b915061377582613734565b602082019050919050565b600060208201905081810360008301526137998161375d565b9050919050565b6137a98161291f565b81146137b457600080fd5b50565b6000815190506137c6816137a0565b92915050565b6000602082840312156137e2576137e16125e0565b5b60006137f0848285016137b7565b91505092915050565b7f45524331393637557067726164653a206e657720696d706c656d656e7461746960008201527f6f6e206973206e6f742055555053000000000000000000000000000000000000602082015250565b6000613855602e8361295e565b9150613860826137f9565b604082019050919050565b6000602082019050818103600083015261388481613848565b9050919050565b7f45524331393637557067726164653a20756e737570706f727465642070726f7860008201527f6961626c65555549440000000000000000000000000000000000000000000000602082015250565b60006138e760298361295e565b91506138f28261388b565b604082019050919050565b60006020820190508181036000830152613916816138da565b9050919050565b7f4f776e61626c653a2063616c6c6572206973206e6f7420746865206f776e6572600082015250565b600061395360208361295e565b915061395e8261391d565b602082019050919050565b6000602082019050818103600083015261398281613946565b9050919050565b7f496e697469616c697a61626c653a20636f6e7472616374206973206e6f74206960008201527f6e697469616c697a696e67000000000000000000000000000000000000000000602082015250565b60006139e5602b8361295e565b91506139f082613989565b604082019050919050565b60006020820190508181036000830152613a14816139d8565b9050919050565b7f455243313936373a206e657720696d706c656d656e746174696f6e206973206e60008201527f6f74206120636f6e747261637400000000000000000000000000000000000000602082015250565b6000613a77602d8361295e565b9150613a8282613a1b565b604082019050919050565b60006020820190508181036000830152613aa681613a6a565b9050919050565b7f5061757361626c653a206e6f7420706175736564000000000000000000000000600082015250565b6000613ae360148361295e565b9150613aee82613aad565b602082019050919050565b60006020820190508181036000830152613b1281613ad6565b9050919050565b7f5061757361626c653a2070617573656400000000000000000000000000000000600082015250565b6000613b4f60108361295e565b9150613b5a82613b19565b602082019050919050565b60006020820190508181036000830152613b7e81613b42565b9050919050565b7f416464726573733a2064656c65676174652063616c6c20746f206e6f6e2d636f60008201527f6e74726163740000000000000000000000000000000000000000000000000000602082015250565b6000613be160268361295e565b9150613bec82613b85565b604082019050919050565b60006020820190508181036000830152613c1081613bd4565b9050919050565b600081519050919050565b600081905092915050565b6000613c3882613c17565b613c428185613c22565b9350613c5281856020860161296f565b80840191505092915050565b6000613c6a8284613c2d565b91508190509291505056fe416464726573733a206c6f772d6c6576656c2064656c65676174652063616c6c206661696c6564a264697066735822122018c4d2111aca8b5ba9af5610e8d67fa80a7a2946459e23b55b5a6bef99e37bd164736f6c63430008110033",
  "linkReferences": {},
  "deployedLinkReferences": {}
}