{
  "_format": "hh-sol-artifact-1",
  "contractName": "MikosavaOTC_V226",
  "sourceName": "contracts/MikosavaOTC_V226.sol",
  "abi": [
    {
      "inputs": [],
      "stateMutability": "nonpayable",
      "type": "constructor"
    },
    {
      "anonymous": false,
      "inputs": [
        {
          "indexed": false,
          "internalType": "address",
          "name": "previousAdmin",
          "type": "address"
        },
        {
          "indexed": false,
          "internalType": "address",
          "name": "newAdmin",
          "type": "address"
        }
      ],
      "name": "AdminChanged",
      "type": "event"
    },
    {
      "anonymous": false,
      "inputs": [
        {
          "indexed": true,
          "internalType": "address",
          "name": "beacon",
          "type": "address"
        }
      ],
      "name": "BeaconUpgraded",
      "type": "event"
    },
    {
      "anonymous": false,
      "inputs": [
        {
          "indexed": false,
          "internalType": "uint8",
          "name": "version",
          "type": "uint8"
        }
      ],
      "name": "Initialized",
      "type": "event"
    },
    {
      "anonymous": false,
      "inputs": [
        {
          "indexed": true,
          "internalType": "address",
          "name": "previousOwner",
          "type": "address"
        },
        {
          "indexed": true,
          "internalType": "address",
          "name": "newOwner",
          "type": "address"
        }
      ],
      "name": "OwnershipTransferred",
      "type": "event"
    },
    {
      "anonymous": false,
      "inputs": [
        {
          "indexed": false,
          "internalType": "address",
          "name": "account",
          "type": "address"
        }
      ],
      "name": "Paused",
      "type": "event"
    },
    {
      "anonymous": false,
      "inputs": [
        {
          "indexed": false,
          "internalType": "address",
          "name": "account",
          "type": "address"
        }
      ],
      "name": "Unpaused",
      "type": "event"
    },
    {
      "anonymous": false,
      "inputs": [
        {
          "indexed": true,
          "internalType": "address",
          "name": "implementation",
          "type": "address"
        }
      ],
      "name": "Upgraded",
      "type": "event"
    },
    {
      "inputs": [
        {
          "internalType": "uint256",
          "name": "coinTradePositionId",
          "type": "uint256"
        }
      ],
      "name": "cancellOTCCPosition",
      "outputs": [],
      "stateMutability": "payable",
      "type": "function"
    },
    {
      "inputs": [
        {
          "internalType": "uint256",
          "name": "coinTradePositionId",
          "type": "uint256"
        }
      ],
      "name": "closeOTCCPosition",
      "outputs": [],
      "stateMutability": "payable",
      "type": "function"
    },
    {
      "inputs": [
        {
          "internalType": "address",
          "name": "coinAAddress",
          "type": "address"
        },
        {
          "internalType": "address",
          "name": "coinBAddress",
          "type": "address"
        },
        {
          "internalType": "uint256",
          "name": "amountCoinA",
          "type": "uint256"
        },
        {
          "internalType": "uint256",
          "name": "amountCoinB",
          "type": "uint256"
        },
        {
          "internalType": "uint256",
          "name": "validUntil",
          "type": "uint256"
        },
        {
          "internalType": "bool",
          "name": "isPublic",
          "type": "bool"
        },
        {
          "internalType": "address",
          "name": "acceptedCounterPart",
          "type": "address"
        }
      ],
      "name": "createOTCCPosition",
      "outputs": [],
      "stateMutability": "payable",
      "type": "function"
    },
    {
      "inputs": [],
      "name": "fetchAllCoinTrades",
      "outputs": [
        {
          "components": [
            {
              "internalType": "uint256",
              "name": "tradeId",
              "type": "uint256"
            },
            {
              "internalType": "address payable",
              "name": "creator",
              "type": "address"
            },
            {
              "internalType": "address payable",
              "name": "counterpart",
              "type": "address"
            },
            {
              "internalType": "address",
              "name": "coinCreator",
              "type": "address"
            },
            {
              "internalType": "address",
              "name": "coinCounterpart",
              "type": "address"
            },
            {
              "internalType": "uint256",
              "name": "amountPositionCreator",
              "type": "uint256"
            },
            {
              "internalType": "uint256",
              "name": "amountPositionCounterpart",
              "type": "uint256"
            },
            {
              "internalType": "uint256",
              "name": "validUntil",
              "type": "uint256"
            },
            {
              "internalType": "bool",
              "name": "sold",
              "type": "bool"
            },
            {
              "internalType": "bool",
              "name": "cancelled",
              "type": "bool"
            },
            {
              "internalType": "bool",
              "name": "publicTrade",
              "type": "bool"
            },
            {
              "internalType": "uint256",
              "name": "createdAt",
              "type": "uint256"
            },
            {
              "internalType": "address",
              "name": "acceptedCounterpart",
              "type": "address"
            }
          ],
          "internalType": "struct MikosavaOTC_V226.OTCCTrade[]",
          "name": "",
          "type": "tuple[]"
        }
      ],
      "stateMutability": "view",
      "type": "function"
    },
    {
      "inputs": [
        {
          "internalType": "uint256",
          "name": "tradeId",
          "type": "uint256"
        }
      ],
      "name": "fetchCoinTradeById",
      "outputs": [
        {
          "components": [
            {
              "internalType": "uint256",
              "name": "tradeId",
              "type": "uint256"
            },
            {
              "internalType": "address payable",
              "name": "creator",
              "type": "address"
            },
            {
              "internalType": "address payable",
              "name": "counterpart",
              "type": "address"
            },
            {
              "internalType": "address",
              "name": "coinCreator",
              "type": "address"
            },
            {
              "internalType": "address",
              "name": "coinCounterpart",
              "type": "address"
            },
            {
              "internalType": "uint256",
              "name": "amountPositionCreator",
              "type": "uint256"
            },
            {
              "internalType": "uint256",
              "name": "amountPositionCounterpart",
              "type": "uint256"
            },
            {
              "internalType": "uint256",
              "name": "validUntil",
              "type": "uint256"
            },
            {
              "internalType": "bool",
              "name": "sold",
              "type": "bool"
            },
            {
              "internalType": "bool",
              "name": "cancelled",
              "type": "bool"
            },
            {
              "internalType": "bool",
              "name": "publicTrade",
              "type": "bool"
            },
            {
              "internalType": "uint256",
              "name": "createdAt",
              "type": "uint256"
            },
            {
              "internalType": "address",
              "name": "acceptedCounterpart",
              "type": "address"
            }
          ],
          "internalType": "struct MikosavaOTC_V226.OTCCTrade",
          "name": "",
          "type": "tuple"
        }
      ],
      "stateMutability": "view",
      "type": "function"
    },
    {
      "inputs": [],
      "name": "fetchMyCoinTrades",
      "outputs": [
        {
          "components": [
            {
              "internalType": "uint256",
              "name": "tradeId",
              "type": "uint256"
            },
            {
              "internalType": "address payable",
              "name": "creator",
              "type": "address"
            },
            {
              "internalType": "address payable",
              "name": "counterpart",
              "type": "address"
            },
            {
              "internalType": "address",
              "name": "coinCreator",
              "type": "address"
            },
            {
              "internalType": "address",
              "name": "coinCounterpart",
              "type": "address"
            },
            {
              "internalType": "uint256",
              "name": "amountPositionCreator",
              "type": "uint256"
            },
            {
              "internalType": "uint256",
              "name": "amountPositionCounterpart",
              "type": "uint256"
            },
            {
              "internalType": "uint256",
              "name": "validUntil",
              "type": "uint256"
            },
            {
              "internalType": "bool",
              "name": "sold",
              "type": "bool"
            },
            {
              "internalType": "bool",
              "name": "cancelled",
              "type": "bool"
            },
            {
              "internalType": "bool",
              "name": "publicTrade",
              "type": "bool"
            },
            {
              "internalType": "uint256",
              "name": "createdAt",
              "type": "uint256"
            },
            {
              "internalType": "address",
              "name": "acceptedCounterpart",
              "type": "address"
            }
          ],
          "internalType": "struct MikosavaOTC_V226.OTCCTrade[]",
          "name": "",
          "type": "tuple[]"
        }
      ],
      "stateMutability": "view",
      "type": "function"
    },
    {
      "inputs": [],
      "name": "getCoinFee",
      "outputs": [
        {
          "internalType": "uint256",
          "name": "",
          "type": "uint256"
        }
      ],
      "stateMutability": "view",
      "type": "function"
    },
    {
      "inputs": [
        {
          "internalType": "uint256",
          "name": "coinFeeParam",
          "type": "uint256"
        }
      ],
      "name": "initialize",
      "outputs": [],
      "stateMutability": "nonpayable",
      "type": "function"
    },
    {
      "inputs": [],
      "name": "owner",
      "outputs": [
        {
          "internalType": "address",
          "name": "",
          "type": "address"
        }
      ],
      "stateMutability": "view",
      "type": "function"
    },
    {
      "inputs": [],
      "name": "pause",
      "outputs": [],
      "stateMutability": "nonpayable",
      "type": "function"
    },
    {
      "inputs": [],
      "name": "paused",
      "outputs": [
        {
          "internalType": "bool",
          "name": "",
          "type": "bool"
        }
      ],
      "stateMutability": "view",
      "type": "function"
    },
    {
      "inputs": [],
      "name": "proxiableUUID",
      "outputs": [
        {
          "internalType": "bytes32",
          "name": "",
          "type": "bytes32"
        }
      ],
      "stateMutability": "view",
      "type": "function"
    },
    {
      "inputs": [],
      "name": "renounceOwnership",
      "outputs": [],
      "stateMutability": "nonpayable",
      "type": "function"
    },
    {
      "inputs": [
        {
          "internalType": "uint256",
          "name": "newCoinFee",
          "type": "uint256"
        }
      ],
      "name": "setCoinFee",
      "outputs": [],
      "stateMutability": "nonpayable",
      "type": "function"
    },
    {
      "inputs": [
        {
          "internalType": "address",
          "name": "newOwner",
          "type": "address"
        }
      ],
      "name": "transferOwnership",
      "outputs": [],
      "stateMutability": "nonpayable",
      "type": "function"
    },
    {
      "inputs": [],
      "name": "unpause",
      "outputs": [],
      "stateMutability": "nonpayable",
      "type": "function"
    },
    {
      "inputs": [
        {
          "internalType": "address",
          "name": "newImplementation",
          "type": "address"
        }
      ],
      "name": "upgradeTo",
      "outputs": [],
      "stateMutability": "nonpayable",
      "type": "function"
    },
    {
      "inputs": [
        {
          "internalType": "address",
          "name": "newImplementation",
          "type": "address"
        },
        {
          "internalType": "bytes",
          "name": "data",
          "type": "bytes"
        }
      ],
      "name": "upgradeToAndCall",
      "outputs": [],
      "stateMutability": "payable",
      "type": "function"
    },
    {
      "inputs": [],
      "name": "version",
      "outputs": [
        {
          "internalType": "string",
          "name": "",
          "type": "string"
        }
      ],
      "stateMutability": "pure",
      "type": "function"
    }
  ],
  "bytecode": "0x60a06040523073ffffffffffffffffffffffffffffffffffffffff1660809073ffffffffffffffffffffffffffffffffffffffff168152503480156200004457600080fd5b50620000556200005b60201b60201c565b62000206565b600060019054906101000a900460ff1615620000ae576040517f08c379a0000000000000000000000000000000000000000000000000000000008152600401620000a590620001a9565b60405180910390fd5b60ff801660008054906101000a900460ff1660ff161015620001205760ff6000806101000a81548160ff021916908360ff1602179055507f7f26b83ff96e1f2b6a682f133852f6798a09c465da95921460cefb384740249860ff604051620001179190620001e9565b60405180910390a15b565b600082825260208201905092915050565b7f496e697469616c697a61626c653a20636f6e747261637420697320696e69746960008201527f616c697a696e6700000000000000000000000000000000000000000000000000602082015250565b60006200019160278362000122565b91506200019e8262000133565b604082019050919050565b60006020820190508181036000830152620001c48162000182565b9050919050565b600060ff82169050919050565b620001e381620001cb565b82525050565b6000602082019050620002006000830184620001d8565b92915050565b6080516145796200023e600039600081816106e4015281816107720152818161087e0152818161090c0152610d5801526145796000f3fe6080604052600436106101145760003560e01c80636787be42116100a0578063a2f52f5011610064578063a2f52f5014610329578063c955758414610345578063d6d45e0114610361578063f2fde38b1461038a578063fe4b84df146103b357610114565b80636787be4214610268578063715018a6146102a55780638456cb59146102bc578063883f8a81146102d35780638da5cb5b146102fe57610114565b80634f1ef286116100e75780634f1ef286146101a05780634ff35f8e146101bc57806352d1902d146101e757806354fd4d50146102125780635c975abb1461023d57610114565b806317bc566f14610119578063280d7ae4146101355780633659cfe6146101605780633f4ba83a14610189575b600080fd5b610133600480360381019061012e9190612e53565b6103dc565b005b34801561014157600080fd5b5061014a6106d7565b6040516101579190612e8f565b60405180910390f35b34801561016c57600080fd5b5061018760048036038101906101829190612f08565b6106e2565b005b34801561019557600080fd5b5061019e61086a565b005b6101ba60048036038101906101b5919061307b565b61087c565b005b3480156101c857600080fd5b506101d16109b8565b6040516101de91906132ec565b60405180910390f35b3480156101f357600080fd5b506101fc610d54565b6040516102099190613327565b60405180910390f35b34801561021e57600080fd5b50610227610e0d565b60405161023491906133c1565b60405180910390f35b34801561024957600080fd5b50610252610e4a565b60405161025f91906133f2565b60405180910390f35b34801561027457600080fd5b5061028f600480360381019061028a9190612e53565b610e61565b60405161029c9190613518565b60405180910390f35b3480156102b157600080fd5b506102ba6111a7565b005b3480156102c857600080fd5b506102d16111bb565b005b3480156102df57600080fd5b506102e86111cd565b6040516102f591906132ec565b60405180910390f35b34801561030a57600080fd5b506103136116cc565b6040516103209190613543565b60405180910390f35b610343600480360381019061033e9190612e53565b6116f6565b005b61035f600480360381019061035a919061358a565b611d4d565b005b34801561036d57600080fd5b5061038860048036038101906103839190612e53565b6120e2565b005b34801561039657600080fd5b506103b160048036038101906103ac9190612f08565b61218e565b005b3480156103bf57600080fd5b506103da60048036038101906103d59190612e53565b612211565b005b6103e46123aa565b610130600082815260200190815260200160002060080160009054906101000a900460ff16610130600083815260200190815260200160002060080160019054906101000a900460ff16610130600084815260200190815260200160002060070154600015158315151461048d576040517f08c379a000000000000000000000000000000000000000000000000000000000815260040161048490613678565b60405180910390fd5b60001515821515146104d4576040517f08c379a00000000000000000000000000000000000000000000000000000000081526004016104cb906136e4565b60405180910390fd5b60008111156105215780421115610520576040517f08c379a000000000000000000000000000000000000000000000000000000000815260040161051790613750565b60405180910390fd5b5b3373ffffffffffffffffffffffffffffffffffffffff16610130600086815260200190815260200160002060010160009054906101000a900473ffffffffffffffffffffffffffffffffffffffff1673ffffffffffffffffffffffffffffffffffffffff16146105c6576040517f08c379a00000000000000000000000000000000000000000000000000000000081526004016105bd906137e2565b60405180910390fd5b6000610130600086815260200190815260200160002060030160009054906101000a900473ffffffffffffffffffffffffffffffffffffffff1690508073ffffffffffffffffffffffffffffffffffffffff1663a9059cbb336101306000898152602001908152602001600020600501546040518363ffffffff1660e01b8152600401610654929190613802565b6020604051808303816000875af1158015610673573d6000803e3d6000fd5b505050506040513d601f19601f820116820180604052508101906106979190613840565b506001610130600087815260200190815260200160002060080160016101000a81548160ff021916908315150217905550505050506106d46123f9565b50565b600061012f54905090565b7f000000000000000000000000000000000000000000000000000000000000000073ffffffffffffffffffffffffffffffffffffffff163073ffffffffffffffffffffffffffffffffffffffff1603610770576040517f08c379a0000000000000000000000000000000000000000000000000000000008152600401610767906138df565b60405180910390fd5b7f000000000000000000000000000000000000000000000000000000000000000073ffffffffffffffffffffffffffffffffffffffff166107af612403565b73ffffffffffffffffffffffffffffffffffffffff1614610805576040517f08c379a00000000000000000000000000000000000000000000000000000000081526004016107fc90613971565b60405180910390fd5b61080e8161245a565b61086781600067ffffffffffffffff81111561082d5761082c612f50565b5b6040519080825280601f01601f19166020018201604052801561085f5781602001600182028036833780820191505090505b506000612465565b50565b6108726125d3565b61087a612651565b565b7f000000000000000000000000000000000000000000000000000000000000000073ffffffffffffffffffffffffffffffffffffffff163073ffffffffffffffffffffffffffffffffffffffff160361090a576040517f08c379a0000000000000000000000000000000000000000000000000000000008152600401610901906138df565b60405180910390fd5b7f000000000000000000000000000000000000000000000000000000000000000073ffffffffffffffffffffffffffffffffffffffff16610949612403565b73ffffffffffffffffffffffffffffffffffffffff161461099f576040517f08c379a000000000000000000000000000000000000000000000000000000000815260040161099690613971565b60405180910390fd5b6109a88261245a565b6109b482826001612465565b5050565b606060006109c761012d6126b4565b90506000806000600190505b838111610a2d5760011515610130600083815260200190815260200160002060080160029054906101000a900460ff16151503610a1a57600183610a1791906139c0565b92505b8080610a25906139f4565b9150506109d3565b5060008267ffffffffffffffff811115610a4a57610a49612f50565b5b604051908082528060200260200182016040528015610a8357816020015b610a70612d2d565b815260200190600190039081610a685790505b5090506000600190505b848111610d4957600061013060008381526020019081526020016000209050600115158160080160029054906101000a900460ff16151503610d355780604051806101a0016040529081600082015481526020016001820160009054906101000a900473ffffffffffffffffffffffffffffffffffffffff1673ffffffffffffffffffffffffffffffffffffffff1673ffffffffffffffffffffffffffffffffffffffff1681526020016002820160009054906101000a900473ffffffffffffffffffffffffffffffffffffffff1673ffffffffffffffffffffffffffffffffffffffff1673ffffffffffffffffffffffffffffffffffffffff1681526020016003820160009054906101000a900473ffffffffffffffffffffffffffffffffffffffff1673ffffffffffffffffffffffffffffffffffffffff1673ffffffffffffffffffffffffffffffffffffffff1681526020016004820160009054906101000a900473ffffffffffffffffffffffffffffffffffffffff1673ffffffffffffffffffffffffffffffffffffffff1673ffffffffffffffffffffffffffffffffffffffff1681526020016005820154815260200160068201548152602001600782015481526020016008820160009054906101000a900460ff161515151581526020016008820160019054906101000a900460ff161515151581526020016008820160029054906101000a900460ff1615151515815260200160098201548152602001600a820160009054906101000a900473ffffffffffffffffffffffffffffffffffffffff1673ffffffffffffffffffffffffffffffffffffffff1673ffffffffffffffffffffffffffffffffffffffff1681525050838581518110610d1a57610d19613a3c565b5b6020026020010181905250600184610d3291906139c0565b93505b508080610d41906139f4565b915050610a8d565b508094505050505090565b60007f000000000000000000000000000000000000000000000000000000000000000073ffffffffffffffffffffffffffffffffffffffff163073ffffffffffffffffffffffffffffffffffffffff1614610de4576040517f08c379a0000000000000000000000000000000000000000000000000000000008152600401610ddb90613add565b60405180910390fd5b7f360894a13ba1a3210667c828492db98dca3e2076cc3735a920a3ca505d382bbc60001b905090565b60606040518060400160405280600581526020017f322e322e36000000000000000000000000000000000000000000000000000000815250905090565b6000603360009054906101000a900460ff16905090565b610e69612d2d565b6000600167ffffffffffffffff811115610e8657610e85612f50565b5b604051908082528060200260200182016040528015610ebf57816020015b610eac612d2d565b815260200190600190039081610ea45790505b5090506000610ecf61012d6126b4565b90506000600190505b81811161118157846101306000838152602001908152602001600020600001540361116e576101306000828152602001908152602001600020604051806101a0016040529081600082015481526020016001820160009054906101000a900473ffffffffffffffffffffffffffffffffffffffff1673ffffffffffffffffffffffffffffffffffffffff1673ffffffffffffffffffffffffffffffffffffffff1681526020016002820160009054906101000a900473ffffffffffffffffffffffffffffffffffffffff1673ffffffffffffffffffffffffffffffffffffffff1673ffffffffffffffffffffffffffffffffffffffff1681526020016003820160009054906101000a900473ffffffffffffffffffffffffffffffffffffffff1673ffffffffffffffffffffffffffffffffffffffff1673ffffffffffffffffffffffffffffffffffffffff1681526020016004820160009054906101000a900473ffffffffffffffffffffffffffffffffffffffff1673ffffffffffffffffffffffffffffffffffffffff1673ffffffffffffffffffffffffffffffffffffffff1681526020016005820154815260200160068201548152602001600782015481526020016008820160009054906101000a900460ff161515151581526020016008820160019054906101000a900460ff161515151581526020016008820160029054906101000a900460ff1615151515815260200160098201548152602001600a820160009054906101000a900473ffffffffffffffffffffffffffffffffffffffff1673ffffffffffffffffffffffffffffffffffffffff1673ffffffffffffffffffffffffffffffffffffffff16815250508360008151811061116257611161613a3c565b5b60200260200101819052505b8080611179906139f4565b915050610ed8565b508160008151811061119657611195613a3c565b5b602002602001015192505050919050565b6111af6125d3565b6111b960006126c2565b565b6111c36125d3565b6111cb612788565b565b606060006111dc61012d6126b4565b90506000806000600190505b8381116112ea573373ffffffffffffffffffffffffffffffffffffffff16610130600083815260200190815260200160002060010160009054906101000a900473ffffffffffffffffffffffffffffffffffffffff1673ffffffffffffffffffffffffffffffffffffffff1614806112c257503373ffffffffffffffffffffffffffffffffffffffff16610130600083815260200190815260200160002060020160009054906101000a900473ffffffffffffffffffffffffffffffffffffffff1673ffffffffffffffffffffffffffffffffffffffff16145b156112d7576001836112d491906139c0565b92505b80806112e2906139f4565b9150506111e8565b5060008267ffffffffffffffff81111561130757611306612f50565b5b60405190808252806020026020018201604052801561134057816020015b61132d612d2d565b8152602001906001900390816113255790505b5090506000600190505b8481116116c1573373ffffffffffffffffffffffffffffffffffffffff16610130600083815260200190815260200160002060010160009054906101000a900473ffffffffffffffffffffffffffffffffffffffff1673ffffffffffffffffffffffffffffffffffffffff16148061142457503373ffffffffffffffffffffffffffffffffffffffff16610130600083815260200190815260200160002060020160009054906101000a900473ffffffffffffffffffffffffffffffffffffffff1673ffffffffffffffffffffffffffffffffffffffff16145b156116ae5760006101306000838152602001908152602001600020905080604051806101a0016040529081600082015481526020016001820160009054906101000a900473ffffffffffffffffffffffffffffffffffffffff1673ffffffffffffffffffffffffffffffffffffffff1673ffffffffffffffffffffffffffffffffffffffff1681526020016002820160009054906101000a900473ffffffffffffffffffffffffffffffffffffffff1673ffffffffffffffffffffffffffffffffffffffff1673ffffffffffffffffffffffffffffffffffffffff1681526020016003820160009054906101000a900473ffffffffffffffffffffffffffffffffffffffff1673ffffffffffffffffffffffffffffffffffffffff1673ffffffffffffffffffffffffffffffffffffffff1681526020016004820160009054906101000a900473ffffffffffffffffffffffffffffffffffffffff1673ffffffffffffffffffffffffffffffffffffffff1673ffffffffffffffffffffffffffffffffffffffff1681526020016005820154815260200160068201548152602001600782015481526020016008820160009054906101000a900460ff161515151581526020016008820160019054906101000a900460ff161515151581526020016008820160029054906101000a900460ff1615151515815260200160098201548152602001600a820160009054906101000a900473ffffffffffffffffffffffffffffffffffffffff1673ffffffffffffffffffffffffffffffffffffffff1673ffffffffffffffffffffffffffffffffffffffff168152505083858151811061169257611691613a3c565b5b60200260200101819052506001846116aa91906139c0565b9350505b80806116b9906139f4565b91505061134a565b508094505050505090565b6000606560009054906101000a900473ffffffffffffffffffffffffffffffffffffffff16905090565b6116fe6123aa565b610130600082815260200190815260200160002060080160009054906101000a900460ff16610130600083815260200190815260200160002060080160019054906101000a900460ff1661013060008481526020019081526020016000206007015460001515831515146117a7576040517f08c379a000000000000000000000000000000000000000000000000000000000815260040161179e90613678565b60405180910390fd5b60001515821515146117ee576040517f08c379a00000000000000000000000000000000000000000000000000000000081526004016117e5906136e4565b60405180910390fd5b600081111561183b578042111561183a576040517f08c379a000000000000000000000000000000000000000000000000000000000815260040161183190613750565b60405180910390fd5b5b600073ffffffffffffffffffffffffffffffffffffffff166101306000868152602001908152602001600020600a0160009054906101000a900473ffffffffffffffffffffffffffffffffffffffff1673ffffffffffffffffffffffffffffffffffffffff16148061190f57503373ffffffffffffffffffffffffffffffffffffffff166101306000868152602001908152602001600020600a0160009054906101000a900473ffffffffffffffffffffffffffffffffffffffff1673ffffffffffffffffffffffffffffffffffffffff16145b61194e576040517f08c379a000000000000000000000000000000000000000000000000000000000815260040161194590613b6f565b60405180910390fd5b61012f54341015611994576040517f08c379a000000000000000000000000000000000000000000000000000000000815260040161198b90613c01565b60405180910390fd5b6000610130600086815260200190815260200160002060040160009054906101000a900473ffffffffffffffffffffffffffffffffffffffff16905060008173ffffffffffffffffffffffffffffffffffffffff166370a08231336040518263ffffffff1660e01b8152600401611a0b9190613543565b602060405180830381865afa158015611a28573d6000803e3d6000fd5b505050506040513d601f19601f82011682018060405250810190611a4c9190613c36565b9050610130600087815260200190815260200160002060060154811015611aa8576040517f08c379a0000000000000000000000000000000000000000000000000000000008152600401611a9f90613cd5565b60405180910390fd5b8173ffffffffffffffffffffffffffffffffffffffff166323b872dd3361013060008a815260200190815260200160002060010160009054906101000a900473ffffffffffffffffffffffffffffffffffffffff1661013060008b8152602001908152602001600020600601546040518463ffffffff1660e01b8152600401611b3393929190613d54565b6020604051808303816000875af1158015611b52573d6000803e3d6000fd5b505050506040513d601f19601f82011682018060405250810190611b769190613840565b506000610130600088815260200190815260200160002060030160009054906101000a900473ffffffffffffffffffffffffffffffffffffffff1690508073ffffffffffffffffffffffffffffffffffffffff1663a9059cbb3361013060008b8152602001908152602001600020600501546040518363ffffffff1660e01b8152600401611c05929190613802565b6020604051808303816000875af1158015611c24573d6000803e3d6000fd5b505050506040513d601f19601f82011682018060405250810190611c489190613840565b5033610130600089815260200190815260200160002060020160006101000a81548173ffffffffffffffffffffffffffffffffffffffff021916908373ffffffffffffffffffffffffffffffffffffffff1602179055506001610130600089815260200190815260200160002060080160006101000a81548160ff02191690831515021790555061012e60009054906101000a900473ffffffffffffffffffffffffffffffffffffffff1673ffffffffffffffffffffffffffffffffffffffff166108fc61012f549081150290604051600060405180830381858888f19350505050158015611d3b573d6000803e3d6000fd5b50505050505050611d4a6123f9565b50565b611d556123aa565b611d6061012d6127eb565b6000611d6d61012d6126b4565b9050604051806101a001604052808281526020013373ffffffffffffffffffffffffffffffffffffffff168152602001600073ffffffffffffffffffffffffffffffffffffffff1681526020018973ffffffffffffffffffffffffffffffffffffffff1681526020018873ffffffffffffffffffffffffffffffffffffffff16815260200187815260200186815260200185815260200160001515815260200160001515815260200184151581526020014281526020018373ffffffffffffffffffffffffffffffffffffffff1681525061013060008381526020019081526020016000206000820151816000015560208201518160010160006101000a81548173ffffffffffffffffffffffffffffffffffffffff021916908373ffffffffffffffffffffffffffffffffffffffff16021790555060408201518160020160006101000a81548173ffffffffffffffffffffffffffffffffffffffff021916908373ffffffffffffffffffffffffffffffffffffffff16021790555060608201518160030160006101000a81548173ffffffffffffffffffffffffffffffffffffffff021916908373ffffffffffffffffffffffffffffffffffffffff16021790555060808201518160040160006101000a81548173ffffffffffffffffffffffffffffffffffffffff021916908373ffffffffffffffffffffffffffffffffffffffff16021790555060a0820151816005015560c0820151816006015560e082015181600701556101008201518160080160006101000a81548160ff0219169083151502179055506101208201518160080160016101000a81548160ff0219169083151502179055506101408201518160080160026101000a81548160ff021916908315150217905550610160820151816009015561018082015181600a0160006101000a81548173ffffffffffffffffffffffffffffffffffffffff021916908373ffffffffffffffffffffffffffffffffffffffff1602179055509050508773ffffffffffffffffffffffffffffffffffffffff166323b872dd3330896040518463ffffffff1660e01b815260040161208c93929190613d8b565b6020604051808303816000875af11580156120ab573d6000803e3d6000fd5b505050506040513d601f19601f820116820180604052508101906120cf9190613840565b50506120d96123f9565b50505050505050565b6120ea6123aa565b61012e60009054906101000a900473ffffffffffffffffffffffffffffffffffffffff1673ffffffffffffffffffffffffffffffffffffffff163373ffffffffffffffffffffffffffffffffffffffff161461217b576040517f08c379a000000000000000000000000000000000000000000000000000000000815260040161217290613e34565b60405180910390fd5b8061012f8190555061218b6123f9565b50565b6121966125d3565b600073ffffffffffffffffffffffffffffffffffffffff168173ffffffffffffffffffffffffffffffffffffffff1603612205576040517f08c379a00000000000000000000000000000000000000000000000000000000081526004016121fc90613ec6565b60405180910390fd5b61220e816126c2565b50565b60008060019054906101000a900460ff161590508080156122425750600160008054906101000a900460ff1660ff16105b8061226f575061225130612801565b15801561226e5750600160008054906101000a900460ff1660ff16145b5b6122ae576040517f08c379a00000000000000000000000000000000000000000000000000000000081526004016122a590613f58565b60405180910390fd5b60016000806101000a81548160ff021916908360ff16021790555080156122eb576001600060016101000a81548160ff0219169083151502179055505b8161012f819055506122fb612824565b61230361287d565b61230b6128d6565b3361012e60006101000a81548173ffffffffffffffffffffffffffffffffffffffff021916908373ffffffffffffffffffffffffffffffffffffffff16021790555080156123a65760008060016101000a81548160ff0219169083151502179055507f7f26b83ff96e1f2b6a682f133852f6798a09c465da95921460cefb3847402498600160405161239d9190613fc0565b60405180910390a15b5050565b600260fb54036123ef576040517f08c379a00000000000000000000000000000000000000000000000000000000081526004016123e690614027565b60405180910390fd5b600260fb81905550565b600160fb81905550565b60006124317f360894a13ba1a3210667c828492db98dca3e2076cc3735a920a3ca505d382bbc60001b612927565b60000160009054906101000a900473ffffffffffffffffffffffffffffffffffffffff16905090565b6124626125d3565b50565b6124917f4910fdfa16fed3260ed0e7147f7cc6da11a60208b5b9406d12a635614ffd914360001b612931565b60000160009054906101000a900460ff16156124b5576124b08361293b565b6125ce565b8273ffffffffffffffffffffffffffffffffffffffff166352d1902d6040518163ffffffff1660e01b8152600401602060405180830381865afa92505050801561251d57506040513d601f19601f8201168201806040525081019061251a9190614073565b60015b61255c576040517f08c379a000000000000000000000000000000000000000000000000000000000815260040161255390614112565b60405180910390fd5b7f360894a13ba1a3210667c828492db98dca3e2076cc3735a920a3ca505d382bbc60001b81146125c1576040517f08c379a00000000000000000000000000000000000000000000000000000000081526004016125b8906141a4565b60405180910390fd5b506125cd8383836129f4565b5b505050565b6125db612a20565b73ffffffffffffffffffffffffffffffffffffffff166125f96116cc565b73ffffffffffffffffffffffffffffffffffffffff161461264f576040517f08c379a000000000000000000000000000000000000000000000000000000000815260040161264690614210565b60405180910390fd5b565b612659612a28565b6000603360006101000a81548160ff0219169083151502179055507f5db9ee0a495bf2e6ff9c91a7834c1ba4fdd244a5e8aa4e537bd38aeae4b073aa61269d612a20565b6040516126aa9190613543565b60405180910390a1565b600081600001549050919050565b6000606560009054906101000a900473ffffffffffffffffffffffffffffffffffffffff16905081606560006101000a81548173ffffffffffffffffffffffffffffffffffffffff021916908373ffffffffffffffffffffffffffffffffffffffff1602179055508173ffffffffffffffffffffffffffffffffffffffff168173ffffffffffffffffffffffffffffffffffffffff167f8be0079c531659141344cd1fd0a4f28419497f9722a3daafe3b4186f6b6457e060405160405180910390a35050565b612790612a71565b6001603360006101000a81548160ff0219169083151502179055507f62e78cea01bee320cd4e420270b5ea74000d11b0c9f74754ebdbfc544b05a2586127d4612a20565b6040516127e19190613543565b60405180910390a1565b6001816000016000828254019250508190555050565b6000808273ffffffffffffffffffffffffffffffffffffffff163b119050919050565b600060019054906101000a900460ff16612873576040517f08c379a000000000000000000000000000000000000000000000000000000000815260040161286a906142a2565b60405180910390fd5b61287b612abb565b565b600060019054906101000a900460ff166128cc576040517f08c379a00000000000000000000000000000000000000000000000000000000081526004016128c3906142a2565b60405180910390fd5b6128d4612b27565b565b600060019054906101000a900460ff16612925576040517f08c379a000000000000000000000000000000000000000000000000000000000815260040161291c906142a2565b60405180910390fd5b565b6000819050919050565b6000819050919050565b61294481612801565b612983576040517f08c379a000000000000000000000000000000000000000000000000000000000815260040161297a90614334565b60405180910390fd5b806129b07f360894a13ba1a3210667c828492db98dca3e2076cc3735a920a3ca505d382bbc60001b612927565b60000160006101000a81548173ffffffffffffffffffffffffffffffffffffffff021916908373ffffffffffffffffffffffffffffffffffffffff16021790555050565b6129fd83612b88565b600082511180612a0a5750805b15612a1b57612a198383612bd7565b505b505050565b600033905090565b612a30610e4a565b612a6f576040517f08c379a0000000000000000000000000000000000000000000000000000000008152600401612a66906143a0565b60405180910390fd5b565b612a79610e4a565b15612ab9576040517f08c379a0000000000000000000000000000000000000000000000000000000008152600401612ab09061440c565b60405180910390fd5b565b600060019054906101000a900460ff16612b0a576040517f08c379a0000000000000000000000000000000000000000000000000000000008152600401612b01906142a2565b60405180910390fd5b6000603360006101000a81548160ff021916908315150217905550565b600060019054906101000a900460ff16612b76576040517f08c379a0000000000000000000000000000000000000000000000000000000008152600401612b6d906142a2565b60405180910390fd5b612b86612b81612a20565b6126c2565b565b612b918161293b565b8073ffffffffffffffffffffffffffffffffffffffff167fbc7cd75a20ee27fd9adebab32041f755214dbc6bffa90cc0225b39da2e5c2d3b60405160405180910390a250565b6060612be283612801565b612c21576040517f08c379a0000000000000000000000000000000000000000000000000000000008152600401612c189061449e565b60405180910390fd5b6000808473ffffffffffffffffffffffffffffffffffffffff1684604051612c499190614505565b600060405180830381855af49150503d8060008114612c84576040519150601f19603f3d011682016040523d82523d6000602084013e612c89565b606091505b5091509150612cb1828260405180606001604052806027815260200161451d60279139612cbb565b9250505092915050565b60608315612ccb57829050612cd6565b612cd58383612cdd565b5b9392505050565b600082511115612cf05781518083602001fd5b806040517f08c379a0000000000000000000000000000000000000000000000000000000008152600401612d2491906133c1565b60405180910390fd5b604051806101a0016040528060008152602001600073ffffffffffffffffffffffffffffffffffffffff168152602001600073ffffffffffffffffffffffffffffffffffffffff168152602001600073ffffffffffffffffffffffffffffffffffffffff168152602001600073ffffffffffffffffffffffffffffffffffffffff16815260200160008152602001600081526020016000815260200160001515815260200160001515815260200160001515815260200160008152602001600073ffffffffffffffffffffffffffffffffffffffff1681525090565b6000604051905090565b600080fd5b600080fd5b6000819050919050565b612e3081612e1d565b8114612e3b57600080fd5b50565b600081359050612e4d81612e27565b92915050565b600060208284031215612e6957612e68612e13565b5b6000612e7784828501612e3e565b91505092915050565b612e8981612e1d565b82525050565b6000602082019050612ea46000830184612e80565b92915050565b600073ffffffffffffffffffffffffffffffffffffffff82169050919050565b6000612ed582612eaa565b9050919050565b612ee581612eca565b8114612ef057600080fd5b50565b600081359050612f0281612edc565b92915050565b600060208284031215612f1e57612f1d612e13565b5b6000612f2c84828501612ef3565b91505092915050565b600080fd5b600080fd5b6000601f19601f8301169050919050565b7f4e487b7100000000000000000000000000000000000000000000000000000000600052604160045260246000fd5b612f8882612f3f565b810181811067ffffffffffffffff82111715612fa757612fa6612f50565b5b80604052505050565b6000612fba612e09565b9050612fc68282612f7f565b919050565b600067ffffffffffffffff821115612fe657612fe5612f50565b5b612fef82612f3f565b9050602081019050919050565b82818337600083830152505050565b600061301e61301984612fcb565b612fb0565b90508281526020810184848401111561303a57613039612f3a565b5b613045848285612ffc565b509392505050565b600082601f83011261306257613061612f35565b5b813561307284826020860161300b565b91505092915050565b6000806040838503121561309257613091612e13565b5b60006130a085828601612ef3565b925050602083013567ffffffffffffffff8111156130c1576130c0612e18565b5b6130cd8582860161304d565b9150509250929050565b600081519050919050565b600082825260208201905092915050565b6000819050602082019050919050565b61310c81612e1d565b82525050565b600061311d82612eaa565b9050919050565b61312d81613112565b82525050565b61313c81612eca565b82525050565b60008115159050919050565b61315781613142565b82525050565b6101a0820160008201516131746000850182613103565b5060208201516131876020850182613124565b50604082015161319a6040850182613124565b5060608201516131ad6060850182613133565b5060808201516131c06080850182613133565b5060a08201516131d360a0850182613103565b5060c08201516131e660c0850182613103565b5060e08201516131f960e0850182613103565b5061010082015161320e61010085018261314e565b5061012082015161322361012085018261314e565b5061014082015161323861014085018261314e565b5061016082015161324d610160850182613103565b50610180820151613262610180850182613133565b50505050565b6000613274838361315d565b6101a08301905092915050565b6000602082019050919050565b6000613299826130d7565b6132a381856130e2565b93506132ae836130f3565b8060005b838110156132df5781516132c68882613268565b97506132d183613281565b9250506001810190506132b2565b5085935050505092915050565b60006020820190508181036000830152613306818461328e565b905092915050565b6000819050919050565b6133218161330e565b82525050565b600060208201905061333c6000830184613318565b92915050565b600081519050919050565b600082825260208201905092915050565b60005b8381101561337c578082015181840152602081019050613361565b60008484015250505050565b600061339382613342565b61339d818561334d565b93506133ad81856020860161335e565b6133b681612f3f565b840191505092915050565b600060208201905081810360008301526133db8184613388565b905092915050565b6133ec81613142565b82525050565b600060208201905061340760008301846133e3565b92915050565b6101a0820160008201516134246000850182613103565b5060208201516134376020850182613124565b50604082015161344a6040850182613124565b50606082015161345d6060850182613133565b5060808201516134706080850182613133565b5060a082015161348360a0850182613103565b5060c082015161349660c0850182613103565b5060e08201516134a960e0850182613103565b506101008201516134be61010085018261314e565b506101208201516134d361012085018261314e565b506101408201516134e861014085018261314e565b506101608201516134fd610160850182613103565b50610180820151613512610180850182613133565b50505050565b60006101a08201905061352e600083018461340d565b92915050565b61353d81612eca565b82525050565b60006020820190506135586000830184613534565b92915050565b61356781613142565b811461357257600080fd5b50565b6000813590506135848161355e565b92915050565b600080600080600080600060e0888a0312156135a9576135a8612e13565b5b60006135b78a828b01612ef3565b97505060206135c88a828b01612ef3565b96505060406135d98a828b01612e3e565b95505060606135ea8a828b01612e3e565b94505060806135fb8a828b01612e3e565b93505060a061360c8a828b01613575565b92505060c061361d8a828b01612ef3565b91505092959891949750929550565b7f5468697320747261646520697320616c726561647920736f6c64210000000000600082015250565b6000613662601b8361334d565b915061366d8261362c565b602082019050919050565b6000602082019050818103600083015261369181613655565b9050919050565b7f546869732074726164652069732063616e63656c6c6564210000000000000000600082015250565b60006136ce60188361334d565b91506136d982613698565b602082019050919050565b600060208201905081810360008301526136fd816136c1565b9050919050565b7f54686520747261646520697320696e76616c6964210000000000000000000000600082015250565b600061373a60158361334d565b915061374582613704565b602082019050919050565b600060208201905081810360008301526137698161372d565b9050919050565b7f596f7520617265206e6f74207468652063726561746f72206f6620746869732060008201527f7472616465210000000000000000000000000000000000000000000000000000602082015250565b60006137cc60268361334d565b91506137d782613770565b604082019050919050565b600060208201905081810360008301526137fb816137bf565b9050919050565b60006040820190506138176000830185613534565b6138246020830184612e80565b9392505050565b60008151905061383a8161355e565b92915050565b60006020828403121561385657613855612e13565b5b60006138648482850161382b565b91505092915050565b7f46756e6374696f6e206d7573742062652063616c6c6564207468726f7567682060008201527f64656c656761746563616c6c0000000000000000000000000000000000000000602082015250565b60006138c9602c8361334d565b91506138d48261386d565b604082019050919050565b600060208201905081810360008301526138f8816138bc565b9050919050565b7f46756e6374696f6e206d7573742062652063616c6c6564207468726f7567682060008201527f6163746976652070726f78790000000000000000000000000000000000000000602082015250565b600061395b602c8361334d565b9150613966826138ff565b604082019050919050565b6000602082019050818103600083015261398a8161394e565b9050919050565b7f4e487b7100000000000000000000000000000000000000000000000000000000600052601160045260246000fd5b60006139cb82612e1d565b91506139d683612e1d565b92508282019050808211156139ee576139ed613991565b5b92915050565b60006139ff82612e1d565b91507fffffffffffffffffffffffffffffffffffffffffffffffffffffffffffffffff8203613a3157613a30613991565b5b600182019050919050565b7f4e487b7100000000000000000000000000000000000000000000000000000000600052603260045260246000fd5b7f555550535570677261646561626c653a206d757374206e6f742062652063616c60008201527f6c6564207468726f7567682064656c656761746563616c6c0000000000000000602082015250565b6000613ac760388361334d565b9150613ad282613a6b565b604082019050919050565b60006020820190508181036000830152613af681613aba565b9050919050565b7f596f7520617265206e6f7420616c6c6f77656420746f20636c6f73652074686960008201527f7320747261646500000000000000000000000000000000000000000000000000602082015250565b6000613b5960278361334d565b9150613b6482613afd565b604082019050919050565b60006020820190508181036000830152613b8881613b4c565b9050919050565b7f596f7520646f6e2774206861766520656e6f75676820616d6f756e74206f662060008201527f6e617469766520746f6b656e7320746f20706179207468652066656573000000602082015250565b6000613beb603d8361334d565b9150613bf682613b8f565b604082019050919050565b60006020820190508181036000830152613c1a81613bde565b9050919050565b600081519050613c3081612e27565b92915050565b600060208284031215613c4c57613c4b612e13565b5b6000613c5a84828501613c21565b91505092915050565b7f596f7520646f6e277420686176652074686520656e6f7567682066756e64732060008201527f746f2065786368616e6765210000000000000000000000000000000000000000602082015250565b6000613cbf602c8361334d565b9150613cca82613c63565b604082019050919050565b60006020820190508181036000830152613cee81613cb2565b9050919050565b6000819050919050565b6000613d1a613d15613d1084612eaa565b613cf5565b612eaa565b9050919050565b6000613d2c82613cff565b9050919050565b6000613d3e82613d21565b9050919050565b613d4e81613d33565b82525050565b6000606082019050613d696000830186613534565b613d766020830185613d45565b613d836040830184612e80565b949350505050565b6000606082019050613da06000830186613534565b613dad6020830185613534565b613dba6040830184612e80565b949350505050565b7f4f6e6c79206f776e657220697320616c6c6f77656420746f20646f207468697360008201527f20616374696f6e00000000000000000000000000000000000000000000000000602082015250565b6000613e1e60278361334d565b9150613e2982613dc2565b604082019050919050565b60006020820190508181036000830152613e4d81613e11565b9050919050565b7f4f776e61626c653a206e6577206f776e657220697320746865207a65726f206160008201527f6464726573730000000000000000000000000000000000000000000000000000602082015250565b6000613eb060268361334d565b9150613ebb82613e54565b604082019050919050565b60006020820190508181036000830152613edf81613ea3565b9050919050565b7f496e697469616c697a61626c653a20636f6e747261637420697320616c72656160008201527f647920696e697469616c697a6564000000000000000000000000000000000000602082015250565b6000613f42602e8361334d565b9150613f4d82613ee6565b604082019050919050565b60006020820190508181036000830152613f7181613f35565b9050919050565b6000819050919050565b600060ff82169050919050565b6000613faa613fa5613fa084613f78565b613cf5565b613f82565b9050919050565b613fba81613f8f565b82525050565b6000602082019050613fd56000830184613fb1565b92915050565b7f5265656e7472616e637947756172643a207265656e7472616e742063616c6c00600082015250565b6000614011601f8361334d565b915061401c82613fdb565b602082019050919050565b6000602082019050818103600083015261404081614004565b9050919050565b6140508161330e565b811461405b57600080fd5b50565b60008151905061406d81614047565b92915050565b60006020828403121561408957614088612e13565b5b60006140978482850161405e565b91505092915050565b7f45524331393637557067726164653a206e657720696d706c656d656e7461746960008201527f6f6e206973206e6f742055555053000000000000000000000000000000000000602082015250565b60006140fc602e8361334d565b9150614107826140a0565b604082019050919050565b6000602082019050818103600083015261412b816140ef565b9050919050565b7f45524331393637557067726164653a20756e737570706f727465642070726f7860008201527f6961626c65555549440000000000000000000000000000000000000000000000602082015250565b600061418e60298361334d565b915061419982614132565b604082019050919050565b600060208201905081810360008301526141bd81614181565b9050919050565b7f4f776e61626c653a2063616c6c6572206973206e6f7420746865206f776e6572600082015250565b60006141fa60208361334d565b9150614205826141c4565b602082019050919050565b60006020820190508181036000830152614229816141ed565b9050919050565b7f496e697469616c697a61626c653a20636f6e7472616374206973206e6f74206960008201527f6e697469616c697a696e67000000000000000000000000000000000000000000602082015250565b600061428c602b8361334d565b915061429782614230565b604082019050919050565b600060208201905081810360008301526142bb8161427f565b9050919050565b7f455243313936373a206e657720696d706c656d656e746174696f6e206973206e60008201527f6f74206120636f6e747261637400000000000000000000000000000000000000602082015250565b600061431e602d8361334d565b9150614329826142c2565b604082019050919050565b6000602082019050818103600083015261434d81614311565b9050919050565b7f5061757361626c653a206e6f7420706175736564000000000000000000000000600082015250565b600061438a60148361334d565b915061439582614354565b602082019050919050565b600060208201905081810360008301526143b98161437d565b9050919050565b7f5061757361626c653a2070617573656400000000000000000000000000000000600082015250565b60006143f660108361334d565b9150614401826143c0565b602082019050919050565b60006020820190508181036000830152614425816143e9565b9050919050565b7f416464726573733a2064656c65676174652063616c6c20746f206e6f6e2d636f60008201527f6e74726163740000000000000000000000000000000000000000000000000000602082015250565b600061448860268361334d565b91506144938261442c565b604082019050919050565b600060208201905081810360008301526144b78161447b565b9050919050565b600081519050919050565b600081905092915050565b60006144df826144be565b6144e981856144c9565b93506144f981856020860161335e565b80840191505092915050565b600061451182846144d4565b91508190509291505056fe416464726573733a206c6f772d6c6576656c2064656c65676174652063616c6c206661696c6564a2646970667358221220f27ffc32e4ead13fa20c7435323c5d8dada6aba3766113fd563c1e0bf6b3330d64736f6c63430008110033",
  "linkReferences": {},
  "deployedLinkReferences": {}
}