{
  "_format": "hh-sol-artifact-1",
  "contractName": "MikosavaOTC",
  "sourceName": "contracts/MikosavaOTC.sol",
  "abi": [
    {
      "inputs": [],
      "stateMutability": "nonpayable",
      "type": "constructor"
    },
    {
      "anonymous": false,
      "inputs": [
        {
          "indexed": false,
          "internalType": "address",
          "name": "previousAdmin",
          "type": "address"
        },
        {
          "indexed": false,
          "internalType": "address",
          "name": "newAdmin",
          "type": "address"
        }
      ],
      "name": "AdminChanged",
      "type": "event"
    },
    {
      "anonymous": false,
      "inputs": [
        {
          "indexed": true,
          "internalType": "address",
          "name": "beacon",
          "type": "address"
        }
      ],
      "name": "BeaconUpgraded",
      "type": "event"
    },
    {
      "anonymous": false,
      "inputs": [
        {
          "indexed": false,
          "internalType": "uint8",
          "name": "version",
          "type": "uint8"
        }
      ],
      "name": "Initialized",
      "type": "event"
    },
    {
      "anonymous": false,
      "inputs": [
        {
          "indexed": true,
          "internalType": "address",
          "name": "previousOwner",
          "type": "address"
        },
        {
          "indexed": true,
          "internalType": "address",
          "name": "newOwner",
          "type": "address"
        }
      ],
      "name": "OwnershipTransferred",
      "type": "event"
    },
    {
      "anonymous": false,
      "inputs": [
        {
          "indexed": false,
          "internalType": "address",
          "name": "account",
          "type": "address"
        }
      ],
      "name": "Paused",
      "type": "event"
    },
    {
      "anonymous": false,
      "inputs": [
        {
          "indexed": false,
          "internalType": "address",
          "name": "account",
          "type": "address"
        }
      ],
      "name": "Unpaused",
      "type": "event"
    },
    {
      "anonymous": false,
      "inputs": [
        {
          "indexed": true,
          "internalType": "address",
          "name": "implementation",
          "type": "address"
        }
      ],
      "name": "Upgraded",
      "type": "event"
    },
    {
      "inputs": [
        {
          "internalType": "uint256",
          "name": "coinTradePositionId",
          "type": "uint256"
        }
      ],
      "name": "cancellOTCCPosition",
      "outputs": [],
      "stateMutability": "payable",
      "type": "function"
    },
    {
      "inputs": [
        {
          "internalType": "uint256",
          "name": "coinTradePositionId",
          "type": "uint256"
        }
      ],
      "name": "closeOTCCPosition",
      "outputs": [],
      "stateMutability": "payable",
      "type": "function"
    },
    {
      "inputs": [
        {
          "internalType": "address",
          "name": "coinAAddress",
          "type": "address"
        },
        {
          "internalType": "address",
          "name": "coinBAddress",
          "type": "address"
        },
        {
          "internalType": "uint256",
          "name": "amountCoinA",
          "type": "uint256"
        },
        {
          "internalType": "uint256",
          "name": "amountCoinB",
          "type": "uint256"
        },
        {
          "internalType": "uint256",
          "name": "validUntil",
          "type": "uint256"
        }
      ],
      "name": "createOTCCPosition",
      "outputs": [],
      "stateMutability": "payable",
      "type": "function"
    },
    {
      "inputs": [],
      "name": "fetchMyCoinTrades",
      "outputs": [
        {
          "components": [
            {
              "internalType": "uint256",
              "name": "tradeId",
              "type": "uint256"
            },
            {
              "internalType": "address payable",
              "name": "creator",
              "type": "address"
            },
            {
              "internalType": "address payable",
              "name": "counterpart",
              "type": "address"
            },
            {
              "internalType": "address",
              "name": "coinCreator",
              "type": "address"
            },
            {
              "internalType": "address",
              "name": "coinCounterpart",
              "type": "address"
            },
            {
              "internalType": "uint256",
              "name": "amountPositionCreator",
              "type": "uint256"
            },
            {
              "internalType": "uint256",
              "name": "amountPositionCounterpart",
              "type": "uint256"
            },
            {
              "internalType": "uint256",
              "name": "validUntil",
              "type": "uint256"
            },
            {
              "internalType": "bool",
              "name": "sold",
              "type": "bool"
            },
            {
              "internalType": "bool",
              "name": "cancelled",
              "type": "bool"
            }
          ],
          "internalType": "struct MikosavaOTC.OTCCTrade[]",
          "name": "",
          "type": "tuple[]"
        }
      ],
      "stateMutability": "view",
      "type": "function"
    },
    {
      "inputs": [],
      "name": "getCoinFee",
      "outputs": [
        {
          "internalType": "uint256",
          "name": "",
          "type": "uint256"
        }
      ],
      "stateMutability": "view",
      "type": "function"
    },
    {
      "inputs": [
        {
          "internalType": "uint256",
          "name": "coinFeeParam",
          "type": "uint256"
        }
      ],
      "name": "initialize",
      "outputs": [],
      "stateMutability": "nonpayable",
      "type": "function"
    },
    {
      "inputs": [],
      "name": "owner",
      "outputs": [
        {
          "internalType": "address",
          "name": "",
          "type": "address"
        }
      ],
      "stateMutability": "view",
      "type": "function"
    },
    {
      "inputs": [],
      "name": "pause",
      "outputs": [],
      "stateMutability": "nonpayable",
      "type": "function"
    },
    {
      "inputs": [],
      "name": "paused",
      "outputs": [
        {
          "internalType": "bool",
          "name": "",
          "type": "bool"
        }
      ],
      "stateMutability": "view",
      "type": "function"
    },
    {
      "inputs": [],
      "name": "proxiableUUID",
      "outputs": [
        {
          "internalType": "bytes32",
          "name": "",
          "type": "bytes32"
        }
      ],
      "stateMutability": "view",
      "type": "function"
    },
    {
      "inputs": [],
      "name": "renounceOwnership",
      "outputs": [],
      "stateMutability": "nonpayable",
      "type": "function"
    },
    {
      "inputs": [
        {
          "internalType": "uint256",
          "name": "newCoinFee",
          "type": "uint256"
        }
      ],
      "name": "setCoinFee",
      "outputs": [],
      "stateMutability": "nonpayable",
      "type": "function"
    },
    {
      "inputs": [
        {
          "internalType": "address",
          "name": "newOwner",
          "type": "address"
        }
      ],
      "name": "transferOwnership",
      "outputs": [],
      "stateMutability": "nonpayable",
      "type": "function"
    },
    {
      "inputs": [],
      "name": "unpause",
      "outputs": [],
      "stateMutability": "nonpayable",
      "type": "function"
    },
    {
      "inputs": [
        {
          "internalType": "address",
          "name": "newImplementation",
          "type": "address"
        }
      ],
      "name": "upgradeTo",
      "outputs": [],
      "stateMutability": "nonpayable",
      "type": "function"
    },
    {
      "inputs": [
        {
          "internalType": "address",
          "name": "newImplementation",
          "type": "address"
        },
        {
          "internalType": "bytes",
          "name": "data",
          "type": "bytes"
        }
      ],
      "name": "upgradeToAndCall",
      "outputs": [],
      "stateMutability": "payable",
      "type": "function"
    },
    {
      "inputs": [],
      "name": "version",
      "outputs": [
        {
          "internalType": "string",
          "name": "",
          "type": "string"
        }
      ],
      "stateMutability": "pure",
      "type": "function"
    }
  ],
  "bytecode": "0x60a06040523073ffffffffffffffffffffffffffffffffffffffff1660809073ffffffffffffffffffffffffffffffffffffffff168152503480156200004457600080fd5b50620000556200005b60201b60201c565b62000206565b600060019054906101000a900460ff1615620000ae576040517f08c379a0000000000000000000000000000000000000000000000000000000008152600401620000a590620001a9565b60405180910390fd5b60ff801660008054906101000a900460ff1660ff161015620001205760ff6000806101000a81548160ff021916908360ff1602179055507f7f26b83ff96e1f2b6a682f133852f6798a09c465da95921460cefb384740249860ff604051620001179190620001e9565b60405180910390a15b565b600082825260208201905092915050565b7f496e697469616c697a61626c653a20636f6e747261637420697320696e69746960008201527f616c697a696e6700000000000000000000000000000000000000000000000000602082015250565b60006200019160278362000122565b91506200019e8262000133565b604082019050919050565b60006020820190508181036000830152620001c48162000182565b9050919050565b600060ff82169050919050565b620001e381620001cb565b82525050565b6000602082019050620002006000830184620001d8565b92915050565b608051613a156200023e60003960008181610a8201528181610b1001528181610c1c01528181610caa0152610d5a0152613a156000f3fe6080604052600436106100fe5760003560e01c80635c975abb116100955780638da5cb5b116100645780638da5cb5b1461029c578063a2f52f50146102c7578063d6d45e01146102e3578063f2fde38b1461030c578063fe4b84df14610335576100fe565b80635c975abb14610218578063715018a6146102435780638456cb591461025a578063883f8a8114610271576100fe565b80633f4ba83a116100d15780633f4ba83a1461018f5780634f1ef286146101a657806352d1902d146101c257806354fd4d50146101ed576100fe565b806317bc566f146101035780631b2c33051461011f578063280d7ae41461013b5780633659cfe614610166575b600080fd5b61011d600480360381019061011891906123eb565b61035e565b005b61013960048036038101906101349190612476565b6105ef565b005b34801561014757600080fd5b50610150610a75565b60405161015d9190612500565b60405180910390f35b34801561017257600080fd5b5061018d6004803603810190610188919061251b565b610a80565b005b34801561019b57600080fd5b506101a4610c08565b005b6101c060048036038101906101bb919061268e565b610c1a565b005b3480156101ce57600080fd5b506101d7610d56565b6040516101e49190612703565b60405180910390f35b3480156101f957600080fd5b50610202610e0f565b60405161020f919061279d565b60405180910390f35b34801561022457600080fd5b5061022d610e4c565b60405161023a91906127da565b60405180910390f35b34801561024f57600080fd5b50610258610e63565b005b34801561026657600080fd5b5061026f610e77565b005b34801561027d57600080fd5b50610286610e89565b60405161029391906129bf565b60405180910390f35b3480156102a857600080fd5b506102b1611231565b6040516102be91906129f0565b60405180910390f35b6102e160048036038101906102dc91906123eb565b61125b565b005b3480156102ef57600080fd5b5061030a600480360381019061030591906123eb565b6116a7565b005b34801561031857600080fd5b50610333600480360381019061032e919061251b565b611753565b005b34801561034157600080fd5b5061035c600480360381019061035791906123eb565b6117d6565b005b61036661196f565b3373ffffffffffffffffffffffffffffffffffffffff16610130600083815260200190815260200160002060010160009054906101000a900473ffffffffffffffffffffffffffffffffffffffff1673ffffffffffffffffffffffffffffffffffffffff161461040b576040517f08c379a000000000000000000000000000000000000000000000000000000000815260040161040290612a7d565b60405180910390fd5b60001515610130600083815260200190815260200160002060080160019054906101000a900460ff16151514610476576040517f08c379a000000000000000000000000000000000000000000000000000000000815260040161046d90612ae9565b60405180910390fd5b60001515610130600083815260200190815260200160002060080160009054906101000a900460ff161515146104e1576040517f08c379a00000000000000000000000000000000000000000000000000000000081526004016104d890612b55565b60405180910390fd5b6000610130600083815260200190815260200160002060030160009054906101000a900473ffffffffffffffffffffffffffffffffffffffff1690508073ffffffffffffffffffffffffffffffffffffffff1663a9059cbb336101306000868152602001908152602001600020600501546040518363ffffffff1660e01b815260040161056f929190612b75565b6020604051808303816000875af115801561058e573d6000803e3d6000fd5b505050506040513d601f19601f820116820180604052508101906105b29190612bca565b506001610130600084815260200190815260200160002060080160016101000a81548160ff021916908315150217905550506105ec6119be565b50565b6105f761196f565b600085905060008173ffffffffffffffffffffffffffffffffffffffff166370a08231336040518263ffffffff1660e01b815260040161063791906129f0565b602060405180830381865afa158015610654573d6000803e3d6000fd5b505050506040513d601f19601f820116820180604052508101906106789190612c0c565b9050600061012f548661068b9190612c97565b90506000818761069b9190612cc8565b9050808310156106e0576040517f08c379a00000000000000000000000000000000000000000000000000000000081526004016106d790612d6e565b60405180910390fd5b6106eb61012d6119c8565b60006106f861012d6119de565b90506040518061014001604052808281526020013373ffffffffffffffffffffffffffffffffffffffff168152602001600073ffffffffffffffffffffffffffffffffffffffff1681526020018b73ffffffffffffffffffffffffffffffffffffffff1681526020018a73ffffffffffffffffffffffffffffffffffffffff1681526020018981526020018881526020018781526020016000151581526020016000151581525061013060008381526020019081526020016000206000820151816000015560208201518160010160006101000a81548173ffffffffffffffffffffffffffffffffffffffff021916908373ffffffffffffffffffffffffffffffffffffffff16021790555060408201518160020160006101000a81548173ffffffffffffffffffffffffffffffffffffffff021916908373ffffffffffffffffffffffffffffffffffffffff16021790555060608201518160030160006101000a81548173ffffffffffffffffffffffffffffffffffffffff021916908373ffffffffffffffffffffffffffffffffffffffff16021790555060808201518160040160006101000a81548173ffffffffffffffffffffffffffffffffffffffff021916908373ffffffffffffffffffffffffffffffffffffffff16021790555060a0820151816005015560c0820151816006015560e082015181600701556101008201518160080160006101000a81548160ff0219169083151502179055506101208201518160080160016101000a81548160ff0219169083151502179055509050508973ffffffffffffffffffffffffffffffffffffffff166323b872dd33308b6040518463ffffffff1660e01b815260040161097993929190612d8e565b6020604051808303816000875af1158015610998573d6000803e3d6000fd5b505050506040513d601f19601f820116820180604052508101906109bc9190612bca565b508973ffffffffffffffffffffffffffffffffffffffff166323b872dd3361012e60009054906101000a900473ffffffffffffffffffffffffffffffffffffffff16866040518463ffffffff1660e01b8152600401610a1d93929190612e24565b6020604051808303816000875af1158015610a3c573d6000803e3d6000fd5b505050506040513d601f19601f82011682018060405250810190610a609190612bca565b505050505050610a6e6119be565b5050505050565b600061012f54905090565b7f000000000000000000000000000000000000000000000000000000000000000073ffffffffffffffffffffffffffffffffffffffff163073ffffffffffffffffffffffffffffffffffffffff1603610b0e576040517f08c379a0000000000000000000000000000000000000000000000000000000008152600401610b0590612ecd565b60405180910390fd5b7f000000000000000000000000000000000000000000000000000000000000000073ffffffffffffffffffffffffffffffffffffffff16610b4d6119ec565b73ffffffffffffffffffffffffffffffffffffffff1614610ba3576040517f08c379a0000000000000000000000000000000000000000000000000000000008152600401610b9a90612f5f565b60405180910390fd5b610bac81611a43565b610c0581600067ffffffffffffffff811115610bcb57610bca612563565b5b6040519080825280601f01601f191660200182016040528015610bfd5781602001600182028036833780820191505090505b506000611a4e565b50565b610c10611bbc565b610c18611c3a565b565b7f000000000000000000000000000000000000000000000000000000000000000073ffffffffffffffffffffffffffffffffffffffff163073ffffffffffffffffffffffffffffffffffffffff1603610ca8576040517f08c379a0000000000000000000000000000000000000000000000000000000008152600401610c9f90612ecd565b60405180910390fd5b7f000000000000000000000000000000000000000000000000000000000000000073ffffffffffffffffffffffffffffffffffffffff16610ce76119ec565b73ffffffffffffffffffffffffffffffffffffffff1614610d3d576040517f08c379a0000000000000000000000000000000000000000000000000000000008152600401610d3490612f5f565b60405180910390fd5b610d4682611a43565b610d5282826001611a4e565b5050565b60007f000000000000000000000000000000000000000000000000000000000000000073ffffffffffffffffffffffffffffffffffffffff163073ffffffffffffffffffffffffffffffffffffffff1614610de6576040517f08c379a0000000000000000000000000000000000000000000000000000000008152600401610ddd90612ff1565b60405180910390fd5b7f360894a13ba1a3210667c828492db98dca3e2076cc3735a920a3ca505d382bbc60001b905090565b60606040518060400160405280600581526020017f312e302e30000000000000000000000000000000000000000000000000000000815250905090565b6000603360009054906101000a900460ff16905090565b610e6b611bbc565b610e756000611c9d565b565b610e7f611bbc565b610e87611d63565b565b60606000610e9861012d6119de565b90506000806000600190505b838111610f38573373ffffffffffffffffffffffffffffffffffffffff16610130600083815260200190815260200160002060010160009054906101000a900473ffffffffffffffffffffffffffffffffffffffff1673ffffffffffffffffffffffffffffffffffffffff1603610f2557600183610f229190612cc8565b92505b8080610f3090613011565b915050610ea4565b5060008267ffffffffffffffff811115610f5557610f54612563565b5b604051908082528060200260200182016040528015610f8e57816020015b610f7b6122f2565b815260200190600190039081610f735790505b5090506000600190505b848111611226573373ffffffffffffffffffffffffffffffffffffffff16610130600083815260200190815260200160002060010160009054906101000a900473ffffffffffffffffffffffffffffffffffffffff1673ffffffffffffffffffffffffffffffffffffffff1603611213576000610130600083815260200190815260200160002090508060405180610140016040529081600082015481526020016001820160009054906101000a900473ffffffffffffffffffffffffffffffffffffffff1673ffffffffffffffffffffffffffffffffffffffff1673ffffffffffffffffffffffffffffffffffffffff1681526020016002820160009054906101000a900473ffffffffffffffffffffffffffffffffffffffff1673ffffffffffffffffffffffffffffffffffffffff1673ffffffffffffffffffffffffffffffffffffffff1681526020016003820160009054906101000a900473ffffffffffffffffffffffffffffffffffffffff1673ffffffffffffffffffffffffffffffffffffffff1673ffffffffffffffffffffffffffffffffffffffff1681526020016004820160009054906101000a900473ffffffffffffffffffffffffffffffffffffffff1673ffffffffffffffffffffffffffffffffffffffff1673ffffffffffffffffffffffffffffffffffffffff1681526020016005820154815260200160068201548152602001600782015481526020016008820160009054906101000a900460ff161515151581526020016008820160019054906101000a900460ff1615151515815250508385815181106111f7576111f6613059565b5b602002602001018190525060018461120f9190612cc8565b9350505b808061121e90613011565b915050610f98565b508094505050505090565b6000606560009054906101000a900473ffffffffffffffffffffffffffffffffffffffff16905090565b61126361196f565b6000610130600083815260200190815260200160002060040160009054906101000a900473ffffffffffffffffffffffffffffffffffffffff16905060008173ffffffffffffffffffffffffffffffffffffffff166370a08231336040518263ffffffff1660e01b81526004016112da91906129f0565b602060405180830381865afa1580156112f7573d6000803e3d6000fd5b505050506040513d601f19601f8201168201806040525081019061131b9190612c0c565b9050610130600084815260200190815260200160002060060154811015611377576040517f08c379a000000000000000000000000000000000000000000000000000000000815260040161136e906130fa565b60405180910390fd5b60001515610130600085815260200190815260200160002060080160009054906101000a900460ff161515146113e2576040517f08c379a00000000000000000000000000000000000000000000000000000000081526004016113d990613166565b60405180910390fd5b60001515610130600085815260200190815260200160002060080160019054906101000a900460ff1615151461144d576040517f08c379a0000000000000000000000000000000000000000000000000000000008152600401611444906131d2565b60405180910390fd5b600061013060008581526020019081526020016000206007015411156114c8576101306000848152602001908152602001600020600701544211156114c7576040517f08c379a00000000000000000000000000000000000000000000000000000000081526004016114be9061323e565b60405180910390fd5b5b8173ffffffffffffffffffffffffffffffffffffffff166323b872dd33610130600087815260200190815260200160002060010160009054906101000a900473ffffffffffffffffffffffffffffffffffffffff166101306000888152602001908152602001600020600601546040518463ffffffff1660e01b815260040161155393929190612e24565b6020604051808303816000875af1158015611572573d6000803e3d6000fd5b505050506040513d601f19601f820116820180604052508101906115969190612bca565b506000610130600085815260200190815260200160002060030160009054906101000a900473ffffffffffffffffffffffffffffffffffffffff1690508073ffffffffffffffffffffffffffffffffffffffff1663a9059cbb336101306000888152602001908152602001600020600501546040518363ffffffff1660e01b8152600401611625929190612b75565b6020604051808303816000875af1158015611644573d6000803e3d6000fd5b505050506040513d601f19601f820116820180604052508101906116689190612bca565b506001610130600086815260200190815260200160002060080160006101000a81548160ff0219169083151502179055505050506116a46119be565b50565b6116af61196f565b61012e60009054906101000a900473ffffffffffffffffffffffffffffffffffffffff1673ffffffffffffffffffffffffffffffffffffffff163373ffffffffffffffffffffffffffffffffffffffff1614611740576040517f08c379a0000000000000000000000000000000000000000000000000000000008152600401611737906132d0565b60405180910390fd5b8061012f819055506117506119be565b50565b61175b611bbc565b600073ffffffffffffffffffffffffffffffffffffffff168173ffffffffffffffffffffffffffffffffffffffff16036117ca576040517f08c379a00000000000000000000000000000000000000000000000000000000081526004016117c190613362565b60405180910390fd5b6117d381611c9d565b50565b60008060019054906101000a900460ff161590508080156118075750600160008054906101000a900460ff1660ff16105b80611834575061181630611dc6565b1580156118335750600160008054906101000a900460ff1660ff16145b5b611873576040517f08c379a000000000000000000000000000000000000000000000000000000000815260040161186a906133f4565b60405180910390fd5b60016000806101000a81548160ff021916908360ff16021790555080156118b0576001600060016101000a81548160ff0219169083151502179055505b8161012f819055506118c0611de9565b6118c8611e42565b6118d0611e9b565b3361012e60006101000a81548173ffffffffffffffffffffffffffffffffffffffff021916908373ffffffffffffffffffffffffffffffffffffffff160217905550801561196b5760008060016101000a81548160ff0219169083151502179055507f7f26b83ff96e1f2b6a682f133852f6798a09c465da95921460cefb38474024986001604051611962919061345c565b60405180910390a15b5050565b600260fb54036119b4576040517f08c379a00000000000000000000000000000000000000000000000000000000081526004016119ab906134c3565b60405180910390fd5b600260fb81905550565b600160fb81905550565b6001816000016000828254019250508190555050565b600081600001549050919050565b6000611a1a7f360894a13ba1a3210667c828492db98dca3e2076cc3735a920a3ca505d382bbc60001b611eec565b60000160009054906101000a900473ffffffffffffffffffffffffffffffffffffffff16905090565b611a4b611bbc565b50565b611a7a7f4910fdfa16fed3260ed0e7147f7cc6da11a60208b5b9406d12a635614ffd914360001b611ef6565b60000160009054906101000a900460ff1615611a9e57611a9983611f00565b611bb7565b8273ffffffffffffffffffffffffffffffffffffffff166352d1902d6040518163ffffffff1660e01b8152600401602060405180830381865afa925050508015611b0657506040513d601f19601f82011682018060405250810190611b03919061350f565b60015b611b45576040517f08c379a0000000000000000000000000000000000000000000000000000000008152600401611b3c906135ae565b60405180910390fd5b7f360894a13ba1a3210667c828492db98dca3e2076cc3735a920a3ca505d382bbc60001b8114611baa576040517f08c379a0000000000000000000000000000000000000000000000000000000008152600401611ba190613640565b60405180910390fd5b50611bb6838383611fb9565b5b505050565b611bc4611fe5565b73ffffffffffffffffffffffffffffffffffffffff16611be2611231565b73ffffffffffffffffffffffffffffffffffffffff1614611c38576040517f08c379a0000000000000000000000000000000000000000000000000000000008152600401611c2f906136ac565b60405180910390fd5b565b611c42611fed565b6000603360006101000a81548160ff0219169083151502179055507f5db9ee0a495bf2e6ff9c91a7834c1ba4fdd244a5e8aa4e537bd38aeae4b073aa611c86611fe5565b604051611c9391906129f0565b60405180910390a1565b6000606560009054906101000a900473ffffffffffffffffffffffffffffffffffffffff16905081606560006101000a81548173ffffffffffffffffffffffffffffffffffffffff021916908373ffffffffffffffffffffffffffffffffffffffff1602179055508173ffffffffffffffffffffffffffffffffffffffff168173ffffffffffffffffffffffffffffffffffffffff167f8be0079c531659141344cd1fd0a4f28419497f9722a3daafe3b4186f6b6457e060405160405180910390a35050565b611d6b612036565b6001603360006101000a81548160ff0219169083151502179055507f62e78cea01bee320cd4e420270b5ea74000d11b0c9f74754ebdbfc544b05a258611daf611fe5565b604051611dbc91906129f0565b60405180910390a1565b6000808273ffffffffffffffffffffffffffffffffffffffff163b119050919050565b600060019054906101000a900460ff16611e38576040517f08c379a0000000000000000000000000000000000000000000000000000000008152600401611e2f9061373e565b60405180910390fd5b611e40612080565b565b600060019054906101000a900460ff16611e91576040517f08c379a0000000000000000000000000000000000000000000000000000000008152600401611e889061373e565b60405180910390fd5b611e996120ec565b565b600060019054906101000a900460ff16611eea576040517f08c379a0000000000000000000000000000000000000000000000000000000008152600401611ee19061373e565b60405180910390fd5b565b6000819050919050565b6000819050919050565b611f0981611dc6565b611f48576040517f08c379a0000000000000000000000000000000000000000000000000000000008152600401611f3f906137d0565b60405180910390fd5b80611f757f360894a13ba1a3210667c828492db98dca3e2076cc3735a920a3ca505d382bbc60001b611eec565b60000160006101000a81548173ffffffffffffffffffffffffffffffffffffffff021916908373ffffffffffffffffffffffffffffffffffffffff16021790555050565b611fc28361214d565b600082511180611fcf5750805b15611fe057611fde838361219c565b505b505050565b600033905090565b611ff5610e4c565b612034576040517f08c379a000000000000000000000000000000000000000000000000000000000815260040161202b9061383c565b60405180910390fd5b565b61203e610e4c565b1561207e576040517f08c379a0000000000000000000000000000000000000000000000000000000008152600401612075906138a8565b60405180910390fd5b565b600060019054906101000a900460ff166120cf576040517f08c379a00000000000000000000000000000000000000000000000000000000081526004016120c69061373e565b60405180910390fd5b6000603360006101000a81548160ff021916908315150217905550565b600060019054906101000a900460ff1661213b576040517f08c379a00000000000000000000000000000000000000000000000000000000081526004016121329061373e565b60405180910390fd5b61214b612146611fe5565b611c9d565b565b61215681611f00565b8073ffffffffffffffffffffffffffffffffffffffff167fbc7cd75a20ee27fd9adebab32041f755214dbc6bffa90cc0225b39da2e5c2d3b60405160405180910390a250565b60606121a783611dc6565b6121e6576040517f08c379a00000000000000000000000000000000000000000000000000000000081526004016121dd9061393a565b60405180910390fd5b6000808473ffffffffffffffffffffffffffffffffffffffff168460405161220e91906139a1565b600060405180830381855af49150503d8060008114612249576040519150601f19603f3d011682016040523d82523d6000602084013e61224e565b606091505b509150915061227682826040518060600160405280602781526020016139b960279139612280565b9250505092915050565b606083156122905782905061229b565b61229a83836122a2565b5b9392505050565b6000825111156122b55781518083602001fd5b806040517f08c379a00000000000000000000000000000000000000000000000000000000081526004016122e9919061279d565b60405180910390fd5b60405180610140016040528060008152602001600073ffffffffffffffffffffffffffffffffffffffff168152602001600073ffffffffffffffffffffffffffffffffffffffff168152602001600073ffffffffffffffffffffffffffffffffffffffff168152602001600073ffffffffffffffffffffffffffffffffffffffff1681526020016000815260200160008152602001600081526020016000151581526020016000151581525090565b6000604051905090565b600080fd5b600080fd5b6000819050919050565b6123c8816123b5565b81146123d357600080fd5b50565b6000813590506123e5816123bf565b92915050565b600060208284031215612401576124006123ab565b5b600061240f848285016123d6565b91505092915050565b600073ffffffffffffffffffffffffffffffffffffffff82169050919050565b600061244382612418565b9050919050565b61245381612438565b811461245e57600080fd5b50565b6000813590506124708161244a565b92915050565b600080600080600060a08688031215612492576124916123ab565b5b60006124a088828901612461565b95505060206124b188828901612461565b94505060406124c2888289016123d6565b93505060606124d3888289016123d6565b92505060806124e4888289016123d6565b9150509295509295909350565b6124fa816123b5565b82525050565b600060208201905061251560008301846124f1565b92915050565b600060208284031215612531576125306123ab565b5b600061253f84828501612461565b91505092915050565b600080fd5b600080fd5b6000601f19601f8301169050919050565b7f4e487b7100000000000000000000000000000000000000000000000000000000600052604160045260246000fd5b61259b82612552565b810181811067ffffffffffffffff821117156125ba576125b9612563565b5b80604052505050565b60006125cd6123a1565b90506125d98282612592565b919050565b600067ffffffffffffffff8211156125f9576125f8612563565b5b61260282612552565b9050602081019050919050565b82818337600083830152505050565b600061263161262c846125de565b6125c3565b90508281526020810184848401111561264d5761264c61254d565b5b61265884828561260f565b509392505050565b600082601f83011261267557612674612548565b5b813561268584826020860161261e565b91505092915050565b600080604083850312156126a5576126a46123ab565b5b60006126b385828601612461565b925050602083013567ffffffffffffffff8111156126d4576126d36123b0565b5b6126e085828601612660565b9150509250929050565b6000819050919050565b6126fd816126ea565b82525050565b600060208201905061271860008301846126f4565b92915050565b600081519050919050565b600082825260208201905092915050565b60005b8381101561275857808201518184015260208101905061273d565b60008484015250505050565b600061276f8261271e565b6127798185612729565b935061278981856020860161273a565b61279281612552565b840191505092915050565b600060208201905081810360008301526127b78184612764565b905092915050565b60008115159050919050565b6127d4816127bf565b82525050565b60006020820190506127ef60008301846127cb565b92915050565b600081519050919050565b600082825260208201905092915050565b6000819050602082019050919050565b61282a816123b5565b82525050565b600061283b82612418565b9050919050565b61284b81612830565b82525050565b61285a81612438565b82525050565b612869816127bf565b82525050565b610140820160008201516128866000850182612821565b5060208201516128996020850182612842565b5060408201516128ac6040850182612842565b5060608201516128bf6060850182612851565b5060808201516128d26080850182612851565b5060a08201516128e560a0850182612821565b5060c08201516128f860c0850182612821565b5060e082015161290b60e0850182612821565b50610100820151612920610100850182612860565b50610120820151612935610120850182612860565b50505050565b6000612947838361286f565b6101408301905092915050565b6000602082019050919050565b600061296c826127f5565b6129768185612800565b935061298183612811565b8060005b838110156129b2578151612999888261293b565b97506129a483612954565b925050600181019050612985565b5085935050505092915050565b600060208201905081810360008301526129d98184612961565b905092915050565b6129ea81612438565b82525050565b6000602082019050612a0560008301846129e1565b92915050565b7f596f7520617265206e6f74207468652063726561746f72206f6620746869732060008201527f7472616465210000000000000000000000000000000000000000000000000000602082015250565b6000612a67602683612729565b9150612a7282612a0b565b604082019050919050565b60006020820190508181036000830152612a9681612a5a565b9050919050565b7f547261646520697320616c72656164792063616e63656c6c6564000000000000600082015250565b6000612ad3601a83612729565b9150612ade82612a9d565b602082019050919050565b60006020820190508181036000830152612b0281612ac6565b9050919050565b7f547261646520697320616c726561647920736f6c640000000000000000000000600082015250565b6000612b3f601583612729565b9150612b4a82612b09565b602082019050919050565b60006020820190508181036000830152612b6e81612b32565b9050919050565b6000604082019050612b8a60008301856129e1565b612b9760208301846124f1565b9392505050565b612ba7816127bf565b8114612bb257600080fd5b50565b600081519050612bc481612b9e565b92915050565b600060208284031215612be057612bdf6123ab565b5b6000612bee84828501612bb5565b91505092915050565b600081519050612c06816123bf565b92915050565b600060208284031215612c2257612c216123ab565b5b6000612c3084828501612bf7565b91505092915050565b7f4e487b7100000000000000000000000000000000000000000000000000000000600052601260045260246000fd5b7f4e487b7100000000000000000000000000000000000000000000000000000000600052601160045260246000fd5b6000612ca2826123b5565b9150612cad836123b5565b925082612cbd57612cbc612c39565b5b828204905092915050565b6000612cd3826123b5565b9150612cde836123b5565b9250828201905080821115612cf657612cf5612c68565b5b92915050565b7f596f7520646f6e2774206861766520656e6f75676820616d6f756e74206f662060008201527f746f6b656e7320746f20646f2074686520747261646500000000000000000000602082015250565b6000612d58603683612729565b9150612d6382612cfc565b604082019050919050565b60006020820190508181036000830152612d8781612d4b565b9050919050565b6000606082019050612da360008301866129e1565b612db060208301856129e1565b612dbd60408301846124f1565b949350505050565b6000819050919050565b6000612dea612de5612de084612418565b612dc5565b612418565b9050919050565b6000612dfc82612dcf565b9050919050565b6000612e0e82612df1565b9050919050565b612e1e81612e03565b82525050565b6000606082019050612e3960008301866129e1565b612e466020830185612e15565b612e5360408301846124f1565b949350505050565b7f46756e6374696f6e206d7573742062652063616c6c6564207468726f7567682060008201527f64656c656761746563616c6c0000000000000000000000000000000000000000602082015250565b6000612eb7602c83612729565b9150612ec282612e5b565b604082019050919050565b60006020820190508181036000830152612ee681612eaa565b9050919050565b7f46756e6374696f6e206d7573742062652063616c6c6564207468726f7567682060008201527f6163746976652070726f78790000000000000000000000000000000000000000602082015250565b6000612f49602c83612729565b9150612f5482612eed565b604082019050919050565b60006020820190508181036000830152612f7881612f3c565b9050919050565b7f555550535570677261646561626c653a206d757374206e6f742062652063616c60008201527f6c6564207468726f7567682064656c656761746563616c6c0000000000000000602082015250565b6000612fdb603883612729565b9150612fe682612f7f565b604082019050919050565b6000602082019050818103600083015261300a81612fce565b9050919050565b600061301c826123b5565b91507fffffffffffffffffffffffffffffffffffffffffffffffffffffffffffffffff820361304e5761304d612c68565b5b600182019050919050565b7f4e487b7100000000000000000000000000000000000000000000000000000000600052603260045260246000fd5b7f596f7520646f6e277420686176652074686520656e6f7567682066756e64732060008201527f746f2065786368616e6765210000000000000000000000000000000000000000602082015250565b60006130e4602c83612729565b91506130ef82613088565b604082019050919050565b60006020820190508181036000830152613113816130d7565b9050919050565b7f5468697320747261646520697320616c726561647920736f6c64210000000000600082015250565b6000613150601b83612729565b915061315b8261311a565b602082019050919050565b6000602082019050818103600083015261317f81613143565b9050919050565b7f546869732074726164652069732063616e63656c6c6564210000000000000000600082015250565b60006131bc601883612729565b91506131c782613186565b602082019050919050565b600060208201905081810360008301526131eb816131af565b9050919050565b7f54686520747261646520697320696e76616c6964210000000000000000000000600082015250565b6000613228601583612729565b9150613233826131f2565b602082019050919050565b600060208201905081810360008301526132578161321b565b9050919050565b7f4f6e6c79206f776e657220697320616c6c6f77656420746f20646f207468697360008201527f20616374696f6e00000000000000000000000000000000000000000000000000602082015250565b60006132ba602783612729565b91506132c58261325e565b604082019050919050565b600060208201905081810360008301526132e9816132ad565b9050919050565b7f4f776e61626c653a206e6577206f776e657220697320746865207a65726f206160008201527f6464726573730000000000000000000000000000000000000000000000000000602082015250565b600061334c602683612729565b9150613357826132f0565b604082019050919050565b6000602082019050818103600083015261337b8161333f565b9050919050565b7f496e697469616c697a61626c653a20636f6e747261637420697320616c72656160008201527f647920696e697469616c697a6564000000000000000000000000000000000000602082015250565b60006133de602e83612729565b91506133e982613382565b604082019050919050565b6000602082019050818103600083015261340d816133d1565b9050919050565b6000819050919050565b600060ff82169050919050565b600061344661344161343c84613414565b612dc5565b61341e565b9050919050565b6134568161342b565b82525050565b6000602082019050613471600083018461344d565b92915050565b7f5265656e7472616e637947756172643a207265656e7472616e742063616c6c00600082015250565b60006134ad601f83612729565b91506134b882613477565b602082019050919050565b600060208201905081810360008301526134dc816134a0565b9050919050565b6134ec816126ea565b81146134f757600080fd5b50565b600081519050613509816134e3565b92915050565b600060208284031215613525576135246123ab565b5b6000613533848285016134fa565b91505092915050565b7f45524331393637557067726164653a206e657720696d706c656d656e7461746960008201527f6f6e206973206e6f742055555053000000000000000000000000000000000000602082015250565b6000613598602e83612729565b91506135a38261353c565b604082019050919050565b600060208201905081810360008301526135c78161358b565b9050919050565b7f45524331393637557067726164653a20756e737570706f727465642070726f7860008201527f6961626c65555549440000000000000000000000000000000000000000000000602082015250565b600061362a602983612729565b9150613635826135ce565b604082019050919050565b600060208201905081810360008301526136598161361d565b9050919050565b7f4f776e61626c653a2063616c6c6572206973206e6f7420746865206f776e6572600082015250565b6000613696602083612729565b91506136a182613660565b602082019050919050565b600060208201905081810360008301526136c581613689565b9050919050565b7f496e697469616c697a61626c653a20636f6e7472616374206973206e6f74206960008201527f6e697469616c697a696e67000000000000000000000000000000000000000000602082015250565b6000613728602b83612729565b9150613733826136cc565b604082019050919050565b600060208201905081810360008301526137578161371b565b9050919050565b7f455243313936373a206e657720696d706c656d656e746174696f6e206973206e60008201527f6f74206120636f6e747261637400000000000000000000000000000000000000602082015250565b60006137ba602d83612729565b91506137c58261375e565b604082019050919050565b600060208201905081810360008301526137e9816137ad565b9050919050565b7f5061757361626c653a206e6f7420706175736564000000000000000000000000600082015250565b6000613826601483612729565b9150613831826137f0565b602082019050919050565b6000602082019050818103600083015261385581613819565b9050919050565b7f5061757361626c653a2070617573656400000000000000000000000000000000600082015250565b6000613892601083612729565b915061389d8261385c565b602082019050919050565b600060208201905081810360008301526138c181613885565b9050919050565b7f416464726573733a2064656c65676174652063616c6c20746f206e6f6e2d636f60008201527f6e74726163740000000000000000000000000000000000000000000000000000602082015250565b6000613924602683612729565b915061392f826138c8565b604082019050919050565b6000602082019050818103600083015261395381613917565b9050919050565b600081519050919050565b600081905092915050565b600061397b8261395a565b6139858185613965565b935061399581856020860161273a565b80840191505092915050565b60006139ad8284613970565b91508190509291505056fe416464726573733a206c6f772d6c6576656c2064656c65676174652063616c6c206661696c6564a26469706673582212200c971930d17191c87d56288d42ccc8c17da996c6d46d19125dc7d4984f09ce0664736f6c63430008110033",
  "linkReferences": {},
  "deployedLinkReferences": {}
}